:10000000EDC1000012C2000010C200000EC20000CC
:100010000CC200000AC2000008C2000006C20000B4
:1000200004C2000002C2000000C200000C943F188D
:10003000FCC10000FAC10000F8C10000F6C10000D8
:100040000C94D009F2C10000F0C10000EEC1000024
:10005000ECC10000EAC10000E8C10000E6C10000F8
:10006000E4C10000E2C1000007070139FFABFF391E
:10007000010707F96171FF7161F9736964652073A4
:1000800063726F6C6C6572000A4E6F20534420637C
:10009000617264206F720A6E6F204C4F414445526A
:1000A0002E4845580A0A153A45786974001D2046BD
:1000B0006C617368696E670A20206C6F6164657299
:1000C0002E2E2E0A0A444F4E2754205455524E20AD
:1000D0004F464621004E4F20424154544552590A42
:1000E0000A504C454153450A5455524E204F4646FE
:1000F00000177361766500166261636B0015747991
:100100007065000A0A0A153A6F6B617920163A6524
:1001100064697400596F7520656E74657265640A50
:1001200000540A03E181867F3E186D830F0F0E0194
:1001300083866033186DC3198F1803C38E6033181C
:100140006DE330CF1803C39E603630CDE360CF300F
:1001500006C79E7E3E30CDB360CF300CC6F660330E
:1001600030D9B660CF33CFCCF66061B0DB1E60CF44
:1001700030D86CE6C061B0DB1E618F19986CC6C0C8
:1001800063B19B0E330F0FB078C6FF7E1F1B061E98
:100190000F1753440016137800161314001510207F
:1001A00000152010000000050089300802380249BF
:1001B00078681400004500680100000500680138F7
:1001C0000100000500380168010000F6E8DBCFC33C
:1001D000B8AEA49B928A827B746E68625C57524E62
:1001E0004945413E3A3734312E2C2927252321F326
:1001F00001F7010101F7030101FF0303053F213F5F
:100200000A100A1208120E1C0E0C1E0C141A1416D8
:100210001F161E131E1E1B1E1E1F1E3F213F3A2FA0
:100220003A173D173F213F181F02040A041F0E040E
:10023000040E1F0A1F0A0E0E1F04110E2E252E2F4C
:100240002A2E262929021F02081F08150E04040E53
:10025000150E15151B151B040604040C04000000E4
:100260000017000300031F0A1F16371A1904130A88
:10027000153A000300000E11110E000A040A040EC4
:10028000040030000404040010001804031F111FB0
:10029000121F101D151711151F07041F17151D1FFD
:1002A000151D01011F1F151F17151F000A00003221
:1002B00000040A110A0A0A110A040115020E111794
:1002C0001E051E1F150A0E110A1F110E1F15111FE4
:1002D00005010E111D1F041F111F1108100F1F040F
:1002E0001B1F10101F061F1E040F0E110E1F0906E4
:1002F0000E112E1F051A121509011F011F101F0FC5
:10030000180F1F0C1F1B041B031C03191513001FC0
:1003100011030418111F0002010220202000010215
:100320000C121E1F120C0C12120C121F0C1A1404A9
:100330001E05242A1E1F021C141D1020201D1F082C
:1003400014111F101E041E1E021C0C120C3E0A0467
:100350000C123E1E040214160A020F120E101E0E7C
:10036000100E1E081E120C1226281E322A26041EEB
:1003700021001F00211E040102013F213F00000057
:1003800000240027002A0000000000250028002B80
:1003900000000000002300260029000404040404D7
:1003A0000404040202020202020303030303030122
:1003B00002040810204080010204081020010204F9
:1003C00008102000000007000201000003040600DE
:1003D000000000000000000010070B0711241FBEE2
:1003E000CFEFD8E0DEBFCDBF11E0A0E0B1E0EAEB97
:1003F000F9E302C005900D92A434B107D9F715E0D6
:10040000A4E4B1E001C01D92AF3AB107E1F713E0F7
:10041000CAEDD3E004C02297FE010E94961CC83D9D
:10042000D107C9F7FDD50C94D11CEACDCF93DF934A
:10043000BC018230910510F462E070E0A091AD053E
:10044000B091AE05ED01E0E0F0E040E050E021C009
:10045000888199818617970769F48A819B813097F3
:1004600019F09383828304C09093AE058093AD0509
:10047000FE0134C06817790738F44115510519F0A9
:100480008417950708F4AC01FE018A819B819C01C9
:10049000E9012097E9F641155105A9F1CA01861B2A
:1004A000970B049708F4BA01E0E0F0E02AC08D91C0
:1004B0009C91119784179507F9F46417750781F4D7
:1004C00012968D919C911397309719F093838283A4
:1004D00004C09093AE058093AD05FD0132964CC0EB
:1004E000CA01861B970BFD01E80FF91F61937193F9
:1004F00002978D939C9340C0FD01828193819C0162
:10050000D9011097A1F68091AB059091AC05892B8C
:1005100041F48091090190910A019093AC05809378
:10052000AB0540910B0150910C014115510541F46F
:100530004DB75EB78091070190910801481B590B98
:100540002091AB053091AC05CA01821B930B861735
:10055000970780F0AB014E5F5F4F8417950750F00F
:10056000420F531F5093AC054093AB05F9016193C3
:10057000719302C0E0E0F0E0CF01DF91CF910895E8
:10058000CF93DF93009709F450C0EC0122971B82B0
:100590001A82A091AD05B091AE05109709F140E027
:1005A00050E0AC17BD0708F1BB83AA83FE0121917F
:1005B0003191E20FF31FAE17BF0779F48D919C9133
:1005C0001197280F391F2E5F3F4F398328831296CA
:1005D0008D919C9113979B838A834115510571F4EA
:1005E000D093AE05C093AD0520C012968D919C911D
:1005F0001397AD01009711F0DC01D3CFFA01D3833B
:10060000C28321913191E20FF31FCE17DF0769F406
:1006100088819981280F391F2E5F3F4FFA0131835E
:1006200020838A819B8193838283DF91CF91089578
:10063000A0E0B0E0EEE1F3E00C94A21CEC01A88095
:10064000B980CA80DB80A114B104C104D10441F493
:1006500084E2A82E89EDB82E8BE5C82E87E0D82E2F
:10066000C601B5012DE133EF41E050E00E94791C55
:1006700027EA31E440E050E00E94111C7B018C012C
:10068000C601B5012DE133EF41E050E00E94791C35
:10069000CA01B9012CEE34EF4FEF5FEF0E94111C3D
:1006A0006E0D7F1D801F911F97FF04C06150704029
:1006B00080409048688379838A839B839B01AC0147
:1006C0005F77B901CA01CDB7DEB7EAE00C94BE1C72
:1006D000AFCF8DE091E0ACCF60930D0170930E0130
:1006E00080930F019093100108950F93FC0187E10F
:1006F00091E0918380836283438381E087833683A3
:10070000258304830F910895FC0187E191E0918393
:1007100080831282138217821682158214820895B2
:10072000FC0187E191E091838083089520E0FC0142
:100730008781882309F421E0822F08950F93FC011B
:100740008781882309F481C08F5F8783893C40F4C7
:100750003281353528F4038107FD02C0013314F0DE
:10076000178273C08581968183309105A1F1843011
:1007700091054CF481309105E1F08230910524F52A
:10078000892B79F062C085309105D1F185309105D2
:100790006CF18630910509F440C0079709F055C007
:1007A00047C08481402F481B438380E991E06281E8
:1007B00024C02481021B0383230F228380E991E05C
:1007C000622F402F2F5F27C06481630F628380E90F
:1007D00091E0402F2AC02481020F0383230F22833C
:1007E00080E991E0622F402F2F5F2DC04481400FA0
:1007F0004383435080E991E0632F23E0F3D725C082
:100800008481080F0383232F281B228380E991E032
:10081000622F402F21500D5F17C08481632F681B0A
:100820006283635080E991E0438123E0D2D70DC019
:100830008481081B03832281281B228380E991E0A5
:10084000622F402F2150035048D70F910895FC018B
:1008500087E191E091838083CF01EEC30F931F93D3
:10086000CF93DF93FC018FE191E0DF018D939D93A6
:100870008D01109779F0EF01CE56DE4FC017D107EA
:1008800049F02897E881F9810190F081E02DCE01AF
:100890000995F4CFDF91CF911F910F910895EF92B9
:1008A000FF920F931F93CF93DF937C0100E010E042
:1008B000E80183E0CC0FDD1F8A95E1F72296CE0D8B
:1008C000DF1DCE0133DF882311F4CE0137DF0F5F48
:1008D0001F4F0233110561F7DF91CF911F910F91E7
:1008E000FF90EF9008955F926F927F928F929F9208
:1008F000AF92BF92CF92DF92EF92FF920F931F932E
:10090000DF93CF93CDB7DEB728970FB6F894DEBF4D
:100910000FBECDBF5C01762E642E4901502E00E043
:1009200010E06801C80153E0880F991F5A95E1F75C
:1009300002968A0D9B1DFADE882329F40F5F1F4F54
:100940000233110571F77E010894E11CF11CC70107
:10095000672D462D9401052DC8DECC0CDD1CF6015B
:100960003196EE0FFF1FEE0FFF1FD501AE0FBF1F19
:100970008B818C93D601AA0FBB1FAA0FBB1FAA0D98
:10098000BB1D8C8115968C931597EA0DFB1D8D81EF
:1009900082838E819F8118969C938E93179788856A
:1009A00019968C93C701BCDE28960FB6F894DEBF6B
:1009B0000FBECDBFCF91DF911F910F91FF90EF90B0
:1009C000DF90CF90BF90AF909F908F907F906F906F
:1009D0005F900895EF92FF920F931F93CF93DF9351
:1009E0007C018FE191E0F701819391938F01309722
:1009F00079F0E701CE56DE4FC017D10749F02897AE
:100A0000E881F9810190F081E02DCE010995F4CFC4
:100A1000C70112D3DF91CF911F910F91FF90EF90FB
:100A200008950F931F93CF93DF938C018FE191E093
:100A3000F801819391938F01C0E0D0E0C8018C0F41
:100A40009D1F62DE2896F1E0C039DF07B9F7DF911C
:100A5000CF911F910F910895FC0187E291E091835E
:100A6000808362834383358324830895FC0187E276
:100A700091E09183808315821482128213820895FB
:100A8000FC0187E291E091838083089520E0FC01DE
:100A900084819581892B09F421E0822F08950F9399
:100AA000CF93DF93EC016A81862F81508A838E3F3A
:100AB0001CF41D821C822AC08091B2019091B30166
:100AC000A091B401B091B5018F709070A070B0701A
:100AD0000097A105B105D1F465508FEC91E04B81F1
:100AE00026E030E002E0FFDE6A8163504B81435034
:100AF0008FEC91E027E030E0F6DE6A8163504B81B5
:100B00004D5F8FEC91E025E030E0EDDEDF91CF919D
:100B10000F910895FC01628163504381435080E945
:100B200091E028E630E00C94D70DFC0187E291E0DB
:100B300091838083CF0180C20F931F93CF93DF9364
:100B4000FC018FE291E0DF018D939D938D01109761
:100B500071F0EF01EE96C017D10749F02697E881B2
:100B6000F9810190F081E02DCE010995F4CFDF915C
:100B7000CF911F910F9108958F929F92AF92BF9244
:100B8000CF92DF92EF92FF920F931F93DF93CF9359
:100B900000D000D000D0CDB7DEB76C01962E842EE9
:100BA000590100E010E07801C801880F991F800FFB
:100BB000911F0196880F991F8C0D9D1D67DF88235B
:100BC00029F40F5F1F4F0A30110569F78E010F5F7F
:100BD0001F4FC801692D482D95013EDFF701EE0F2B
:100BE000FF1FEE0DFF1DEE0FFF1FEC0DFD1D8B8196
:100BF00084838C818583C7010196FC01EE0FFF1F62
:100C0000E80FF91FEE0FFF1FEC0DFD1D8D819E817A
:100C100091838083C80134DF26960FB6F894DEBF37
:100C20000FBECDBFCF91DF911F910F91FF90EF903D
:100C3000DF90CF90BF90AF909F908F900895EF92EC
:100C4000FF920F931F93CF93DF937C0100E010E09E
:100C5000E801CC0FDD1FC00FD11F2196CC0FDD1F87
:100C6000CE0DDF1DCE0112DF882321F4CE0117DF68
:100C7000CE0150DF0F5F1F4F0A30110549F7DF919A
:100C8000CF911F910F91FF90EF900895EF92FF92F7
:100C90000F931F93CF93DF937C018FE291E0F701D5
:100CA000819391938F01309771F0E701EE96C01711
:100CB000D10749F02697E881F9810190F081E02D74
:100CC000CE010995F4CFC701B7D1DF91CF911F9124
:100CD0000F91FF90EF9008950F931F93CF93DF93A1
:100CE0008C018FE291E0F801819391938F01C0E034
:100CF000D0E0C8018C0F9D1FB9DE2696CC33D105FC
:100D0000C1F7DF91CF911F910F910895FC0187E307
:100D100091E0918380838AE0828388E1838382E00B
:100D20008483168285E085830895FC0187E391E042
:100D3000918380830895FC018381833014F0815076
:100D400083830895FC0183818D3214F48F5F838344
:100D50000895FC018281853014F0815082830895CA
:100D6000FC0182818A3414F48F5F828308950F938B
:100D7000CF93DF93EC018D81863074F08E818823D0
:100D800069F46A816F5F8FEC91E04B8122E030E083
:100D90000C81A9DD1D8202C08F5F8D83DF91CF9111
:100DA0000F910895FC01628165504381435080E9B1
:100DB00091E021E730E0FBC6FC0187E391E09183FD
:100DC0008083CF0139C181309105B1F46F5F7F4FCE
:100DD00009F510929301109292018FE391E09093A4
:100DE00091018093900188EC91E090DF8FEC91E08D
:100DF00018DE81E693E070CF892B61F46F5F7F4F3F
:100E000049F481E693E098DE8FEC91E027DD88ECF1
:100E100091E08BCF089580E090E06FEF7FEFD3CF2C
:100E200081E090E06FEF7FEFCECF0F931F9304E44C
:100E300011E0C8010E947A14C8016AE770E00E94BC
:100E40007714C8010E943D1210925C011F910F910E
:100E5000089580919F03882309F071C08EE491E08A
:100E600061E0BED3882309F46AC081E080939F03C8
:100E700008C08EE491E061E0BDD3882311F01092A8
:100E80009F038091A003882309F05FC08EE491E066
:100E900063E0A6D3882309F458C081E08093A003BF
:100EA00008C08EE491E063E0A5D3882311F010928E
:100EB000A0038091A103882309F04DC08EE491E046
:100EC00060E08ED3882309F446C081E08093A103BB
:100ED00008C08EE491E060E08DD3882311F0109279
:100EE000A1038091A203882309F03BC08EE491E026
:100EF00062E076D38823A9F181E08093A20308C041
:100F00008EE491E062E076D3882311F01092A20380
:100F10008091A303882351F58EE491E064E060D3CF
:100F2000882321F181E08093A30308958EE491E06A
:100F300064E060D38823F1F01092A30308958091B8
:100F40009F03882309F49DCF94CF8091A003882329
:100F500009F4AFCFA6CF8091A103882309F4C1CFB4
:100F6000B8CF8091A203882399F2CACF8091A303BE
:100F70008823E1F6089584E491E00E9472128823A8
:100F800009F44DC066DF80919F03882319F088EC37
:100F900091E0D1DE8091A003882319F088EC91E0E4
:100FA000D1DE8091A103882319F088EC91E0D1DE95
:100FB0008091A203882319F088EC91E0D1DE809122
:100FC000A303882319F088EC91E0D1DE8EE491E050
:100FD00065E006D3882381F063E070E080E090E074
:100FE0002DE230E040E050E0B7D1462F81E693E0BB
:100FF00067E521E030E0C0DD81E693E020DE8FECA4
:1010000091E04DDC88EC91E0CDDE84E491E00E943B
:101010008B10682F80E991E04AE050E022C10895EA
:10102000CF93DF9392D201DFC0E0D0E0A4DF20971E
:10103000E9F30E940000FACFA3CA0895CF92DF928D
:10104000EF92FF920F931F93CF93DF937C016B017D
:101050008A01C0E0D0E00FC0D6016D916D01D701CB
:10106000ED91FC910190F081E02DC7010995C80F29
:10107000D91F015010400115110571F7CE01DF9104
:10108000CF911F910F91FF90EF90DF90CF90089537
:10109000EF92FF920F931F93CF93DF937C018B010D
:1010A000C0E0D0E0F8010F5F1F4F6491662359F054
:1010B000D701ED91FC910190F081E02DC7010995D8
:1010C000C80FD91FEFCFCE01DF91CF911F910F91A4
:1010D000FF90EF900895DC01ED91FC910190F0817B
:1010E000E02D09950895EF92FF920F931F938C01C5
:1010F000DC01ED91FC910190F081E02D6DE009950E
:101100007C01D801ED91FC910190F081E02DC801A6
:101110006AE009959C012E0D3F1DC9011F910F9199
:10112000FF90EF900895EF92FF920F931F937C0131
:10113000AFDF8C01C701D7DF9C01200F311FC90130
:101140001F910F91FF90EF900895CF93DF93EC01E3
:101150006115710519F420E030E00FC0DB010D903E
:101160000020E9F71197A61BB70BE881F9810280EF
:10117000F381E02DAD0109959C01C901DF91CF916B
:1011800008954F925F927F928F929F92AF92BF92FB
:10119000CF92DF92EF92FF920F931F93DF93CF9343
:1011A000CDB7DEB7A1970FB6F894DEBF0FBECDBFA7
:1011B0002C01742ECB01223008F42AE019A231E26E
:1011C000C32ED12CCC0EDD1E822E9924AA24BB2442
:1011D000672D752FA50194010E94571C79018A0182
:1011E000C801B701A50194010E94111C472D461B9F
:1011F0000894C108D1084A3014F4405D01C0495C2C
:10120000F6014083E114F1040105110521F07E2C63
:101210005F2DC801DDCFC201B60197DFA1960FB6E1
:10122000F894DEBF0FBECDBFCF91DF911F910F911C
:10123000FF90EF90DF90CF90BF90AF909F908F90F6
:101240007F905F904F900895DC012115310541F4A6
:10125000ED91FC910190F081E02D642F09950895A6
:1012600090CFEF92FF920F931F939A01E62EFF24E7
:1012700000E010E0B801A701E7DF1F910F91FF9098
:10128000EF9008952F923F924F925F926F927F92CC
:101290008F929F92AF92BF92CF92DF92EF92FF9286
:1012A0000F931F93DF93CF93CDB7DEB73B014C0174
:1012B00019012A016D897E898F89988D6A197B09A8
:1012C0008C099D09621A730A840A950AA401930184
:1012D0000E94111CE218F30804091509A8019701DE
:1012E0000E94791C2A0D3B1D4C1D5D1DB901CA01D0
:1012F000CF91DF911F910F91FF90EF90DF90CF90F2
:10130000BF90AF909F908F907F906F905F904F9025
:101310003F902F900895EF92FF920F931F937B01C0
:101320008C01611571058105910529F420E030E0FB
:1013300040E050E00AC0CDD9A80197010E94791C75
:10134000AC01CB01DA019C01AD01B901CA011F91C9
:101350000F91FF90EF900895EF92FF920F931F93DC
:101360007B018C0162177307840795075CF4261BC9
:10137000370B480B590BCA01B901CDDFE60EF71E3A
:10138000081F191FB701C8011F910F91FF90EF901F
:101390000895009721F0BC0180E090E09DC9089578
:1013A0001F920F920FB60F9211242F933F938F939A
:1013B0009F93AF93BF938091A8039091A903A091AD
:1013C000AA03B091AB033091AC030196A11DB11DEE
:1013D000232F2D5F2D3720F02D570196A11DB11D14
:1013E0002093AC038093A8039093A903A093AA032E
:1013F000B093AB038091A4039091A503A091A603A1
:10140000B091A7030196A11DB11D8093A4039093F1
:10141000A503A093A603B093A703BF91AF919F919B
:101420008F913F912F910F900FBE0F901F901895A5
:101430008FB7F8942091A8033091A9034091AA0393
:101440005091AB038FBFB901CA0108959FB7F894BB
:101450002091A4033091A5034091A6035091A703C6
:1014600086B5A89B06C08F3F21F02F5F3F4F4F4F9F
:101470005F4F9FBF542F432F322F2227280F311D3C
:10148000411D511D82E0220F331F441F551F8A95B5
:10149000D1F7B901CA0108959B01AC017FB7F89457
:1014A0008091A4039091A503A091A603B091A703F6
:1014B00066B5A89B05C06F3F19F00196A11DB11D2F
:1014C0007FBFBA2FA92F982F8827860F911DA11DA6
:1014D000B11D62E0880F991FAA1FBB1F6A95D1F743
:1014E000BC012DC0FFB7F8948091A4039091A5038F
:1014F000A091A603B091A703E6B5A89B05C0EF3F56
:1015000019F00196A11DB11DFFBFBA2FA92F982F69
:1015100088278E0F911DA11DB11DE2E0880F991F34
:10152000AA1FBB1FEA95D1F7861B970B885E9340D5
:10153000C8F2215030404040504068517C4F211546
:1015400031054105510571F60895789484B582609E
:1015500084BD84B5816084BD85B5826085BD85B557
:10156000816085BDEEE6F0E0808181608083E1E806
:10157000F0E010828081826080838081816080833E
:10158000E0E8F0E0808181608083E1EBF0E0808141
:1015900084608083E0EBF0E0808181608083EAE713
:1015A000F0E080818460808380818260808380819C
:1015B000816080838081806880831092C10008955B
:1015C000FC0188E0808389E0818387E0828386E074
:1015D000838384E0848382E0858381E18683089528
:1015E00020E0FC01E60FF11D8781813009F421E044
:1015F000822F089520E0FC01E60FF11D87818F3FC7
:1016000009F421E0822F08950F931F93CF93DF9366
:10161000EC0110E00FEF888162E00E945F19888181
:101620000E94F2192F81892B19F42F5F2F8307C095
:10163000222349F02F3F11F41F8201C00F838881BC
:1016400060E00E945F191F5F2196173021F7DF913C
:10165000CF911F910F910895FC01678F60A30895AA
:10166000FC01678F40A30895FC016435A8F547FD90
:1016700033C040338CF5878D942F9595959595952E
:10168000772767FD70954770882399F0E4E59E02FF
:10169000F0011124E60FF71FE355FC4F81E090E0C5
:1016A00002C0880F991F4A95E2F72081282B2083DA
:1016B0000895E4E59E02F0011124E60FF71FE355BB
:1016C000FC4F81E090E002C0880F991F4A95E2F735
:1016D00080952081282320830895AF92BF92CF92D6
:1016E000DF92EF92FF920F931F93CF93DF93EC0162
:1016F000162FF42EE22EAA24402F552747FD509591
:101700008F2D992787FD9095481B590B57FF03C0D4
:10171000509541955F4F2E2D332727FD3095812F12
:10172000992787FD9095281B390B37FF03C030950B
:1017300021953F4F2417350744F4AA24A3948F2DF5
:10174000F12E182F802F0E2DE82EE11634F48E2D59
:10175000E12E182F802F0F2DF82EDE2CD11A202FDE
:10176000332727FD30958F2D992787FD9095281BCE
:10177000390B37FF03C0309521953F4FB22EF0163D
:101780001CF0CC24CA9402C0CC24C3948D2DD7FC69
:101790008F5F082F059510C0AA2021F0CE016F2D74
:1017A000412F03C0CE01612F4F2D5EDF0B1907FFC4
:1017B00002C0FC0C0D0D1F5FE11674F7DF91CF9195
:1017C0001F910F91FF90EF90DF90CF90BF90AF905F
:1017D00008950F93042F322F262F2150230F7DDFE2
:1017E0000F9108950F93362F042F0150020F232FCE
:1017F00074DF0F9108959F92AF92BF92CF92DF92C4
:10180000EF92FF920F931F93CF93DF936C01B62E4D
:10181000942EA02EC0E0D0E0E62EFF24E7FCF0944A
:10182000022F112707FD10950E0D1F1D05C0C601C3
:10183000492D2A2DD7DF21966B2D6C0FCE018E0DF1
:101840009F1D801791079CF3DF91CF911F910F91FE
:10185000FF90EF90DF90CF90BF90AF909F90089552
:101860002F923F925F926F927F928F929F92AF9250
:10187000BF92CF92DF92EF92FF920F931F93DF936D
:10188000CF9300D000D000D0CDB7DEB79E838D833C
:10189000C62ED42EEE24E394E21A8EEF289F502C0D
:1018A0001124842E8A94962E9A94A42EA394B62E54
:1018B000B394F22E662423E0722E10E0C8018470E7
:1018C00090709A838983F801E270F070FC83EB8357
:1018D00098E0292E312C20223122017010704CC04A
:1018E000E7FC04C0FA94F2E05F0EE50C6394898192
:1018F0009A81892B61F04F2D4D0D8D819E816B2D2D
:10190000B3DE6F2D6C0D8D819E814A2DADDEEB8196
:10191000FC81EF2B61F04D2D4F198D819E816B2D38
:10192000A3DE6F2D6C0D8D819E81482D9DDE2114CF
:10193000310461F06C2D6F198D819E814A2D94DEEA
:101940004F2D4D0D8D819E81692D8EDE0115110566
:1019500061F06C2D6F198D819E81482D85DE4D2D96
:101960004F198D819E81692D7FDEE70CF2E07F0E9D
:101970008A949A94A394B3946F140CF4B1CF2696DE
:101980000FB6F894DEBF0FBECDBFCF91DF911F9190
:101990000F91FF90EF90DF90CF90BF90AF909F900E
:1019A0008F907F906F905F903F902F9008954F920F
:1019B0005F926F927F928F929F92AF92BF92CF92DF
:1019C000DF92EF92FF920F931F93CF93DF93EC017F
:1019D000A62E742E9E2DFF24F394F21A8EEF289FCC
:1019E000802C1124B42EBA9453E0C52ECE0CE22ED6
:1019F000DD2443E0942E10E031E0432E512C4022B0
:101A00005122692E63940270107030C0F7FC04C03C
:101A1000EA9482E0880EF80CD3944114510479F0D2
:101A20006D2D6A0D472D4E192E2D220F260DCE013C
:101A3000D9DE6E2D6A0DCE014B2D2C2DD3DE011576
:101A4000110579F06A2D6D19472D4E192E2D220F93
:101A5000260DCE01C7DE6A2D6E19CE014B2D2C2D21
:101A6000C1DEF90C82E0980EBA94C80EDE1474F24E
:101A7000DF91CF911F910F91FF90EF90DF90CF906A
:101A8000BF90AF909F908F907F906F905F904F909E
:101A900008957F928F929F92AF92BF92CF92DF92E2
:101AA000EF92FF920F931F936C01962EA42EF22EAD
:101AB0007E2C760E1EEFE19E102D1124812E820EBB
:101AC000672D282D86DEB02EBA0CBA94C601672D7C
:101AD0004B2D282D7EDEAE0C100FC601692D4A2D30
:101AE000212F80DEF90CFA94C6016F2D4A2D212F8B
:101AF00079DEC601672D4A2D2E2D01E0B1DEFE18DC
:101B0000C6016F2D4A2D2E2D02E0AADEBE18C60199
:101B10006F2D4B2D2E2D04E0A3DEC601672D4B2D1E
:101B20002E2D08E09DDE1F910F91FF90EF90DF902A
:101B3000CF90BF90AF909F908F907F9008958F929D
:101B40009F92AF92BF92CF92DF92EF92FF920F934C
:101B50001F936C01162FA42E922EF02EBE2C8E2CCD
:101B6000860E2EEFE29EE02C11242E2D290D682DDD
:101B700042DEAB0CFA94FE0C1150190D1B19C60174
:101B8000612F4A2D2B2D01E0EF2C11DFC601682DAE
:101B90004A2D2B2D02E00BDF1F910F91FF90EF904C
:101BA000DF90CF90BF90AF909F908F9008953F921D
:101BB0004F925F926F927F928F929F92AF92BF925D
:101BC000CF92DF92EF92FF920F931F93CF93DF9309
:101BD0004C01362E442EF901A490319654906F0199
:101BE0000894C11CD11C8A2D992787FD90950796D2
:101BF00068E070E00E94441CE62EFF24E7FCF094AD
:101C000000E0C0E0D0E060E8662E712C25C0E12F36
:101C1000E595E595E595FF27E7FDF095EC0FFD1FB0
:101C2000EC0DFD1DE4912E2F30E0812F8770A30174
:101C300002C0559547958A95E2F724233523232B37
:101C400029F0612F630DC4014B2D0EDD1F5F1A15A6
:101C5000F4F20F5FCE0DDF1D051524F410E0B02E59
:101C6000B40CF5CFDF91CF911F910F91FF90EF90C2
:101C7000DF90CF90BF90AF909F908F907F906F90AC
:101C80005F904F903F9008953F924F925F926F9276
:101C90007F928F929F92AF92BF92CF92DF92EF92FC
:101CA000FF920F931F93CF93DF93EC01862EA42E08
:101CB000422F102F3F8C23E526170CF4A7C03FE2DC
:101CC0003A150CF4A3C0C02EDD248C8190E001975E
:101CD0009C01C29EC001C39E900DD29E900D112406
:101CE000262F332727FD3095820F931F18161906CC
:101CF0000CF08CC08D8190E09C01C29EC001C39EFF
:101D0000900DD29E900D11242A2D332727FD30955A
:101D1000820F931F181619060CF078C09924442ED0
:101D2000552469C09C01215030404217530711F4DB
:101D300060E00EC0429EC001439E900D529E900DE9
:101D40001124840F951FED8DFE8DE80FF91F64910E
:101D50004C9DC0014D9D900D5C9D900D1124682CF3
:101D6000680EBB24792C780C3BC0E62EFF2460FF64
:101D700017C0113031F44B2D4A0DCE01672D74DCA4
:101D80002BC02C9DC0012D9D900D3C9D900D1124CC
:101D90004A2D480FCE01662D212F012F2CDD1CC0AE
:101DA00098A18F8D9817C1F09F8F113031F44B2D72
:101DB0004A0DCE01672D58DC0EC02C9DC0012D9D13
:101DC000900D3C9D900D11244A2D480FCE01662D9B
:101DD000212F012F10DD3F8EF594E7946E2DB394E3
:101DE0002B2D332727FD30958D8190E0281739075B
:101DF0000CF4BBCF9394492D552747FD50958C810A
:101E000090E0481759070CF48DCF3F8EDF91CF91AA
:101E10001F910F91FF90EF90DF90CF90BF90AF9008
:101E20009F908F907F906F905F904F903F9008951C
:101E30000F93CF93DF93EC01262F6A3049F48D8105
:101E40009885899F802D11249A85980F9A8725C09F
:101E50006D3021F169854A85088516DF9C8168858A
:101E6000969F402D11248985480F49878F818823AB
:101E7000A9F0552747FD5095699F9001112484E5ED
:101E800090E0821B930B8417950744F49D81699F12
:101E9000902D11248A85890F8A87198681E090E028
:101EA000DF91CF910F9108951F93CF93DF93EC01B2
:101EB000162FF8948E8560E00E949E198F85181663
:101EC0001CF460E00E949E191EBD0DB407FEFDCFFC
:101ED0008EB58F8518161CF461E00E949E197894C7
:101EE000DF91CF911F910895FF920F931F93CF938E
:101EF000DF93EC01FF2400E010E06F2D6064CE0161
:101F0000D3DFCE0160E8D0DF8E8561E00E949E19AC
:101F10008F8518161CF460E00E949E19F801E355A5
:101F2000FC4F90E080818EBD0DB407FEFDCF8EB5D5
:101F30009F5F31969435B1F78F8518161CF461E0D8
:101F40000E949E19F3940C5A1F4F86E0F816A9F6CA
:101F5000CE0160E4A9DFDF91CF911F910F91FF9037
:101F60000895CF93DF93DC0188EF91E0EDEAF3E091
:101F7000EF019C01199221503040E1F719961C9213
:101F800019971A961C92DF91CF910895EF920F93B3
:101F9000CF93DF93EC014D876C872E87E88A0F87FC
:101FA00081E088878F8F18A28F83EBEFF1E0849117
:101FB0008F5F8C83319684918F5F8D833196FE8FF6
:101FC000ED8F0E94CD1881E00E94AE1885E00E943E
:101FD000BC188CE00E94B7188D8561E00E945F19E3
:101FE0008C8561E00E945F198E8561E00E945F1917
:101FF000888918161CF461E00E945F198F851816F5
:102000001CF461E00E945F198889181664F460E08E
:102010000E949E196AE070E080E090E03DDA8889D5
:1020200061E00E949E19EC852E2F332727FD309505
:10203000F901E556FC4FE491F0E0EE0FFF1FE95780
:10204000FC4F859194919C8B8B8B21553C4FF901D2
:1020500084918A8FED852E2F332727FD3095F90146
:10206000E556FC4FE491F0E0EE0FFF1FE957FC4FFF
:10207000859194919A8B898B21553C4FF9018491DC
:10208000898FEF852E2F332727FD3095F901E556EF
:10209000FC4FE491F0E0EE0FFF1FE957FC4F8591F4
:1020A00094919E8B8D8B21553C4FF90184918B8FA0
:1020B000EE852E2F332727FD3095F901E556FC4F8D
:1020C000E491F0E0EE0FFF1FE957FC4F85919491EA
:1020D000988F8F8B21553C4FF90184918C8FCE01C5
:1020E00061E2E2DECE0164E1DFDE8B8587FF02C0C4
:1020F0008FE78B876B856068CE01D6DECE0160E20C
:10210000D3DECE016CE0D0DECE01EEDEDF91CF91EA
:102110000F91EF900895FC01E458FF4F60818AE031
:10212000689FB00111243A97808191810E94301CF0
:10213000862F0895CF93DF93DC01E0E8FFE68591D9
:102140009491ED01C95ADF4FAD0143595F4F815062
:10215000904C09F04EC0E6E9FFE6E491E883E7E938
:10216000FFE6E4911496EC931497E8E9FFE6E49116
:102170001596EC931597E9E9FFE6859194911796EA
:102180009C938E931697EBE9FFE6859194911996AF
:102190009C938E931897EDE9FFE6E4919996EC9362
:1021A0009997EEE9FFE6E4919896EC939897EFE91A
:1021B000FFE6E491EA01E883E0EAFFE68591949185
:1021C0005D969C938E935C97E2EAFFE685919491ED
:1021D0005F969C938E935E97E4EAFFE685919491D7
:1021E00091969C938E939097E6EAFFE68591949161
:1021F00032C08CE3888314961C9214972FEF1596A7
:102200002C93159780E293E017969C938E931697E4
:1022100084ED93E019969C938E93189781E099969C
:102220008C93999798968C939897FA0120838CEACF
:102230009DE05D969C938E935C978EED9DE05F96FE
:102240009C938E935E9784E79EE091969C938E93E9
:1022500090978CE39FE093969C938E939297DF9157
:10226000CF910895EF92FF920F931F93CF93DF9337
:102270007C018C01045B1F4FC80173DEC8016DEA4D
:1022800070E00E944808C8012FDE83E075D780E027
:1022900091E0EEEFFFE3099582E590E0E80EF91E8C
:1022A000F7011082C80168E870E00E949308C80135
:1022B0001BDEE701C854D040CE01A6D9CE0164E0B0
:1022C0008FD9882331F462E370E080E090E0E4D8B5
:1022D000F3CFDF91CF911F910F91FF90EF90089571
:1022E0000F931F93CF93DF93EC018C01045B1F4F7F
:1022F000C80161E040E0B4D9FE01EB5AFF4FC05B7A
:10230000DF4F85E59881891B808326961882C65504
:10231000D040698D613049F1613028F0888D653099
:1023200008F03CC036C0CE018596C5D3CE0160E032
:102330000E94491AC80115DEC80165ED70E00E94CF
:102340004808C801D1DD83B7817F846083BF83B72C
:10235000816083BF83B7816083BF889583B78E7F99
:1023600083BF83B78E7F83BF1FC0C259DF4F888171
:102370009981AA81BB818F709070A070B07008970E
:10238000A105B10518F4C80167E00CC0C80168E7F1
:1023900009C0882349F06B5FC80104C0882321F07D
:1023A000C8016FE20E946B08DF91CF911F910F91DE
:1023B0000895AF92BF92CF92DF92EF92FF920F9368
:1023C0001F93CF93DF93EC01CD57DF4F8881C35824
:1023D000D040882309F446C08C3010F010E002C0D1
:1023E0001CE0181BCC5ADF4F81E08883C455D040D5
:1023F0006CE4C62ED12CCC0EDD1EC60160E02CD9BB
:1024000051E5A52EB12CAC0EBD1EF50100814DE2AB
:10241000F42E4F2D401B410F0D5FC60160E024E5F7
:1024200033E0E32E8CDBC60161E016D9F5010081B3
:10243000F01AF10E0D5FC60160E04F2D24E529DB97
:10244000CB5ADF4F84E08993F5018081181B115D21
:102450001883AB9669917991C6010E9448088881DA
:1024600081508883DF91CF911F910F91FF90EF9062
:10247000DF90CF90BF90AF9008958F929F92AF92D0
:10248000BF92CF92DF92EF92FF920F931F934C0176
:10249000FC01A28CB38CCC24DD240E94260A7B0193
:1024A0008C01F401818092800E94260A860E971E7C
:1024B000E094F09400951095C801B701A60195012C
:1024C0000E94111C860E971EC4010E94C9091F910B
:1024D0000F91FF90EF90DF90CF90BF90AF909F90C3
:1024E0008F900895AF92BF92CF92DF92EF92FF92BA
:1024F0000F931F93CF93DF93EC01EDE7AE2EB12C3A
:10250000A80EB91EF501E080F180028113810E94BE
:10251000180AE61AF70A080B190B7CE7C72ED12C0C
:10252000CC0EDD1EF601808190E0A0E0B0E08E15BB
:102530009F05A007B10708F077C08E0108581F4F0C
:10254000F80180819181A281B3810097A105B10535
:1025500009F46AC00E94180AF6012081620F711DF9
:10256000811D911DF5016083718382839383FE0138
:10257000E259FF4F80819181A281B3810196A11D13
:10258000B11D80839183A283B383F80110821182ED
:10259000128213820E94260ACC58DF4F6883798307
:1025A0008A839B83C457D040CE0176D7CE010A964A
:1025B0002BD8CE014896E0D78E010B5D1F4FC80186
:1025C00064D2C801D5D3C80124D581E022C0CE0190
:1025D000F0DECE0185DE8E01045B1F4FC80184DC76
:1025E000CE5ADF4F8881C255D040882311F4C801EC
:1025F000B8DC0E94260AC858DF4F688379838A8333
:102600009B83249728813981621B730B7A936A9389
:1026100080E0DF91CF911F910F91FF90EF90DF90BD
:10262000CF90BF90AF900895C858DF4F88819981AF
:10263000AA81BB81C857D0400097A105B10541F7D9
:10264000C6CF2F923F924F925F926F927F928F925E
:102650009F92AF92BF92CF92DF92EF92FF920F9331
:102660001F93DF93CF93CDB7DEB72B970FB6F894B8
:10267000DEBF0FBECDBF9B878A877A8369835C8369
:102680004B838C0103591F4FF8018081882309F483
:1026900015C18A859B858D5A9F4FFC01108212922D
:1026A000E255F040FB87EA87108E9CE4E92EF12C7E
:1026B000EE0EFF1EC70161E00E942C0B8AE0282E5F
:1026C000312C8A859B85280E391EB5E26B2E712C24
:1026D000680E791EE981FA81F491FD83A5E58A2EC1
:1026E000912C880E991EF6E5CF2ED12CC80ED91E3E
:1026F000E0E54E2E512C480E591E8F5A9F4F9F8356
:102700008E837EE6A72EB12C8A859B85A80EB91EE6
:10271000198708878A859B85E5DE8823D9F39D8103
:10272000992311F410E003C0EE81FF811081C701ED
:1027300060E040E021E231E03ADA8B819C81892B34
:1027400039F0145FC70160E0412F2B813C812FDA03
:10275000F40110828CE0F6018083C70169817A81DF
:102760000E944808F201208130E0C901880F991FBA
:10277000820F931F909581959F4F8D5AF40180830E
:10278000EE81FF81208130E0C901880F991F820FFF
:10279000931F909581959F4F835DF6018083F5018E
:1027A000808184FF04C0C70161EA71E003C0C701F2
:1027B0006DE971E00E949308F201208130E0C901C7
:1027C000880F991F820F931F909581959F4F8D5A67
:1027D000F4018083F60180818F5F8083EA85FB8529
:1027E00080A5882321F0C70169E971E003C0C70112
:1027F00065E971E00E949308F201808190E09C01FC
:10280000220F331F280F391F309521953F4F2D5A26
:10281000F4012083F60180818F5F8083C70161E925
:1028200071E00E949308C10165E00E94F00A8823CC
:1028300041F0EA85FB8560A56F5FC3014BD4C301FE
:1028400045D4C10164E00E94F00A882399F4E88528
:10285000F9856081262F30E040E050E0F50180816D
:102860009181A281B38182179307A407B507F0F085
:102870006F3FE1F08A859B8583599F4F9B878A87AD
:102880008FEFEA85FB858083ED56F040FB87EA8772
:10289000C30160E0FCD0C30115D481E0EA85FB856B
:1028A000808F0CC08A859B85DDDC34CFC10166E05A
:1028B0000E94F00A882309F42DCFF4CF2B960FB68F
:1028C000F894DEBF0FBECDBFCF91DF911F910F9166
:1028D000FF90EF90DF90CF90BF90AF909F908F9040
:1028E0007F906F905F904F903F902F90089540E0C1
:1028F00050E0A7CEAF92BF92CF92DF92EF920F93AC
:10290000CF93DF936C018CE790E0C80ED91E82E371
:10291000F601808381E090E0A0E0B0E0B293A29362
:10292000929382936F0185EF9FEFC80ED91E8FEFB0
:10293000F601808383E99FEFC80ED91EC601FADB3A
:10294000C601A3D5C6016FEFA4D54AE0A42EB12CD1
:10295000AC0CBD1CC5010E94E00AC5010E94040B1D
:10296000C6014896FFD5C601845B9F4F6DE04BE0E2
:1029700020E10FE03EE0E32E09DBE601A596CE0163
:10298000B5D3C50165E00E94F00A882321F0CE018D
:1029900060E0A0D305C0CE0167EA71E040E009D055
:1029A000DF91CF910F91EF90DF90CF90BF90AF90DC
:1029B0000895CF93DF93EC01442369F41D8A1B8AA9
:1029C0001AA219A21E8A1092A9051092A8051092A7
:1029D000A6051092B400A42FB0E09E012A0F3B1F61
:1029E000FD01EE0FFF1FEC0FFD1F74876387189624
:1029F000AA0FBB1FAC0FBD1F1D921C9281E0F901F5
:102A0000818389E0848B178A118E138EDF91CF9199
:102A10000895CF93DF939C01462FA62FB0E0EC01E1
:102A2000CA0FDB1F8881882369F18981882351F5CA
:102A3000FD01EE0FFF1FE20FF31F8F8190E0880F63
:102A4000991F0580F681E02DE80FF91F859194917B
:102A50005FEF8F3F950711F4188214C09A87149680
:102A6000AA0FBB1FA20FB31F90E0880F991FED9113
:102A7000FC91E80FF91F65917491C9019ADF8F816C
:102A80008F5F8F83DF91CF91089560E0C2CFFC010B
:102A9000662369F4158A138A12A211A2168A10926B
:102AA000A9051092A8051092A6051092B400E60F91
:102AB000F11D11820895FC01158A138A12A211A238
:102AC000168A1092A9051092A8051092A6051092D8
:102AD000B400118208950F93CF93DF93EC0162301D
:102AE00009F440C0633030F4662359F0613009F0D6
:102AF0004AC00BC0633009F43BC0643009F043C0E6
:102B00003DC0C00FD11D4C8B3EC0602F70E0DB017B
:102B1000AA0FBB1FAC0FBD1F842F90E0880F991F19
:102B20001D962D913C911E97280F391FF901859113
:102B300094915E969C938E935D97FC014591549180
:102B4000A42FFE01E60FF71F478F252F3327842F71
:102B500090E02817390708F4A52F6C0F7D1FFB01A3
:102B6000A0A311C0FC01E00FF11D478B208F0BC00B
:102B7000FC01E00FF11D418F228F05C0FC01E00F29
:102B8000F11D438F248FDF91CF910F9108955F92B4
:102B90006F927F928F929F92AF92BF92CF92DF926D
:102BA000EF92FF920F931F93CF93DF936C01562EFA
:102BB000E62EFF24DC01AE0DBF1D11968C911197FE
:102BC000882309F4C5C053968C915397882309F044
:102BD000BFC08701000F111F0C0D1D1DE7012896B6
:102BE000CC0FDD1FCC0DDD1D68817981660F771F4D
:102BF000F80143855485640F751FFB0125913491BD
:102C00002115310509F067C01F968C911F978130FF
:102C100031F419821882FA01259134915CC0119621
:102C20001C9211978C91882389F0C601652DF1DEE5
:102C300088819981880F991FD8011B96ED91FC918D
:102C40001C97E80FF91F2591349145C0552009F0D4
:102C50007FC055961C92559753961C925397F80136
:102C600012A211A256961C92F701E755FA4F108254
:102C7000F701E855FA4F108226EA35E0E20EF31E1E
:102C8000D7011C928091A605882311F08091A90597
:102C90008093B4005DC0A6E036952795AA95E1F72C
:102CA0006F70422F4F71F5E036952795FA95E1F751
:102CB0002051C601052D0FDF8881998101969983E6
:102CC0008883880F991FD501ED91FC91E80FF91FBA
:102CD0002591349114C04701880C991C68E0662E38
:102CE000712C6E0C7F1CE301CC0FDD1FCC0DDD1DA4
:102CF0005601A80CB91CEBE0F0E0AE0EBF1EB90106
:102D0000769567957695679520FDC5CFF601EE0D12
:102D1000FF1D862F8F73828B338B13A28C0C9D1C0F
:102D2000D40192961C921E92919781E0858B26EA9F
:102D300035E0E20EF31ED7018C93168AF301EE0FF5
:102D4000FF1FEC0DFD1D8081918101969183808391
:102D5000DF91CF911F910F91FF90EF90DF90CF9077
:102D6000BF90AF909F908F907F906F905F900895ED
:102D700060E00DCFDF92EF92FF920F931F93CF93FE
:102D8000DF937C01062F10E0DC01A00FB11F5596E8
:102D90008C915597882309F434C153968C9153979D
:102DA000882339F5662309F02CC155961C92559756
:102DB00053961C925397F801EE0FFF1FEE0DFF1D67
:102DC00012A211A256961C92F801E755FA4F1082F2
:102DD000F801E855FA4F10820A551A4FF80110828F
:102DE0008091A605882311F08091A9058093B400F5
:102DF00008C1815053968C93539793968C919397D7
:102E0000882309F069C0E801CC0FDD1FCE0DDF1D5E
:102E100089A19AA10196880F991FED8DFE8DE80F6B
:102E2000F91F85919491282F277094962C9394974D
:102E3000AC01E3E056954795EA95E1F79A0136959E
:102E40002795892F99278695869595968C939597A2
:102E50002F73F7018281289F202D112493962C93A4
:102E60009397F801E655FA4F4170408389A19AA1E2
:102E700001969AA389A35F962C915F9730E0821701
:102E8000930750F190968C919097882329F0281BF6
:102E900031093AA329A320C06623F1F455961C9268
:102EA000559753961C9253971AA219A256961C92A4
:102EB000F801E755FA4F1082F801E855FA4F1082F1
:102EC000F801EA55FA4F10828091A605882311F087
:102ED0008091A9058093B400F701E00FF11F83A151
:102EE000815083A336893F5F368B428925A1240F09
:102EF0008285280F618D662311F4D22E0BC0832F9B
:102F0000992787FD909570E0BFD4828D869FD02C45
:102F10001124D20EF701E00FF11F2489678966237F
:102F200069F0772767FD7095832F992787FD909526
:102F3000ABD4808D869F802D1124280FF701E00FE0
:102F4000F11F638D662379F0832F992787FD909574
:102F500070E09AD4CB0162E070E096D4948D899FA2
:102F6000802D1124280F4F3331F0822F2A300CF09E
:102F700089E0482F87FD40E0F8948D2D992787FD43
:102F80009095849664E270E07FD4E82FFF27E7FDF8
:102F9000F095E553FE4FE491D801A955BA4FEC9353
:102FA000F701E00FF11F26A130E084A1992787FDEA
:102FB0009095B901689F9001699F300D789F300D01
:102FC0001124F701838190E0B901689F9001699F06
:102FD000300D789F300D1124842F992787FD90950F
:102FE000FC012E9FC0012F9F900D3E9F900D11243C
:102FF000F801E855FA4F808307551A4FF80180838E
:103000007894DF91CF911F910F91FF90EF90DF9017
:10301000089560E0AFCE6091A805662379F18091B4
:10302000A5058F5F8093A5059091A705891730F1BD
:1030300030E08091A605882309F431E03093A6059D
:103040001092A5058091AA058823A1F08091110115
:1030500023E4829FC0011124895B8093110190E0D9
:1030600070E0FED38093A90505C08091A9058093E7
:10307000B40008953323C9F780E0F9CF08951F9273
:103080000F920FB60F9211242F933F934F935F939C
:103090006F937F938F939F93AF93BF93EF93FF9320
:1030A000BADFFF91EF91BF91AF919F918F917F9187
:1030B0006F915F914F913F912F910F900FBE0F90A5
:1030C0001F90189563EC71E040E073CC65EB71E004
:1030D00040E06FCCFC01862F648170E06F5F7F4F12
:1030E000992787FD9095D0D3838308950F93FC0192
:1030F00081E0828384E086A38FEE91E096878587C6
:10310000CF0161E040E020E000E0E5DC83E061E049
:1031100070E077D0E1EBF0E08081887F8160808390
:10312000F89410928000E1E8F0E01082109285009F
:103130001092840088E191E0909389008093880048
:10314000808188608083808181608083EFE6F0E009
:1031500080818260808378940F910895882319F488
:103160008CB5806202C08CB58F7D8CBD08959CB5F6
:10317000937F982B9CBD08952CB5382F33702C7FEE
:10318000322B3CBD2DB590E095958795959587950B
:1031900081702E7F822B8DBD08958AE061E0CED0B4
:1031A0008AE061E08CD08CB580618CBD8CB5806488
:1031B0008CBD8DE061E083D08BE061E080C0982F12
:1031C0008E3008F09E509770809112018295880F82
:1031D000880F807C892B80937C0080917A008064AA
:1031E00080937A0080917A0086FDFCCF2091780050
:1031F00040917900942F80E030E0282B392BC901D1
:1032000008951F93CF93DF93182FEB0161E057D000
:10321000209709F44AC0CF3FD10509F449C0E12FF6
:10322000F0E0ED53FC4F84918330C1F0843028F4FA
:10323000813051F08230B1F50CC0863019F1873001
:1032400049F1843079F514C084B5806884BDC7BD68
:1032500032C084B5806284BDC8BD2DC0809180001D
:10326000806880938000D0938900C093880023C039
:1032700080918000806280938000D0938B00C09307
:103280008A0019C08091B00080688093B000C0931C
:10329000B30011C08091B00080628093B000C093F1
:1032A000B40009C0C038D1051CF4812F60E002C011
:1032B000812F61E043D0DF91CF911F910895CF938B
:1032C000DF93482F50E0CA0181559C4FFC01349197
:1032D00045565C4FFA018491882369F190E0880F8C
:1032E000991FFC01E358FC4FA591B491FC01E957EB
:1032F000FC4FC591D491662351F42FB7F8948C916B
:10330000932F909589238C93888189230BC06230F9
:1033100061F42FB7F8948C91932F909589238C9317
:103320008881832B88832FBF06C09FB7F8948C9128
:10333000832B8C939FBFDF91CF910895482F50E04E
:10334000CA018D539C4FFC012491CA0181559C4FA9
:10335000FC01949145565C4FFA013491332309F4F2
:1033600040C0222351F1233071F0243028F4213061
:10337000A1F0223011F514C02630B1F02730C1F091
:103380002430D9F404C0809180008F7703C08091ED
:1033900080008F7D8093800010C084B58F7702C03D
:1033A00084B58F7D84BD09C08091B0008F7703C044
:1033B0008091B0008F7D8093B000E32FF0E0EE0F9E
:1033C000FF1FE957FC4FA591B4912FB7F8946623DE
:1033D00021F48C919095892302C08C91892B8C9338
:1033E0002FBF0895682F70E0CB018D539C4FFC01D7
:1033F0002491CB0181559C4FFC01449165567C4F33
:10340000FB019491992319F420E030E03CC0222381
:1034100051F1233071F0243028F42130A1F0223012
:1034200011F514C02630B1F02730C1F02430D9F4A2
:1034300004C0809180008F7703C0809180008F7DD1
:103440008093800010C084B58F7702C084B58F7DD3
:1034500084BD09C08091B0008F7703C08091B00017
:103460008F7D8093B000892F90E0880F991F8F5631
:103470009C4FFC01A591B4918C9120E030E0842315
:1034800011F021E030E0C9010895FC0181E0808362
:10349000089585E070E0B5CE6F927F928F929F92F3
:1034A000AF92BF92CF92DF92EF92FF920F931F9352
:1034B000CF93DF93EC0189819A818C0124E0000F86
:1034C000111F2A95E1F7081B190B85E178DEBC0175
:1034D000600F711F84E0769567958A95E1F77A838E
:1034E00069838881882379F12E813F816217730770
:1034F00010F4B90106C0888599858617970708F4E6
:10350000BC0100D000D080E090E040E050E0E884D2
:10351000F98400E010E0AD80BB24CC24DD246C8075
:10352000772488249924EDB7FEB761827282838262
:1035300094820E9442096B830F900F900F900F901E
:1035400085E070E05EDEDF91CF911F910F91FF90DB
:10355000EF90DF90CF90BF90AF909F908F907F9033
:103560006F900895FC018CE39FE09383828384E055
:10357000818381E084870895CF93DF93EC018C856C
:1035800090E08F719070892B49F584E118DEAA27AD
:1035900097FDA095BA2FBC01CD0154D026EE3FE394
:1035A0004EEC50E4DBD020D09B01AC017B836A83DE
:1035B0006115710589F084E08983B901FE0120E07D
:1035C000848195816817790710F429830AC02F5FD9
:1035D00032962430A9F702C08FEF89838C858F5FE4
:1035E0008C87DF91CF91089598D088F09F5790F005
:1035F000B92F9927B751A0F0D1F0660F771F881F18
:10360000991F1AF0BA95C9F712C0B13081F09FD056
:10361000B1E008959CC0672F782F8827B85F39F0F4
:10362000B93FCCF3869577956795B395D9F73EF476
:1036300090958095709561957F4F8F4F9F4F08951E
:10364000E89409C097FB3EF490958095709561953C
:103650007F4F8F4F9F4F9923A9F0F92F96E9BB27F2
:103660009395F695879577956795B795F111F8CF6E
:10367000FAF4BB0F11F460FF1BC06F5F7F4F8F4FD9
:103680009F4F16C0882311F096E911C0772321F0CF
:103690009EE8872F762F05C0662371F096E8862F67
:1036A00070E060E02AF09A95660F771F881FDAF7BE
:1036B000880F9695879597F9089597F99F6780E801
:1036C00070E060E008959FEF80EC089500240A9474
:1036D0001616170618060906089500240A941216ED
:1036E0001306140605060895092E0394000C11F420
:1036F000882352F0BB0F40F4BF2B11F460FF04C0CD
:103700006F5F7F4F8F4F9F4F089557FD9058440F25
:10371000551F59F05F3F71F04795880F97FB991F30
:1037200061F09F3F79F087950895121613061406ED
:10373000551FF2CF4695F1DF08C01616170618067A
:10374000991FF1CF86957105610508940895E89455
:10375000BB2766277727CB0197F908950BD0C4CFF5
:10376000B5DF28F0BADF18F0952309F0A6CFABCF6C
:103770001124EECFCADFA0F3959FD1F3950F50E04F
:10378000551F629FF001729FBB27F00DB11D639F13
:10379000AA27F00DB11DAA1F649F6627B00DA11DB9
:1037A000661F829F2227B00DA11D621F739FB00D5F
:1037B000A11D621F839FA00D611D221F749F3327CF
:1037C000A00D611D231F849F600D211D822F762F68
:1037D0006A2F11249F5750408AF0E1F088234AF065
:1037E000EE0FFF1FBB1F661F771F881F91505040B1
:1037F000A9F79E3F510570F060CFAACF5F3FECF371
:10380000983EDCF3869577956795B795F795E7959C
:103810009F5FC1F7FE2B880F911D9695879597F9AD
:103820000895629FD001739FF001829FE00DF11D0A
:10383000649FE00DF11D929FF00D839FF00D749F2A
:10384000F00D659FF00D9927729FB00DE11DF91FD6
:10385000639FB00DE11DF91FBD01CF011124089533
:10386000AA1BBB1B51E107C0AA1FBB1FA617B707A6
:1038700010F0A61BB70B881F991F5A95A9F78095C2
:103880009095BC01CD01089597FB092E07260AD01B
:1038900077FD04D0E5DF06D000201AF4709561951D
:1038A0007F4F0895F6F7909581959F4F0895A1E277
:1038B0001A2EAA1BBB1BFD010DC0AA1FBB1FEE1FAA
:1038C000FF1FA217B307E407F50720F0A21BB30BF5
:1038D000E40BF50B661F771F881F991F1A9469F771
:1038E00060957095809590959B01AC01BD01CF01CD
:1038F000089597FB092E05260ED057FD04D0D7DF7B
:103900000AD0001C38F450954095309521953F4FD2
:103910004F4F5F4F0895F6F790958095709561959C
:103920007F4F8F4F9F4F0895EE0FFF1F0590F4912B
:10393000E02D09942F923F924F925F926F927F9267
:103940008F929F92AF92BF92CF92DF92EF92FF92AF
:103950000F931F93CF93DF93CDB7DEB7CA1BDB0B5B
:103960000FB6F894DEBF0FBECDBF09942A88398800
:1039700048885F846E847D848C849B84AA84B98407
:10398000C884DF80EE80FD800C811B81AA81B98113
:10399000CE0FD11D0FB6F894DEBF0FBECDBFED0127
:1039A000089513E0CAEDD3E003C0FE01BFDF229605
:0A39B000CC3DD107D1F7F894FFCF0A
:1039BA004C4F41444552002000AF05000001000071
:1039CA000001010000000090032704000000002EFF
:1039DA0004EA040000000040059505000000009C70
:1039EA00054606000000009506DC060000000018E7
:0439FA000F1E080094
:00000001FF
