:10000000E8C100000DC200000BC2000009C20000E0
:1000100007C2000005C2000003C2000001C20000C8
:10002000FFC10000FDC10000FBC100000C9485145D
:10003000F7C10000F5C10000F3C10000F1C10000EC
:1000400041C60000EDC10000EBC10000E9C10000A5
:10005000E7C10000E5C10000E3C10000E1C100000C
:10006000DFC10000DDC100000707F96171FF7161A8
:10007000F973696465207363726F6C6C6572000A52
:100080004E6F2053442063617264206F720A6E6F5A
:10009000204C4F414445522E4845580A0A153A45CE
:1000A000786974001D20466C617368696E670A2068
:1000B000206C6F616465722E2E2E0A0A444F4E2703
:1000C00054205455524E204F464621004E4F204258
:1000D0004154544552590A0A504C454153450A541B
:1000E00055524E204F4646001773617665001662E2
:1000F00061636B001574797065000A0A0A153A6F1E
:100100006B617920163A6564697400596F752065D2
:100110006E74657265640A00540A03E181867F3E4D
:10012000186D830F0F0E0183866033186DC3198F0E
:100130001803C38E6033186DE330CF1803C39E607D
:100140003630CDE360CF3006C79E7E3E30CDB36003
:10015000CF300CC6F6603330D9B660CF33CFCCF693
:100160006061B0DB1E60CF30D86CE6C061B0DB1ED2
:10017000618F19986CC6C063B19B0E330F0FB078B6
:10018000C6FF7E1F1B061E0F175344001613780070
:100190001613140015102000152010000000050093
:1001A0008930080238024978681400004500680167
:1001B00000000500680138010000050038016801F1
:1001C0000000F6E8DBCFC3B8AEA49B928A827B74B2
:1001D0006E68625C57524E4945413E3A3734312E83
:1001E0002C2927252321EA01EE010101F703010152
:1001F000FF0303053F213F0A100A1208120E1C0ECE
:100200000C1E0C141A14161F161E131E1E1B1E1E67
:100210001F1E3F213F3A2F3A173D173F213F181F1E
:1002200002040A041F0E04040E1F0A1F0A0E0E1FEA
:1002300004110E2E252E2F2A2E262929021F0208F0
:100240001F08150E04040E150E15151B151B0406AC
:1002500004040C040000000017000300031F0A1F21
:1002600016371A1904130A153A000300000E11116B
:100270000E000A040A040E040030000404040010F6
:10028000001804031F111F121F101D151711151F31
:1002900007041F17151D1F151D01011F1F151F170F
:1002A000151F000A00003200040A110A0A0A110A86
:1002B000040115020E11171E051E1F150A0E110A44
:1002C0001F110E1F15111F05010E111D1F041F11F7
:1002D0001F1108100F1F041B1F10101F061F1E04E4
:1002E0000F0E110E1F09060E112E1F051A121509E9
:1002F000011F011F101F0F180F1F0C1F1B041B03D2
:100300001C03191513001F11030418111F0002010B
:10031000022020200001020C121E1F120C0C1212CF
:100320000C121F0C1A14041E05242A1E1F021C1472
:100330001D1020201D1F0814111F101E041E1E0258
:100340001C0C120C3E0A040C123E1E040214160A67
:10035000020F120E101E0E100E1E081E120C122678
:10036000281E322A26041E21001F00211E0401021D
:10037000013F213F00000000240027002A00000068
:100380000000250028002B000000000023002600AC
:100390002900040404040404040402020202020208
:1003A0000303030303030102040810204080010239
:1003B00004081020010204081020000000070002B9
:1003C00001000003040600000000000000007D059D
:1003D000780511241FBECFEFD8E0DEBFCDBF11E0FE
:1003E000A0E0B1E0E2E7F3E302C005900D92A8338C
:1003F000B107D9F715E0A8E3B1E001C01D92A13A19
:10040000B107E1F713E0C0EDD3E004C02297FE018D
:100410000E94A919CE3CD107C9F746D40C94AD1956
:10042000EFCDCF93DF93BC018230910510F462E0F1
:1004300070E0A0919F05B091A005ED01E0E0F0E033
:1004400040E050E021C0888199818617970769F4C0
:100450008A819B81309719F09383828304C09093A3
:10046000A00580939F05FE0134C06817790738F412
:100470004115510519F08417950708F4AC01FE01E8
:100480008A819B819C01E9012097E9F6411551057C
:10049000A9F1CA01861B970B049708F4BA01E0E0A2
:1004A000F0E02AC08D919C91119784179507F9F47B
:1004B0006417750781F412968D919C91139730976C
:1004C00019F09383828304C09093A00580939F05C5
:1004D000FD0132964CC0CA01861B970BFD01E80F47
:1004E000F91F6193719302978D939C9340C0FD0116
:1004F000828193819C01D9011097A1F680919D057D
:1005000090919E05892B41F48091090190910A01F7
:1005100090939E0580939D0540910B0150910C0195
:100520004115510541F44DB75EB780910701909197
:100530000801481B590B20919D0530919E05CA0169
:10054000821B930B8617970780F0AB014E5F5F4FBE
:100550008417950750F0420F531F50939E05409308
:100560009D05F9016193719302C0E0E0F0E0CF01D5
:10057000DF91CF910895CF93DF93009709F450C096
:10058000EC0122971B821A82A0919F05B091A005D1
:10059000109709F140E050E0AC17BD0708F1BB83AC
:1005A000AA83FE0121913191E20FF31FAE17BF071D
:1005B00079F48D919C911197280F391F2E5F3F4F31
:1005C0003983288312968D919C9113979B838A83FC
:1005D0004115510571F4D093A005C0939F0520C02B
:1005E00012968D919C911397AD01009711F0DC014B
:1005F000D3CFFA01D383C28321913191E20FF31F4C
:10060000CE17DF0769F488819981280F391F2E5F83
:100610003F4FFA01318320838A819B8193838283B8
:10062000DF91CF9108950F93FC0183E191E09183D5
:1006300080836283438381E08783368325830483B9
:100640000F910895FC0183E191E0918380831282F0
:10065000138217821682158214820895FC0183E1A9
:1006600091E091838083089520E0FC0187818823B5
:1006700009F421E0822F08950F93FC0187818823DC
:1006800009F481C08F5F8783893C40F4328135351E
:1006900028F4038107FD02C0013314F0178273C0F0
:1006A0008581968183309105B1F1843091054CF4B8
:1006B00081309105E9F0823091052CF5892B79F094
:1006C00062C085309105D9F1853091057CF1863085
:1006D000910509F441C0079709F055C047C08481CE
:1006E000402F481B438384E891E0628123E025C0CA
:1006F0002481021B0383230F228384E891E0622F6D
:10070000402F2F5F3EC06481630F628384E891E0D5
:10071000402F23E029C02481020F0383230F22836B
:1007200084E891E0622F402F2F5F14C04481400F76
:10073000438384E891E0632F2DEFE6D424C08481C5
:10074000080F0383232F281B228384E891E0622F64
:10075000402F2150035016C08481632F681B628391
:1007600084E891E043812DEFC6D40DC08481081B3D
:1007700003832281281B228384E891E0622F402F8B
:1007800021500D5F3CD40F910895FC0183E191E06D
:1007900091838083CF0194C20F931F93CF93DF93F4
:1007A000FC018BE191E0DF018D939D938D0110970A
:1007B00079F0EF01CE56DE4FC017D10749F02897E8
:1007C000E881F9810190F081E02DCE010995F4CF07
:1007D000DF91CF911F910F910895EF92FF920F93A8
:1007E0001F93CF93DF937C0100E010E0E80183E0EA
:1007F000CC0FDD1F8A95E1F72296CE0DDF1DCE01CD
:1008000033DF882311F4CE0137DF0F5F1F4F023330
:10081000110561F7DF91CF911F910F91FF90EF903C
:1008200008955F926F927F928F929F92AF92BF9244
:10083000CF92DF92EF92FF920F931F93DF93CF93AC
:10084000CDB7DEB728970FB6F894DEBF0FBECDBF89
:100850005C01762E642E4901502E00E010E0680104
:10086000C80153E0880F991F5A95E1F702968A0D47
:100870009B1DFADE882329F40F5F1F4F02331105F9
:1008800071F77E010894E11CF11CC701672D462D0C
:100890009401052DC8DECC0CDD1CF6013196EE0F5F
:1008A000FF1FEE0FFF1FD501AE0FBF1F8B818C9373
:1008B000D601AA0FBB1FAA0FBB1FAA0DBB1D8C819F
:1008C00015968C931597EA0DFB1D8D8182838E8181
:1008D0009F8118969C938E931797888519968C9371
:1008E000C701BCDE28960FB6F894DEBF0FBECDBFA1
:1008F000CF91DF911F910F91FF90EF90DF90CF90FC
:10090000BF90AF909F908F907F906F905F90089571
:10091000EF92FF920F931F93CF93DF937C018BE1B4
:1009200091E0F701819391938F01309779F0E7017E
:10093000CE56DE4FC017D10749F02897E881F981DC
:100940000190F081E02DCE010995F4CFC701B8D117
:10095000DF91CF911F910F91FF90EF9008950F932A
:100960001F93CF93DF938C018BE191E0F80181938A
:1009700091938F01C0E0D0E0C8018C0F9D1F62DE13
:100980002896F1E0C039DF07B9F7DF91CF911F91C9
:100990000F910895FC0183E291E091838083089593
:1009A000FC0183E291E0918380830895FC0183E25E
:1009B00091E091838083CF0183C1FC018BE291E0C0
:1009C000918380838AE0828388E1838382E08483C9
:1009D000168285E085830895FC018BE291E0918386
:1009E00080830895FC018381833014F081508383D8
:1009F0000895FC0183818D3214F48F5F8383089501
:100A0000FC018281853014F0815082830895FC01BD
:100A100082818A3414F48F5F828308950F93CF9379
:100A2000DF93EC018D81863074F08E81882369F428
:100A30006A816F5F8FEF91E04B8122E030E00C81A3
:100A4000F0DE1D8202C08F5F8D83DF91CF910F9109
:100A50000895FC01628165504381435084E891E030
:100A600028E630E036C5FC018BE291E0918380837B
:100A7000CF0126C1CF93DF9381309105E9F46F5FF9
:100A80007F4F99F5109287011092860183E391E0E0
:100A90009093850180938401CCEBD1E0CE017ADF85
:100AA000269681E0C83FD807C9F788EF91E085DF37
:100AB0008FEF91E054DF19C0892BB9F46F5F7F4F3E
:100AC000A1F48FEF91E068DE88EF91E085DFC2EF5F
:100AD000D1E0E881F9810190F081E02DCE01099506
:100AE000269781E0C63BD807A1F7DF91CF91089503
:100AF00080E090E06FEF7FEFBDCF81E090E06FEF9F
:100B00007FEFB8CF0F931F9308E311E0C8010E9455
:100B1000C010C80161E770E00E94BD101F910F91E5
:100B2000089580919103882309F071C082E491E0D7
:100B300061E0E8D1882309F46AC081E080939103E1
:100B400008C082E491E061E0E7D1882311F01092BF
:100B5000910380919203882309F05FC082E491E0C1
:100B600063E0D0D1882309F458C081E080939203D8
:100B700008C082E491E063E0CFD1882311F01092A5
:100B8000920380919303882309F04DC082E491E0A1
:100B900060E0B8D1882309F446C081E080939303D4
:100BA00008C082E491E060E0B7D1882311F0109290
:100BB000930380919403882309F03BC082E491E081
:100BC00062E0A0D18823A9F181E08093940308C05A
:100BD00082E491E062E0A0D1882311F010929403A6
:100BE00080919503882351F582E491E064E08AD1F5
:100BF000882321F181E080939503089582E491E0B8
:100C000064E08AD18823F1F01092950308958091D1
:100C10009103882309F49DCF94CF80919203882378
:100C200009F4AFCFA6CF80919303882309F4C1CFF5
:100C3000B8CF80919403882399F2CACF809195030D
:100C40008823E1F6089588E391E00E94BB0E882393
:100C500051F167DF80919103882319F088EF91E0CB
:100C6000C1DE80919203882319F088EF91E0C1DE04
:100C700080919303882319F088EF91E0C1DE809181
:100C80009403882319F088EF91E0C1DE80919503E9
:100C9000882319F088EF91E0C1DE8FEF91E09DDDB0
:100CA00088EF91E0D6CE0895CF93DF93E0D02ADF8E
:100CB000C0E0D0E0C8DF2097E9F30E940000FACF3F
:100CC0005ACC08951F920F920FB60F9211242F93B2
:100CD0003F938F939F93AF93BF9380919A0390918B
:100CE0009B03A0919C03B0919D0330919E030196BC
:100CF000A11DB11D232F2D5F2D3720F02D570196FB
:100D0000A11DB11D20939E0380939A0390939B0392
:100D1000A0939C03B0939D038091960390919703B9
:100D2000A0919803B09199030196A11DB11D8093E4
:100D3000960390939703A0939803B0939903BF9160
:100D4000AF919F918F913F912F910F900FBE0F9078
:100D50001F9018958FB7F89420919A0330919B03B8
:100D600040919C0350919D038FBFB901CA01089522
:100D70009FB7F89420919603309197034091980380
:100D80005091990386B5A89B06C08F3F21F02F5F35
:100D90003F4F4F4F5F4F9FBF542F432F322F22277C
:100DA000280F311D411D511D82E0220F331F441FAA
:100DB000551F8A95D1F7B901CA0108959B01AC016D
:100DC0007FB7F8948091960390919703A091980330
:100DD000B091990366B5A89B05C06F3F19F00196C5
:100DE000A11DB11D7FBFBA2FA92F982F8827860F6D
:100DF000911DA11DB11D62E0880F991FAA1FBB1F85
:100E00006A95D1F7BC012DC0FFB7F8948091960385
:100E100090919703A0919803B0919903E6B5A89B90
:100E200005C0EF3F19F00196A11DB11DFFBFBA2FFC
:100E3000A92F982F88278E0F911DA11DB11DE2E0CB
:100E4000880F991FAA1FBB1FEA95D1F7861B970B26
:100E5000885E9340C8F22150304040405040685175
:100E60007C4F211531054105510571F6089578949F
:100E700084B5826084BD84B5816084BD85B582609F
:100E800085BD85B5816085BDEEE6F0E0808181603D
:100E90008083E1E8F0E0108280818260808380813D
:100EA00081608083E0E8F0E0808181608083E1EB15
:100EB000F0E0808184608083E0EBF0E080818160FD
:100EC0008083EAE7F0E080818460808380818260B3
:100ED000808380818160808380818068808310929C
:100EE000C1000895FC0188E0808389E0818387E068
:100EF000828386E0838384E0848382E0858381E14A
:100F00008683089520E0FC01E60FF11D8781813082
:100F100009F421E0822F089520E0FC01E60FF11D85
:100F200087818F3F09F421E0822F08950F931F934B
:100F3000CF93DF93EC0110E00FEF888162E00E9415
:100F4000731688810E9406172F81892B19F42F5F51
:100F50002F8307C0222349F02F3F11F41F8201C0C5
:100F60000F83888160E00E9473161F5F21961730FF
:100F700021F7DF91CF911F910F910895FC01678FA9
:100F800060A30895FC01678F40A30895FC016435B8
:100F9000A8F547FD33C040338CF5878D942F959588
:100FA00095959595772767FD70954770882399F0FB
:100FB000E4E59E02F0011124E60FF71FE156FC4F15
:100FC00081E090E002C0880F991F4A95E2F72081E6
:100FD000282B20830895E4E59E02F0011124E60FFA
:100FE000F71FE156FC4F81E090E002C0880F991F87
:100FF0004A95E2F780952081282320830895AF92B7
:10100000BF92CF92DF92EF92FF920F931F93CF93F5
:10101000DF93EC01162FF42EE22EAA24402F552741
:1010200047FD50958F2D992787FD9095481B590BAB
:1010300057FF03C0509541955F4F2E2D332727FD55
:101040003095812F992787FD9095281B390B37FF05
:1010500003C0309521953F4F2417350744F4AA2447
:10106000A3948F2DF12E182F802F0E2DE82EE11630
:1010700034F48E2DE12E182F802F0F2DF82EDE2C1C
:10108000D11A202F332727FD30958F2D992787FDE3
:101090009095281B390B37FF03C0309521953F4FA2
:1010A000B22EF0161CF0CC24CA9402C0CC24C394F7
:1010B0008D2DD7FC8F5F082F059510C0AA2021F039
:1010C000CE016F2D412F03C0CE01612F4F2D5EDF6A
:1010D0000B1907FF02C0FC0C0D0D1F5FE11674F722
:1010E000DF91CF911F910F91FF90EF90DF90CF9004
:1010F000BF90AF9008950F93042F322F262F2150C9
:10110000230F7DDF0F9108950F93362F042F015089
:10111000020F232F74DF0F9108959F92AF92BF9219
:10112000CF92DF92EF92FF920F931F93CF93DF93B3
:101130006C01B62E942EA02EC0E0D0E0E62EFF2447
:10114000E7FCF094022F112707FD10950E0D1F1DCF
:1011500005C0C601492D2A2DD7DF21966B2D6C0FB6
:10116000CE018E0D9F1D801791079CF3DF91CF91CB
:101170001F910F91FF90EF90DF90CF90BF90AF90B5
:101180009F9008952F923F925F926F927F928F92DD
:101190009F92AF92BF92CF92DF92EF92FF920F9306
:1011A0001F93DF93CF9300D000D000D0CDB7DEB730
:1011B0009E838D83C62ED42EEE24E394E21A8EEF06
:1011C000289F502C1124842E8A94962E9A94A42E13
:1011D000A394B62EB394F22E662423E0722E10E070
:1011E000C801847090709A838983F801E270F0706E
:1011F000FC83EB8398E0292E312C202231220170D0
:1012000010704CC0E7FC04C0FA94F2E05F0EE50CED
:10121000639489819A81892B61F04F2D4D0D8D81C9
:101220009E816B2DB3DE6F2D6C0D8D819E814A2DBD
:10123000ADDEEB81FC81EF2B61F04D2D4F198D81DF
:101240009E816B2DA3DE6F2D6C0D8D819E81482DAF
:101250009DDE2114310461F06C2D6F198D819E810A
:101260004A2D94DE4F2D4D0D8D819E81692D8EDE90
:101270000115110561F06C2D6F198D819E81482D2E
:1012800085DE4D2D4F198D819E81692D7FDEE70C06
:10129000F2E07F0E8A949A94A394B3946F140CF4A2
:1012A000B1CF26960FB6F894DEBF0FBECDBFCF915B
:1012B000DF911F910F91FF90EF90DF90CF90BF9043
:1012C000AF909F908F907F906F905F903F902F9006
:1012D00008954F925F926F927F928F929F92AF92FA
:1012E000BF92CF92DF92EF92FF920F931F93CF9313
:1012F000DF93EC01A62E742E9E2DFF24F394F21A98
:101300008EEF289F802C1124B42EBA9453E0C52E62
:10131000CE0CE22EDD2443E0942E10E031E0432E8B
:10132000512C40225122692E63940270107030C0FB
:10133000F7FC04C0EA9482E0880EF80CD3944114C0
:10134000510479F06D2D6A0D472D4E192E2D220F67
:10135000260DCE01D9DE6E2D6A0DCE014B2D2C2D22
:10136000D3DE0115110579F06A2D6D19472D4E193F
:101370002E2D220F260DCE01C7DE6A2D6E19CE014D
:101380004B2D2C2DC1DEF90C82E0980EBA94C80EBC
:10139000DE1474F2DF91CF911F910F91FF90EF90C7
:1013A000DF90CF90BF90AF909F908F907F906F9085
:1013B0005F904F9008957F928F929F92AF92BF92CD
:1013C000CF92DF92EF92FF920F931F936C01962EB4
:1013D000A42EF22E7E2C760E1EEFE19E102D1124EF
:1013E000812E820E672D282D86DEB02EBA0CBA947F
:1013F000C601672D4B2D282D7EDEAE0C100FC601C9
:10140000692D4A2D212F80DEF90CFA94C6016F2D2B
:101410004A2D212F79DEC601672D4A2D2E2D01E0A0
:10142000B1DEFE18C6016F2D4A2D2E2D02E0AADE78
:10143000BE18C6016F2D4B2D2E2D04E0A3DEC60174
:10144000672D4B2D2E2D08E09DDE1F910F91FF90F3
:10145000EF90DF90CF90BF90AF909F908F907F9054
:1014600008958F929F92AF92BF92CF92DF92EF92A8
:10147000FF920F931F936C01162FA42E922EF02E25
:10148000BE2C8E2C860E2EEFE29EE02C11242E2DEB
:10149000290D682D42DEAB0CFA94FE0C1150190D8B
:1014A0001B19C601612F4A2D2B2D01E0EF2C11DFF6
:1014B000C601682D4A2D2B2D02E00BDF1F910F91E5
:1014C000FF90EF90DF90CF90BF90AF909F908F9064
:1014D00008953F924F925F926F927F928F929F9268
:1014E000AF92BF92CF92DF92EF92FF920F931F9332
:1014F000CF93DF934C01362E442EF901A490319600
:1015000054906F010894C11CD11C8A2D992787FD26
:101510009095079668E070E00E945719E62EFF2428
:10152000E7FCF09400E0C0E0D0E060E8662E712CAB
:1015300025C0E12FE595E595E595FF27E7FDF095B9
:10154000EC0FFD1FEC0DFD1DE4912E2F30E0812FDF
:101550008770A30102C0559547958A95E2F7242329
:101560003523232B29F0612F630DC4014B2D0EDD94
:101570001F5F1A15F4F20F5FCE0DDF1D051524F461
:1015800010E0B02EB40CF5CFDF91CF911F910F91E9
:10159000FF90EF90DF90CF90BF90AF909F908F9093
:1015A0007F906F905F904F903F9008953F924F9241
:1015B0005F926F927F928F929F92AF92BF92CF92E3
:1015C000DF92EF92FF920F931F93CF93DF93EC0183
:1015D000862EA42E422F102F3F8C23E526170CF4C5
:1015E000A7C03FE23A150CF4A3C0C02EDD248C81C5
:1015F00090E001979C01C29EC001C39E900DD29EB7
:10160000900D1124262F332727FD3095820F931F2D
:10161000181619060CF08CC08D8190E09C01C29EBA
:10162000C001C39E900DD29E900D11242A2D332708
:1016300027FD3095820F931F181619060CF078C0FD
:101640009924442E552469C09C01215030404217F2
:10165000530711F460E00EC0429EC001439E900DFE
:10166000529E900D1124840F951FED8DFE8DE80F75
:10167000F91F64914C9DC0014D9D900D5C9D900D96
:101680001124682C680EBB24792C780C3BC0E62E04
:10169000FF2460FF17C0113031F44B2D4A0DCE01ED
:1016A000672D74DC2BC02C9DC0012D9D900D3C9DA1
:1016B000900D11244A2D480FCE01662D212F012FA8
:1016C0002CDD1CC098A18F8D9817C1F09F8F113011
:1016D00031F44B2D4A0DCE01672D58DC0EC02C9DE8
:1016E000C0012D9D900D3C9D900D11244A2D480F59
:1016F000CE01662D212F012F10DD3F8EF594E7944A
:101700006E2DB3942B2D332727FD30958D8190E0DE
:10171000281739070CF4BBCF9394492D552747FD63
:1017200050958C8190E0481759070CF48DCF3F8E6F
:10173000DF91CF911F910F91FF90EF90DF90CF90AD
:10174000BF90AF909F908F907F906F905F904F90E1
:101750003F9008950F93CF93DF93EC01262F6A30CB
:1017600049F48D819885899F802D11249A85980F41
:101770009A8725C06D3021F169854A85088516DF75
:101780009C816885969F402D11248985480F498743
:101790008F818823A9F0552747FD5095699F9001B7
:1017A000112484E590E0821B930B8417950744F481
:1017B0009D81699F902D11248A85890F8A871986BA
:1017C00081E090E0DF91CF910F9108951F93CF9327
:1017D000DF93EC01162FF8948E8560E00E94B2161C
:1017E0008F8518161CF460E00E94B2161EBD0DB461
:1017F00007FEFDCF8EB58F8518161CF461E00E94A0
:10180000B2167894DF91CF911F910895FF920F93B4
:101810001F93CF93DF93EC01FF2400E010E06F2DC6
:101820006064CE01D3DFCE0160E8D0DF8E8561E059
:101830000E94B2168F8518161CF460E00E94B21642
:10184000F801E156FC4F90E080818EBD0DB407FE9B
:10185000FDCF8EB59F5F31969435B1F78F85181601
:101860001CF461E00E94B216F3940C5A1F4F86E0FC
:10187000F816A9F6CE0160E4A9DFDF91CF911F91A0
:101880000F91FF900895CF93DF93DC0188EF91E0F3
:10189000EFE9F3E0EF019C01199221503040E1F7AC
:1018A00019961C9219971A961C92DF91CF91089560
:1018B000EF920F93CF93DF93EC014D876C872E87C8
:1018C000E88A0F8781E088878F8F18A28F83E2EFE5
:1018D000F1E084918F5F8C83319684918F5F8D834B
:1018E0003196FE8FED8F0E94131581E00E94F41453
:1018F00085E00E9402158CE00E94FD148D8561E058
:101900000E9473168C8561E00E9473168E8561E0DB
:101910000E947316888918161CF461E00E947316E1
:101920008F8518161CF461E00E94731688891816BA
:1019300064F460E00E94B2166AE070E080E090E03B
:101940003DDA888961E00E94B216EC852E2F33279C
:1019500027FD3095F901EE56FC4FE491F0E0EE0FD3
:10196000FF1FE258FC4F859194919C8B8B8B2A55DD
:101970003C4FF90184918A8FED852E2F332727FD67
:101980003095F901EE56FC4FE491F0E0EE0FFF1FA9
:10199000E258FC4F859194919A8B898B2A553C4F44
:1019A000F9018491898FEF852E2F332727FD3095FC
:1019B000F901EE56FC4FE491F0E0EE0FFF1FE25804
:1019C000FC4F859194919E8B8D8B2A553C4FF9014C
:1019D00084918B8FEE852E2F332727FD3095F901CB
:1019E000EE56FC4FE491F0E0EE0FFF1FE258FC4F83
:1019F00085919491988F8F8B2A553C4FF901849152
:101A00008C8FCE0161E2E2DECE0164E1DFDE8B8508
:101A100087FF02C08FE78B876B856068CE01D6DEBB
:101A2000CE0160E2D3DECE016CE0D0DECE01EEDE90
:101A3000DF91CF910F91EF900895CF93DF93DC0169
:101A4000E0E8FFE685919491ED01C95ADF4FAD01C1
:101A500043595F4F8150904C09F04EC0E6E9FFE6D4
:101A6000E491E883E7E9FFE6E4911496EC93149798
:101A7000E8E9FFE6E4911596EC931597E9E9FFE6AE
:101A80008591949117969C938E931697EBE9FFE6B8
:101A90008591949119969C938E931897EDE9FFE6A2
:101AA000E4919996EC939997EEE9FFE6E491989684
:101AB000EC939897EFE9FFE6E491EA01E883E0EA26
:101AC000FFE6859194915D969C938E935C97E2EAF4
:101AD000FFE6859194915F969C938E935E97E4EADE
:101AE000FFE68591949191969C938E939097E6EA68
:101AF000FFE68591949132C08CE3888314961C9202
:101B000014972FEF15962C93159780E293E0179674
:101B10009C938E93169784ED93E019969C938E93E5
:101B2000189781E099968C93999798968C939897AB
:101B3000FA0120838CEA9DE05D969C938E935C97DE
:101B40008EED9DE05F969C938E935E9784E79EE07A
:101B500091969C938E9390978CE39FE093969C93A1
:101B60008E939297DF91CF910895EF92FF920F930A
:101B70001F93CF93DF937C018C01045B1F4FC8013F
:101B800082DEC80164EA70E08AD7C8013FDE83E0E4
:101B900039D780E091E0EEEFFFE3099582E590E030
:101BA000E80EF91EF7011082C8016FE770E0C2D796
:101BB000C8012CDEE701C854D040CE01B7D9CE0110
:101BC00064E0A0D9882331F462E370E080E090E023
:101BD000F5D8F3CFDF91CF911F910F91FF90EF9048
:101BE00008950F931F93CF93DF93EC018C01045B57
:101BF0001F4FC80161E040E0C5D9FE01EB5AFF4F1D
:101C0000C05BDF4F85E59881891B8083269618820B
:101C1000C655D040698D613041F1613028F0888D22
:101C2000653008F03BC035C0CE0185968AD3CE0121
:101C300060E00E945D17C80126DEC8016CEC70E010
:101C40002ED7C801E3DD83B7817F846083BF83B76C
:101C5000816083BF83B7816083BF889583B78E7FA0
:101C600083BF83B78E7F83BF1EC0C259DF4F888179
:101C70009981AA81BB818F709070A070B070089715
:101C8000A105B10518F4C80167E00CC0C80168E7F8
:101C900009C0882341F06B5FC80104C0882319F094
:101CA000C8016FE21FD7DF91CF911F910F91089567
:101CB000AF92BF92CF92DF92EF92FF920F931F935A
:101CC000CF93DF93EC01CD57DF4F8881C358D040CD
:101CD000882309F445C08C3010F010E002C01CE0ED
:101CE000181BCC5ADF4F81E08883C455D0406CE488
:101CF000C62ED12CCC0EDD1EC60160E03FD951E5C9
:101D0000A52EB12CAC0EBD1EF50100814DE2F42EC6
:101D10004F2D401B410F0D5FC60160E024E533E00D
:101D2000E32E9FDBC60161E029D9F5010081F01A9D
:101D3000F10E0D5FC60160E04F2D24E53CDBCB5A70
:101D4000DF4F84E08993F5018081181B115D1883B2
:101D5000AB9669917991C601A2D68881815088831A
:101D6000DF91CF911F910F91FF90EF90DF90CF9077
:101D7000BF90AF900895AF92BF92CF92DF92EF9253
:101D8000FF920F931F93CF93DF93EC01EDE7AE2EFD
:101D9000B12CA80EB91EF501E080F18002811381FB
:101DA0000E94AA06E61AF70A080B190B7CE7C72E51
:101DB000D12CCC0EDD1EF601808190E0A0E0B0E0D9
:101DC0008E159F05A007B10708F079C08E0108584D
:101DD0001F4FF80180819181A281B3810097A105F5
:101DE000B10509F46CC00E94AA06F6012081620FB9
:101DF000711D811D911DF501608371838283938321
:101E0000FE01E259FF4F80819181A281B381019649
:101E1000A11DB11D80839183A283B383F801108239
:101E20001182128213820E94B806CC58DF4F688359
:101E300079838A839B83C457D040CE010E94601768
:101E4000CE010A9673D8CE0148960E94CF178E0114
:101E50000B5D1F4FC8015FD2C801D0D3C8011FD589
:101E600081E022C0CE0124DFCE01BBDE8E01045B07
:101E70001F4FC801CBDCCE5ADF4F8881C255D040FE
:101E8000882311F4C801FFDC0E94B806C858DF4F50
:101E9000688379838A839B83249728813981621B95
:101EA000730B7A936A9380E0DF91CF911F910F912A
:101EB000FF90EF90DF90CF90BF90AF900895C858FB
:101EC000DF4F88819981AA81BB81C857D040009794
:101ED000A105B10541F7C6CF2F923F924F925F9275
:101EE0006F927F928F929F92AF92BF92CF92DF922A
:101EF000EF92FF920F931F93DF93CF93CDB7DEB78F
:101F00002B970FB6F894DEBF0FBECDBF9B878A8795
:101F10007A8369835C834B838C0103591F4FF801DB
:101F20008081882309F410C18A859B858D5A9F4F33
:101F3000FC0110821292E255F040FB87EA87108E76
:101F40009CE4E92EF12CEE0EFF1EC70161E016D8CD
:101F50008AE0282E312C8A859B85280E391EB5E211
:101F60006B2E712C680E791EE981FA81F491FD8344
:101F7000A5E58A2E912C880E991EF6E5CF2ED12C40
:101F8000C80ED91EE0E54E2E512C480E591E8F5A10
:101F90009F4F9F838E837EE6A72EB12C8A859B85DB
:101FA000A80EB91E198708878A859B85E4DE8823D9
:101FB000D9F39D81992311F410E003C0EE81FF81D4
:101FC0001081C70160E040E028E131E082DA8B81D6
:101FD0009C81892B39F0145FC70160E0412F2B8170
:101FE0003C8177DAF40110828CE0F6018083C7012E
:101FF00069817A8154D5F201208130E0C901880FCE
:10200000991F820F931F909581959F4F8D5AF401D0
:102010008083EE81FF81208130E0C901880F991F04
:10202000820F931F909581959F4F835DF60180836A
:10203000F501808184FF04C0C70168E971E003C035
:10204000C70164E971E076D5F201208130E0C90171
:10205000880F991F820F931F909581959F4F8D5ADE
:10206000F4018083F60180818F5F8083EA85FB85A0
:1020700080A5882321F0C70160E971E003C0C70192
:102080006CE871E057D5F201808190E09C01220F4D
:10209000331F280F391F309521953F4F2D5AF401DA
:1020A0002083F60180818F5F8083C70168E871E03B
:1020B00041D5C10165E00E948207882341F0EA858D
:1020C000FB8560A56F5FC3014BD4C30145D4C1013B
:1020D00064E00E948207882399F4E885F98560818D
:1020E000262F30E040E050E0F50180819181A2810F
:1020F000B38182179307A407B507F0F06F3FE1F0B3
:102100008A859B8583599F4F9B878A878FEFEA85B6
:10211000FB858083ED56F040FB87EA87C30160E0D2
:10212000FCD0C30115D481E0EA85FB85808F0CC00B
:102130008A859B851ADD38CFC10166E00E9482073F
:10214000882309F431CFF4CF2B960FB6F894DEBF75
:102150000FBECDBFCF91DF911F910F91FF90EF90F8
:10216000DF90CF90BF90AF909F908F907F906F90B7
:102170005F904F903F902F90089540E050E0ACCE9C
:10218000AF92BF92CF92DF92EF920F93CF93DF93F4
:102190006C018CE790E0C80ED91E82E3F6018083C3
:1021A00081E090E0A0E0B0E0B293A293929382939A
:1021B0006F0185EF9FEFC80ED91E8FEFF601808368
:1021C00083E99FEFC80ED91EC60137DCC60171D660
:1021D000C6016FEF72D64AE0A42EB12CAC0CBD1C28
:1021E000C5010E947207C5010E949607C601489664
:1021F000CCD6C601845B9F4F6DE04BE020E10FE041
:102200003EE0E32E55DBE601A596CE01B5D3C50130
:1022100065E00E948207882321F0CE0160E0A0D310
:1022200005C0CE016EE971E040E009D0DF91CF91A9
:102230000F91EF90DF90CF90BF90AF900895CF9324
:10224000DF93EC01442369F41D8A1B8A1AA219A2A8
:102250001E8A10929B0510929A0510929805109272
:10226000B400A42FB0E09E012A0F3B1FFD01EE0F2A
:10227000FF1FEC0FFD1F748763871896AA0FBB1F03
:10228000AC0FBD1F1D921C9281E0F901818389E092
:10229000848B178A118E138EDF91CF910895CF937F
:1022A000DF939C01462FA62FB0E0EC01CA0FDB1F85
:1022B0008881882369F18981882351F5FD01EE0F1A
:1022C000FF1FE20FF31F8F8190E0880F991F058099
:1022D000F681E02DE80FF91F859194915FEF8F3F14
:1022E000950711F4188214C09A871496AA0FBB1F81
:1022F000A20FB31F90E0880F991FED91FC91E80F9A
:10230000F91F65917491C9019ADF8F818F5F8F8367
:10231000DF91CF91089560E0C2CFFC01662369F49C
:10232000158A138A12A211A2168A10929B05109286
:102330009A05109298051092B400E60FF11D1182D3
:102340000895FC01158A138A12A211A2168A10920E
:102350009B0510929A05109298051092B400118274
:1023600008950F93CF93DF93EC01623009F440C0DE
:10237000633030F4662359F0613009F04AC00BC075
:10238000633009F43BC0643009F043C03DC0C00F66
:10239000D11D4C8B3EC0602F70E0DB01AA0FBB1F2C
:1023A000AC0FBD1F842F90E0880F991F1D962D91B3
:1023B0003C911E97280F391FF901859194915E96E3
:1023C0009C938E935D97FC0145915491A42FFE013F
:1023D000E60FF71F478F252F3327842F90E028170C
:1023E000390708F4A52F6C0F7D1FFB01A0A311C0B6
:1023F000FC01E00FF11D478B208F0BC0FC01E00FAB
:10240000F11D418F228F05C0FC01E00FF11D438FAC
:10241000248FDF91CF910F9108955F926F927F92F9
:102420008F929F92AF92BF92CF92DF92EF92FF92E4
:102430000F931F93CF93DF936C01562EE62EFF244C
:10244000DC01AE0DBF1D11968C911197882309F404
:10245000C5C053968C915397882309F0BFC087015C
:10246000000F111F0C0D1D1DE7012896CC0FDD1F5D
:10247000CC0DDD1D68817981660F771FF8014385DA
:102480005485640F751FFB01259134912115310589
:1024900009F067C01F968C911F97813031F4198223
:1024A0001882FA01259134915CC011961C92119703
:1024B0008C91882389F0C601652DF1DE8881998190
:1024C000880F991FD8011B96ED91FC911C97E80F7E
:1024D000F91F2591349145C0552009F07FC05596CC
:1024E0001C92559753961C925397F80112A211A271
:1024F00056961C92F701E556FA4F1082F701E65600
:10250000FA4F108228E935E0E20EF31ED7011C9243
:1025100080919805882311F080919B058093B400E9
:102520005DC0A6E036952795AA95E1F76F70422F1A
:102530004F71F5E036952795FA95E1F72051C601E0
:10254000052D0FDF88819981019699838883880FF3
:10255000991FD501ED91FC91E80FF91F2591349158
:1025600014C04701880C991C68E0662E712C6E0C13
:102570007F1CE301CC0FDD1FCC0DDD1D5601A80C27
:10258000B91CEBE0F0E0AE0EBF1EB9017695679581
:102590007695679520FDC5CFF601EE0DFF1D862FC0
:1025A0008F73828B338B13A28C0C9D1CD40192965B
:1025B0001C921E92919781E0858B28E935E0E20E0E
:1025C000F31ED7018C93168AF301EE0FFF1FEC0D5B
:1025D000FD1D80819181019691838083DF91CF9150
:1025E0001F910F91FF90EF90DF90CF90BF90AF9031
:1025F0009F908F907F906F905F90089560E00DCFD7
:10260000DF92EF92FF920F931F93CF93DF937C01A2
:10261000062F10E0DC01A00FB11F55968C91559745
:10262000882309F434C153968C915397882339F544
:10263000662309F02CC155961C92559753961C920F
:102640005397F801EE0FFF1FEE0DFF1D12A211A20E
:1026500056961C92F801E556FA4F1082F801E6569C
:10266000FA4F108208561A4FF8011082809198058F
:10267000882311F080919B058093B40008C181509C
:1026800053968C93539793968C919397882309F044
:1026900069C0E801CC0FDD1FCE0DDF1D89A19AA115
:1026A0000196880F991FED8DFE8DE80FF91F85911A
:1026B0009491282F277094962C939497AC01E3E083
:1026C00056954795EA95E1F79A0136952795892F12
:1026D00099278695869595968C9395972F73F701F4
:1026E0008281289F202D112493962C939397F80193
:1026F000E456FA4F4170408389A19AA101969AA3AA
:1027000089A35F962C915F9730E08217930750F171
:1027100090968C919097882329F0281B31093AA331
:1027200029A320C06623F1F455961C925597539621
:102730001C9253971AA219A256961C92F801E556BC
:10274000FA4F1082F801E656FA4F1082F801E85667
:10275000FA4F108280919805882311F080919B0593
:102760008093B400F701E00FF11F83A1815083A390
:1027700036893F5F368B428925A1240F8285280F39
:10278000618D662311F4D22E0BC0832F992787FD0C
:10279000909570E08CD5828D869FD02C1124D20E1E
:1027A000F701E00FF11F24896789662369F0772715
:1027B00067FD7095832F992787FD909578D5808D3B
:1027C000869F802D1124280FF701E00FF11F638DE4
:1027D000662379F0832F992787FD909570E067D560
:1027E000CB0162E070E063D5948D899F802D112428
:1027F000280F4F3331F0822F2A300CF089E0482F18
:1028000087FD40E0F8948D2D992787FD909584965B
:1028100064E270E04CD5E82FFF27E7FDF095EE531A
:10282000FE4FE491D801A756BA4FEC93F701E00FA1
:10283000F11F26A130E084A1992787FD9095B90169
:10284000689F9001699F300D789F300D1124F7012A
:10285000838190E0B901689F9001699F300D789F56
:10286000300D1124842F992787FD9095FC012E9F10
:10287000C0012F9F900D3E9F900D1124F801E65648
:10288000FA4F808305561A4FF80180837894DF91C0
:10289000CF911F910F91FF90EF90DF90089560E02E
:1028A000AFCE60919A05662379F1809197058F5F8D
:1028B0008093970590919905891730F130E08091C8
:1028C0009805882309F431E0309398051092970514
:1028D00080919C058823A1F080910D0123E4829FC3
:1028E000C0011124895B80930D0190E070E0CBD48E
:1028F00080939B0505C080919B058093B40008954B
:102900003323C9F780E0F9CF08951F920F920FB6D5
:102910000F9211242F933F934F935F936F937F9365
:102920008F939F93AF93BF93EF93FF93BADFFF9182
:10293000EF91BF91AF919F918F917F916F915F9137
:102940004F913F912F910F900FBE0F901F901895B0
:102950006AEB71E040E073CC6CEA71E040E06FCC70
:10296000FC01862F648170E06F5F7F4F992787FDA0
:1029700090959DD4838308950F93FC0181E0828319
:1029800084E086A386EE91E096878587CF0161E09B
:1029900040E020E000E0E5DC83E061E070E045D16C
:1029A000E1EBF0E08081887F81608083F894109271
:1029B0008000E1E8F0E0108210928500109284001F
:1029C00088E191E0909389008093880080818860FD
:1029D0008083808181608083EFE6F0E08081826087
:1029E000808378940F910895882319F48CB58062C0
:1029F00002C08CB58F7D8CBD08959CB5937F982BBC
:102A00009CBD08952CB5382F33702C7F322B3CBDE4
:102A10002DB590E0959587959595879581702E7F3A
:102A2000822B8DBD08958AE061E09CD18AE061E04F
:102A30005AD18CB580618CBD8CB580648CBD8DE025
:102A400061E051D18BE061E04EC1CF92DF92EF9215
:102A5000FF920F931F93CF93DF937C016B018A0149
:102A6000C0E0D0E00FC0D6016D916D01D701ED91AE
:102A7000FC910190F081E02DC7010995C80FD91F85
:102A8000015010400115110571F7CE01DF91CF9172
:102A90001F910F91FF90EF90DF90CF900895EF92EC
:102AA000FF920F931F93CF93DF937C018B01C0E0C4
:102AB000D0E0F8010F5F1F4F6491662359F0D701F2
:102AC000ED91FC910190F081E02DC7010995C80FAF
:102AD000D91FEFCFCE01DF91CF911F910F91FF90C2
:102AE000EF900895DC01ED91FC910190F081E02DD3
:102AF00009950895EF92FF920F931F938C01DC01CB
:102B0000ED91FC910190F081E02D6DE009957C0143
:102B1000D801ED91FC910190F081E02DC8016AE0AF
:102B200009959C012E0D3F1DC9011F910F91FF902A
:102B3000EF900895EF92FF920F931F937C01AFDF08
:102B40008C01C701D7DF9C01200F311FC9011F91E4
:102B50000F91FF90EF9008952F923F924F925F92C6
:102B60006F927F928F929F92AF92BF92CF92DF929D
:102B7000EF92FF920F931F93DF93CF93CDB7DEB702
:102B80003B014C0119012A016D897E898F89988D3D
:102B90006A197B098C099D09621A730A840A950ACD
:102BA000A401930151D3E218F30804091509A801FF
:102BB0009701B2D32A0D3B1D4C1D5D1DB901CA0101
:102BC000CF91DF911F910F91FF90EF90DF90CF9009
:102BD000BF90AF909F908F907F906F905F904F903D
:102BE0003F902F900895982F8E3008F09E50977048
:102BF00080910E018295880F880F807C892B8093AD
:102C00007C0080917A00806480937A0080917A00C1
:102C100086FDFCCF2091780040917900942F80E0D0
:102C200030E0282B392BC90108951F93CF93DF93F0
:102C3000182FEB0161E057D0209709F44AC0CF3F2D
:102C4000D10509F449C0E12FF0E0E654FC4F84912E
:102C50008330C1F0843028F4813051F08230B1F5F6
:102C60000CC0863019F1873049F1843079F514C0F1
:102C700084B5806884BDC7BD32C084B5806284BD20
:102C8000C8BD2DC080918000806880938000D09363
:102C90008900C093880023C0809180008062809367
:102CA0008000D0938B00C0938A0019C08091B0003F
:102CB00080688093B000C093B30011C08091B000D1
:102CC00080628093B000C093B40009C0C038D105C1
:102CD0001CF4812F60E002C0812F61E043D0DF91BE
:102CE000CF911F910895CF93DF93482F50E0CA01F1
:102CF0008A559C4FFC0134914E565C4FFA018491E9
:102D0000882369F190E0880F991FFC01EC58FC4F73
:102D1000A591B491FC01E258FC4FC591D491662372
:102D200051F42FB7F8948C91932F909589238C931D
:102D3000888189230BC0623061F42FB7F8948C919D
:102D4000932F909589238C938881832B88832FBF21
:102D500006C09FB7F8948C91832B8C939FBFDF9113
:102D6000CF910895482F50E0CA0186549C4FFC0132
:102D70002491CA018A559C4FFC0194914E565C4F98
:102D8000FA013491332309F440C0222351F1233056
:102D900071F0243028F42130A1F0223011F514C054
:102DA0002630B1F02730C1F02430D9F404C080912E
:102DB00080008F7703C0809180008F7D809380009A
:102DC00010C084B58F7702C084B58F7D84BD09C0E3
:102DD0008091B0008F7703C08091B0008F7D809389
:102DE000B000E32FF0E0EE0FFF1FE258FC4FA5917B
:102DF000B4912FB7F894662321F48C919095892390
:102E000002C08C91892B8C932FBF0895682F70E09E
:102E1000CB0186549C4FFC012491CB018A559C4FD9
:102E2000FC0144916E567C4FFB019491992319F457
:102E300020E030E03CC0222351F1233071F02430F7
:102E400028F42130A1F0223011F514C02630B1F061
:102E50002730C1F02430D9F404C0809180008F77EE
:102E600003C0809180008F7D8093800010C084B566
:102E70008F7702C084B58F7D84BD09C08091B0007A
:102E80008F7703C08091B0008F7D8093B000892F31
:102E900090E0880F991F88579C4FFC01A591B49131
:102EA0008C9120E030E0842311F021E030E0C90172
:102EB0000895FC0181E08083089585E070E0B5CE3F
:102EC0006F927F928F929F92AF92BF92CF92DF923A
:102ED000EF92FF920F931F93CF93DF93EC018981C1
:102EE0009A818C0124E0000F111F2A95E1F7081B3D
:102EF000190B85E178DEBC01600F711F84E07695C7
:102F000067958A95E1F77A8369838881882371F1CF
:102F10002E813F816217730710F4B90106C08885BE
:102F200099858617970708F4BC0100D000D080E08F
:102F300090E040E050E0E884F98400E010E0AD80EB
:102F4000BB24CC24DD246C80772488249924EDB71D
:102F5000FEB76182728283829482FEDD6B830F9062
:102F60000F900F900F9085E070E05FDEDF91CF91C2
:102F70001F910F91FF90EF90DF90CF90BF90AF9097
:102F80009F908F907F906F900895FC018CE39FE05D
:102F90009383828384E0818381E084870895CF9343
:102FA000DF93EC018C8590E08F719070892B49F54F
:102FB00084E119DEAA2797FDA095BA2FBC01CD01A7
:102FC00054D026EE3FE34EEC50E4DBD020D09B0102
:102FD000AC017B836A836115710589F084E0898384
:102FE000B901FE0120E0848195816817790710F40A
:102FF00029830AC02F5F32962430A9F702C08FEFD1
:1030000089838C858F5F8C87DF91CF91089598D0CD
:1030100088F09F5790F0B92F9927B751A0F0D1F0C1
:10302000660F771F881F991F1AF0BA95C9F712C04B
:10303000B13081F09FD0B1E008959CC0672F782F08
:103040008827B85F39F0B93FCCF3869577956795B7
:10305000B395D9F73EF490958095709561957F4F23
:103060008F4F9F4F0895E89409C097FB3EF49095C9
:103070008095709561957F4F8F4F9F4F9923A9F051
:10308000F92F96E9BB279395F695879577956795E0
:10309000B795F111F8CFFAF4BB0F11F460FF1BC024
:1030A0006F5F7F4F8F4F9F4F16C0882311F096E9B7
:1030B00011C0772321F09EE8872F762F05C0662365
:1030C00071F096E8862F70E060E02AF09A95660F1E
:1030D000771F881FDAF7880F9695879597F90895D7
:1030E00097F99F6780E870E060E008959FEF80ECBB
:1030F000089500240A94161617061806090608955E
:1031000000240A9412161306140605060895092EC3
:103110000394000C11F4882352F0BB0F40F4BF2B32
:1031200011F460FF04C06F5F7F4F8F4F9F4F089572
:1031300057FD9058440F551F59F05F3F71F0479568
:10314000880F97FB991F61F09F3F79F0879508954D
:10315000121613061406551FF2CF4695F1DF08C06C
:10316000161617061806991FF1CF86957105610589
:1031700008940895E894BB2766277727CB0197F931
:1031800008950BD0C4CFB5DF28F0BADF18F095232F
:1031900009F0A6CFABCF1124EECFCADFA0F3959FE5
:1031A000D1F3950F50E0551F629FF001729FBB272E
:1031B000F00DB11D639FAA27F00DB11DAA1F649FDA
:1031C0006627B00DA11D661F829F2227B00DA11D8D
:1031D000621F739FB00DA11D621F839FA00D611D13
:1031E000221F749F3327A00D611D231F849F600D34
:1031F000211D822F762F6A2F11249F5750408AF06D
:10320000E1F088234AF0EE0FFF1FBB1F661F771FF8
:10321000881F91505040A9F79E3F510570F060CF34
:10322000AACF5F3FECF3983EDCF3869577956795E0
:10323000B795F795E7959F5FC1F7FE2B880F911D16
:103240009695879597F90895629FD001739FF00135
:10325000829FE00DF11D649FE00DF11D929FF00D26
:10326000839FF00D749FF00D659FF00D9927729F5D
:10327000B00DE11DF91F639FB00DE11DF91FBD01E8
:10328000CF0111240895AA1BBB1B51E107C0AA1F3F
:10329000BB1FA617B70710F0A61BB70B881F991FF7
:1032A0005A95A9F780959095BC01CD01089597FB9B
:1032B000092E07260AD077FD04D0E5DF06D00020CE
:1032C0001AF4709561957F4F0895F6F79095819562
:1032D0009F4F0895A1E21A2EAA1BBB1BFD010DC032
:1032E000AA1FBB1FEE1FFF1FA217B307E407F507B6
:1032F00020F0A21BB30BE40BF50B661F771F881F92
:10330000991F1A9469F760957095809590959B0127
:10331000AC01BD01CF01089597FB092E05260ED003
:1033200057FD04D0D7DF0AD0001C38F450954095E3
:10333000309521953F4F4F4F5F4F0895F6F7909589
:103340008095709561957F4F8F4F9F4F0895EE0F39
:10335000FF1F0590F491E02D099413E0C0EDD3E038
:1033600003C0FE01F6DF2296C23DD107D1F7F894E3
:02337000FFCF8D
:103372004C4F41444552002000A1050000010100CC
:103382000000002E03C50300000000CC03880400E7
:10339200000000D004D60400000000EC0433050055
:0833A200000000AA0B25150034
:00000001FF
