:10000000D6C20000FCC20000FAC20000F8C2000024
:10001000F6C20000F4C20000F2C20000F0C200000C
:10002000EEC20000ECC20000EAC200000C94951E73
:10003000E6C20000E4C20000E2C20000E0C200002C
:100040000C946110DCC20000DAC20000D8C20000CB
:10005000D6C20000D4C20000D2C20000D0C200004C
:10006000CEC20000CCC20000050300002005040041
:1000700010402005054008808020050420000880ED
:100080000805000000080C080700102412482C1076
:100090000808103200228000C522080440018000B8
:1000A00008000041BC00BE00BF00C000C900CC0079
:1000B000CF00D800DB00EC00F500160100000000C6
:1000C00007077D913D793D917D01FF0001401007BB
:1000D000070139FFABFF390101FF0008800440042C
:1000E0002004100408040404020401040707314337
:1000F000E5FDE5433110FFFFFFFFFFFFFFFFFFFFBF
:10010000FFFFFFFFFFFFFF01FF01FF01FF01FF01F5
:10011000FF01FF01FF010140180707F96171FF713D
:1001200061F9050557AF8F5727050557EFCF77279B
:10013000050557FFFF7727401C0000000000000066
:1001400000780000000000004448000000000000AB
:10015000284113E7DC00000000791224540010004D
:1001600028091227D000280044091224100010008A
:1001700000491224500000000079F3E7D00000018C
:10018000F000023C000000024000022400000000D9
:10019000F0000220F9E3CF81E03E003C8822488055
:1001A000F018000489E20F82401C00048922080133
:1001B000F01F9C2489224880001C003CF9E3CF807A
:1001C0000018000080000000003E000080000000D9
:1001D0000000003C800004000000002480000400B7
:1001E00000000020F9F3EF7DC000003C8912244597
:1001F000400020048912247D00000004891224415B
:1002000000000024891224450020003C89F3E77D8A
:10021000005000000000000000205353532062797A
:10022000206D736576696C67656E69757300205320
:100230005353206279206D736576696C67656E69CA
:100240007573000A4E6F2053442063617264206FFF
:10025000720A6E6F204C4F414445522E4845580A51
:100260000A153A45786974001D20466C6173686907
:100270006E670A20206C6F616465722E2E2E0A0A4A
:10028000444F4E2754205455524E204F464621008D
:100290004E4F20424154544552590A0A504C454150
:1002A00053450A5455524E204F4646001773617607
:1002B0006500166261636B001574797065000A0A47
:1002C0000A153A6F6B617920163A656469740059B2
:1002D0006F7520656E74657265640A00540A03E1E7
:1002E00081867F3E186D830F0F0E01838660331861
:1002F0006DC3198F1803C38E6033186DE330CF18A8
:1003000003C39E603630CDE360CF3006C79E7E3E8D
:1003100030CDB360CF300CC6F6603330D9B660CF85
:1003200033CFCCF66061B0DB1E60CF30D86CE6C056
:1003300061B0DB1E618F19986CC6C063B19B0E3330
:100340000F0FB078C6FF7E1F1B061E0F1753440009
:100350001613780016131400151020001520100035
:10036000000005008930080238024978681400004E
:100370004500680100000500680138010000050023
:10038000380168010000F6E8DBCFC3B8AEA49B9249
:100390008A827B746E68625C57524E4945413E3A90
:1003A0003734312E2C29272523211F1D1C1A1917FC
:1003B000161514131211100F0E0D0C0B0A09080755
:1003C00006C503C9030101F7030101FF0303053F4C
:1003D000213F0A100A1208120E1C0E0C1E0C141AD1
:1003E00014161F161E131E1E1B1E1E1F1E3F213F0E
:1003F0003A2F3A173D173F213F181F02040A041FE6
:100400000E04040E1F0A1F0A0E0E1F04110E2E25C5
:100410002E2F2A2E262929021F02081F08150E0436
:10042000040E150E15151B151B040604040C040000
:1004300000000017000300031F0A1F16371A1904D3
:10044000130A153A000300000E11110E000A040AE7
:10045000040E040030000404040010001804031FFC
:10046000111F121F101D151711151F07041F171537
:100470001D1F151D01011F1F151F17151F000A0045
:10048000003200040A110A0A0A110A040115020EB8
:1004900011171E051E1F150A0E110A1F110E1F151A
:1004A000111F05010E111D1F041F111F1108100F30
:1004B0001F041B1F10101F061F1E040F0E110E1FFE
:1004C00009060E112E1F051A121509011F011F1012
:1004D0001F0F180F1F0C1F1B041B031C03191513E0
:1004E000001F11030418111F000201022020200028
:1004F00001020C121E1F120C0C12120C121F0C1AED
:1005000014041E05242A1E1F021C141D1020201D69
:100510001F0814111F101E041E1E021C0C120C3E7C
:100520000A040C123E1E040214160A020F120E10C8
:100530001E0E100E1E081E120C1226281E322A260F
:10054000041E21001F00211E040102013F213F0063
:10055000000000240027002A0000000000250028D9
:10056000002B0000000000230026002900040404E2
:10057000040404040402020202020203030303034C
:100580000301020408102040800102040810200129
:10059000020408102000000007000201000003040C
:1005A00006000000000000000000550D500D112451
:1005B0001FBECFEFD8E0DEBFCDBF11E0A0E0B1E0BD
:1005C000EEE6F6E402C005900D92A236B107D9F727
:1005D00016E0A2E6B1E001C01D92A139B107E1F732
:1005E00015E0CCEAD5E004C02297FE010E94F0227B
:1005F000CA3AD107C9F70E949F0E0C942B2300CD55
:10060000CF93DF93BC018230910510F462E070E07B
:10061000A0918F06B0919006ED01E0E0F0E040E09F
:1006200050E021C0888199818617970769F48A81F3
:100630009B81309719F09383828304C09093900636
:1006400080938F06FE0134C06817790738F441158E
:10065000510519F08417950708F4AC01FE018A8151
:100660009B819C01E9012097E9F641155105A9F10B
:10067000CA01861B970B049708F4BA01E0E0F0E08A
:100680002AC08D919C91119784179507F9F46417EE
:10069000750781F412968D919C911397309719F0FC
:1006A0009383828304C09093900680938F06FD010C
:1006B00032964CC0CA01861B970BFD01E80FF91F4B
:1006C0006193719302978D939C9340C0FD01828149
:1006D00093819C01D9011097A1F680918D0690918C
:1006E0008E06892B41F48091090190910A01909323
:1006F0008E0680938D0640910B0150910C0141159F
:10070000510541F44DB75EB7809107019091080102
:10071000481B590B20918D0630918E06CA01821B11
:10072000930B8617970780F0AB014E5F5F4F8417DE
:10073000950750F0420F531F50938E0640938D063D
:10074000F9016193719302C0E0E0F0E0CF01DF9125
:10075000CF910895CF93DF93009709F450C0EC0137
:1007600022971B821A82A0918F06B0919006109753
:1007700009F140E050E0AC17BD0708F1BB83AA8344
:10078000FE0121913191E20FF31FAE17BF0779F4FB
:100790008D919C911197280F391F2E5F3F4F398300
:1007A000288312968D919C9113979B838A83411580
:1007B000510571F4D0939006C0938F0620C0129615
:1007C0008D919C911397AD01009711F0DC01D3CF6F
:1007D000FA01D383C28321913191E20FF31FCE1727
:1007E000DF0769F488819981280F391F2E5F3F4FF9
:1007F000FA01318320838A819B8193838283DF91F5
:10080000CF910895A0E0B0E0E8E0F4E00C94FC2281
:10081000EC01A880B980CA80DB80A114B104C104B6
:10082000D10441F484E2A82E89EDB82E8BE5C82EC0
:1008300087E0D82EC601B5012DE133EF41E050E04D
:100840000E94D32227EA31E440E050E00E946B226C
:100850007B018C01C601B5012DE133EF41E050E091
:100860000E94D322CA01B9012CEE34EF4FEF5FEFA3
:100870000E946B226E0D7F1D801F911F97FF04C089
:100880006150704080409048688379838A839B835D
:100890009B01AC015F77B901CA01CDB7DEB7EAE0D1
:1008A0000C941823AFCF8DE091E0ACCF60930D0195
:1008B00070930E0180930F01909310010895EF92B1
:1008C0000F93FC0163834483378326830583E2828D
:1008D0000F91EF900895FC018DE291E09183808368
:1008E000138214821782168215828FEF82830895F5
:1008F000FC018DE291E091838083089520E0FC016A
:1009000086819781892B09F421E0822F08952F9207
:100910003F924F925F926F927F928F929F92AF928F
:10092000BF92CF92DF92EF92FF920F931F93DF93CC
:10093000CF9300D000D0CDB7DEB79C838B83162F2A
:10094000F42E322E202EE982CA82FC01828181306F
:1009500009F049C088EE91E0DBD7462E552447FCCC
:100960005094672E772467FC7094882E992487FC16
:100970009094A92EBB24A7FCB094612F772767FD24
:1009800070954F2D552747FD509582E691E09201D5
:100990008301740165010E947618882301F5632D97
:1009A000772767FD7095422D552747FD509582E6C4
:1009B00091E092010E947618882389F4F9816F2FC3
:1009C000772767FD70958A81482F552747FD5095F9
:1009D00082E691E092010E9476188823C1F088EEA9
:1009E00091E09ED709C0882391F482EF93E0E980DB
:1009F000CA80D8D5882359F0EB81FC8117821682F2
:100A000084E494E061E070E04381248159D30F9045
:100A10000F900F900F90CF91DF911F910F91FF904A
:100A2000EF90DF90CF90BF90AF909F908F907F908E
:100A30006F905F904F903F902F900895CF92EF92DC
:100A40000F93CF93DF93EC016091D2017091D301AA
:100A50008091D4019091D50123E030E040E050E056
:100A60000E94B122611571058105910539F08C81D3
:100A70009D81891B8C838B81891B8B832B810C81AE
:100A800080EB91E0622F402F2E5F0E5F0E94FE11DF
:100A90008A81882361F46B814C81262F2F5F042F7C
:100AA0000D5F80EB91E06D5F4F5F0E94FE112B8127
:100AB0000C81322F3E5F502F5E5FCE01622F402FA0
:100AC0002F5F0F5FE32EC52E22DFDF91CF910F91B5
:100AD000EF90CF900895CF92EF920F93CF93DF9343
:100AE000EC016091D2017091D3018091D401909179
:100AF000D50123E030E040E050E00E94B1226115D2
:100B000071058105910539F08C819D81890F8C8358
:100B10008B81891B8B832B810C8180EB91E0622F71
:100B2000402F2E5F02500E94FE118A81882361F4BB
:100B30006B814C81262F2F5F042F035080EB91E0B7
:100B40006D5F41500E94FE112B810C81322F3E5F60
:100B5000502F5250CE01622F402F2F5F0150E32EB5
:100B6000C52ED5DEDF91CF910F91EF90CF900895F4
:100B7000CF92EF920F93CF93DF93EC016091D2016C
:100B80007091D3018091D4019091D50123E030E0A0
:100B900040E050E00E94B122611571058105910588
:100BA00039F08C819D81890F8C838B81890F8B8398
:100BB0002B810C8180EB91E0622F402F225002505C
:100BC0000E94FE118A81882361F46B814C81262F5B
:100BD0002150042F035080EB91E0635041500E945C
:100BE000FE112B810C81322F3250502F5250CE01EA
:100BF000622F402F21500150E32EC52E88DEDF9159
:100C0000CF910F91EF90CF900895CF92EF920F93E5
:100C1000CF93DF93EC016091D2017091D301809169
:100C2000D4019091D50123E030E040E050E00E94F3
:100C3000B122611571058105910539F08C819D8185
:100C4000891B8C838B81890F8B832B810C8180EB9B
:100C500091E0622F402F22500E5F0E94FE118A8188
:100C6000882361F46B814C81262F2150042F0D5F66
:100C700080EB91E063504F5F0E94FE112B810C814D
:100C8000322F3250502F5E5FCE01622F402F215005
:100C90000F5FE32EC52E3BDEDF91CF910F91EF90DA
:100CA000CF900895CF92EF920F93CF93DF93EC0103
:100CB0006B818D81681B6B8380EB91E04C8123E01D
:100CC0000E947A128A81882359F44C812B812E5FED
:100CD000042F0F5F80EB91E0622F41500E94FE11C4
:100CE0002B81CC80322F3250CE01622F4C2D2150DF
:100CF0000C2DE32E0CDEDF91CF910F91EF90CF9072
:100D00000895CF92EF920F93CF93DF93EC016D8113
:100D10008B81680F6B83625080EB91E04C8123E004
:100D20000E947A128A81882359F44C812B812250A7
:100D3000042F0F5F80EB91E0622F41500E94FE1163
:100D40002B81CC80322F3250CE01622F4C2D21507E
:100D50000C2DE32EDCDDDF91CF910F91EF90CF9042
:100D60000895CF92EF920F93CF93DF93EC014D81D3
:100D70008C81480F4C83425080EB91E06B8123E0E3
:100D80000E9483128A81882359F46B810C8102505E
:100D9000262F2F5F80EB91E06150402F0E94FE11C3
:100DA0000C81EB80302F3250CE016E2D402F2E2D36
:100DB0000150C32EACDDDF91CF910F91EF90CF901A
:100DC0000895CF92EF920F93CF93DF93EC014C8174
:100DD0008D81481B4C8380EB91E06B8123E00E9466
:100DE00083128A81882359F46B810C810E5F262F30
:100DF0002F5F80EB91E06150402F0E94FE110C812B
:100E0000EB80302F3E5FCE016E2D402F2E2D0F5FD9
:100E1000C32E7DDDDF91CF910F91EF90CF9008959C
:100E2000FC018381853528F4848187FD02C08133EC
:100E30001CF017821682089586819781843091056F
:100E4000F1F0853091054CF482309105A1F08330AA
:100E500091059CF40197E9F40CC08630910599F056
:100E60008630910574F08730910579F0089789F400
:100E70000EC0CF01A6CFCF01C8CECF0142CFCF0148
:100E800077CECF016ECFCF0126CECF010BCFCF01D2
:100E9000D5CD0895FC018DE291E091838083CF014F
:100EA0005AC70F931F93CF93DF93FC0185E391E023
:100EB000DF018D939D938D01109779F0EF01CE5F47
:100EC000DD4FC017D10749F02897E881F9810190DB
:100ED000F081E02DCE010995F4CFDF91CF911F91E4
:100EE0000F910895EF92FF920F931F93CF93DF938B
:100EF0007C0100E010E0E80183E0CC0FDD1F8A9563
:100F0000E1F72296CE0DDF1DCE01F8DC882311F427
:100F1000CE0186DF0F5F1F4F0034110561F7DF91AF
:100F2000CF911F910F91FF90EF9008958F929F9214
:100F3000AF92BF92CF92DF92EF92FF920F931F93E7
:100F4000CF93DF936C01F62E942E5901802EC0E0D2
:100F5000D0E08E01CE0123E0880F991F2A95E1F79A
:100F600002968C0D9D1DCADC882321F42196C03485
:100F7000D10579F793E0000F111F9A95E1F70E5F05
:100F80001F4FC601800F911F6F2D492D9501082D10
:100F900096DCDF91CF911F910F91FF90EF90DF9042
:100FA000CF90BF90AF909F908F900895AF92BF92D7
:100FB000CF92DF92EF920F93CF93DF935C01CC241B
:100FC000DD24E60133E0CC0FDD1F3A95E1F72296F0
:100FD000CA0DDB1DCE0192DC882341F4CE0160E016
:100FE00040E020E030E000E0EE2469DC0894C11C21
:100FF000D11C80E4C816D10421F7DF91CF910F9165
:10100000EF90DF90CF90BF90AF900895EF92FF9256
:101010000F931F93CF93DF937C0185E391E0F7015A
:10102000819391938F01309779F0E701CE5FDD4F87
:10103000C017D10749F02897E881F9810190F08124
:10104000E02DCE010995F4CFC70185D6DF91CF9170
:101050001F910F91FF90EF9008950F931F93CF93DF
:10106000DF938C0185E391E0F801819391938F01E7
:10107000C0E0D0E0C8018C0F9D1F2DDC2896F2E067
:10108000C030DF07B9F7DF91CF911F910F9108951D
:10109000FC018DE391E0918380830895FC018DE351
:1010A00091E0918380830895DC01FC0180E013824C
:1010B00012828F5F35968830D1F7DA961C920895A8
:1010C000CF93DF93EC01522FDC01E0E0F0E09F01D1
:1010D00012968D919C911397892B29F03196159634
:1010E000E830F105A1F7F901EE0FFF1FEE0FFF1F2A
:1010F000E20FF31FEC0FFD1F738362834483C9016A
:101100000196DC01AA0FBB1FAA0FBB1FA80FB91FB6
:10111000AC0FBD1F5C931682DF91CF910895DF92D3
:10112000EF92FF920F931F93CF93DF938C01EC010B
:10113000AA9654E5D52E4AE3E42EF12CE80EF91ECA
:101140008091D20181706881681B688367FD06C049
:1011500080EB91E049810E94C51116C0F80182AD73
:10116000181694F0D88260E370E080E090E062D7D7
:10117000698360E170E080E090E020E430E040E0EE
:1011800050E07AD7F80162AF2296CE15DF05C1F69E
:10119000F80182AD815082AFDF91CF911F910F9105
:1011A000FF90EF90DF9008959F92AF92BF92CF9201
:1011B000DF92EF92FF920F931F93CF93DF93A82EAE
:1011C000992E9C01E901BB248A819B818130910584
:1011D00019F00297B9F50EC0EE81E43070F4FC808E
:1011E0008EEFF80E1D811250F0E0EE0FFF1FEF5E44
:1011F000FE4F10C0EE81E43018F01B821A821FC02F
:10120000FC808DEFF80E1D811350F0E0EE0FFF1FF4
:10121000E75EFE4FC080D18064E070E080E090E047
:1012200009D7062F64E070E080E090E003D7E62E57
:1012300080EB91E06F2D412F96010E94D5148E8195
:101240008F5F8E83B394259688E0B81609F0BCCFE3
:101250008A2D992D64DFDF91CF911F910F91FF901F
:10126000EF90DF90CF90BF90AF909F900895FC01DA
:101270008DE391E091838083CF016DC5FC01628392
:10128000438337832683158214820895FC0185E405
:1012900091E0918380830895FC0185E491E091833E
:1012A0008083089520E0FC0186819781892B09F4D1
:1012B00021E0822F0895FC016281738186819781EC
:1012C000029731F097E083E0781B635087E0089540
:1012D00095E082E0F9CF0F931F93CF93DF938C01BA
:1012E000DC0116968D919C911797FC01EE0FFF1F64
:1012F000E80FF91FEE0FFF1FEA55FF4FC591D4917C
:10130000FE01249130E040E050E06091D201709104
:10131000D3018091D4019091D5010E94B12270E057
:10132000FB01EE0FFF1F3196EC0FFD1FE491D8017A
:1013300012968C9112978E0F12968C9312976F5F64
:101340007F4F660F771FC60FD71FFE01949113962C
:101350008C911397890F13968C93DF91CF911F91E6
:101360000F910895CF92DF92EF92FF920F931F9308
:10137000CF93DF93EC018E819F81FC01EE0FFF1F65
:10138000E80FF91FEE0FFF1FE855FF4FE590F490AF
:10139000F70194918C81082F112707FD1095C92E14
:1013A000DD24C80101978C0D9D1DB6010E949E226F
:1013B000FC013196EE0FFF1FEE0DFF1DE4918D81B4
:1013C000992787FD90952E2F30E0821793070CF414
:1013D00072C0000F111F0F5F1F4FE00EF11EF701CB
:1013E000149117FF0AC080EF91E06A814B8128E0D9
:1013F00030E002E0EE24E39499DD16FF0AC080EFAE
:1014000091E06A814B8127E030E002E0EE24E39432
:101410008DDD15FF0AC080EF91E06A814B8126E0E7
:1014200030E002E0EE24E39481DD14FF0AC080EF97
:1014300091E06A814B8125E030E002E0EE24E39404
:1014400075DD13FF0AC080EF91E06A814B8124E0D3
:1014500030E002E0EE24E39469DD12FF0AC080EF81
:1014600091E06A814B8123E030E002E0EE24E394D6
:101470005DDD11FF0AC080EF91E06A814B8122E0BF
:1014800030E002E0EE24E39451DD10FF0AC080EF6B
:1014900091E06A814B8121E030E002E0EE24E394A8
:1014A00045DD8C81992787FD90950196B6010E94B4
:1014B0009E228C831D82DF91CF911F910F91FF900F
:1014C000EF90DF90CF900895CF93DF93EC018E8162
:1014D0009F81892B69F08A818E3F1CF41F821E82B6
:1014E00007C08D818F5F8D83CE01F5DECE013ADF9F
:1014F000DF91CF910895FC011782168280917F04BD
:10150000909180040A969093800480937F0484E4F1
:1015100094E062E070E042812381D2CDDC01169636
:101520008D919C911797AC01440F551F480F591F7F
:10153000440F551F4C555F4FFA0125913491129677
:101540006C911297635013964C91435080EB91E04D
:101550000C946814FC0185E491E091838083CF01B1
:10156000FAC30F931F93CF93DF93FC018DE491E0B7
:10157000DF018D939D938D01109779F0EF01CE5A85
:10158000DF4FC017D10749F02897E881F981019012
:10159000F081E02DCE010995F4CFDF91CF911F911D
:1015A0000F9108952F923F924F925F926F927F9288
:1015B0008F929F92AF92BF92CF92DF92EF92FF9263
:1015C0000F931F93DF93CF93CDB7DEB72E970FB650
:1015D000F894DEBF0FBECDBF1C011E861D868E2D6A
:1015E000992787FD90959A838983EC2DFF27E7FD46
:1015F000F095FC83EB83822F992787FD90959E833E
:101600008D83E02FFF27E7FDF095F887EF83862F86
:10161000992787FD90959A878987E42FFF27E7FD13
:10162000F095FC87EB870D851E8533E0000F111FB9
:101630003A95E1F70E5F1F4F020D131DC80132DE10
:10164000882309F045C0C80136DE462E552447FCE4
:101650005094672E772467FC7094882E992487FC19
:101660009094A92EBB24A7FCB09482E691E06981F6
:101670007A814B815C8192018301740165010E9432
:1016800076188823B1F482E691E06D817E814F81E6
:10169000588592010E947618882359F482E691E0D9
:1016A00069857A854B855C8592010E94761888232E
:1016B00079F08D859E8523E0880F991F2A95E1F7A3
:1016C00002969E878D87820D931D15DF81E009C0EC
:1016D000ED85FE853196FE87ED873A9709F0A3CF19
:1016E00080E02E960FB6F894DEBF0FBECDBFCF912F
:1016F000DF911F910F91FF90EF90DF90CF90BF90FF
:10170000AF909F908F907F906F905F904F903F90A1
:101710002F900895AF92BF92CF92DF92EF92FF92F7
:101720000F931F93CF93DF937C01B62EA42E6901F4
:10173000C0E0D0E08E01CE0153E0880F991F5A958A
:10174000E1F702968E0D9F1DADDD882321F42196D1
:10175000CA30D10579F743E0000F111F4A95E1F730
:101760000E5F1F4FC701800F911F6B2D4A2D9601F1
:1017700085DDDF91CF911F910F91FF90EF90DF906A
:10178000CF90BF90AF900895EF92FF920F931F9369
:10179000CF93DF937C0100E010E0E80163E0CC0F21
:1017A000DD1F6A95E1F72296CE0DDF1DCE017ADDB1
:1017B000882331F4CE0160E040E020E030E05EDDDF
:1017C0000F5F1F4F0A30110541F7DF91CF911F9135
:1017D0000F91FF90EF900895EF92FF920F931F9358
:1017E000CF93DF937C0100E010E0E80173E0CC0FC1
:1017F000DD1F7A95E1F72296CE0DDF1DCE0152DD79
:10180000882321F4CE0160DECE0188DE0F5F1F4FFA
:101810000A30110551F7DF91CF911F910F91FF9081
:10182000EF900895EF92FF920F931F93CF93DF9362
:101830007C018DE491E0F701819391938F013097C2
:1018400079F0E701CE5ADF4FC017D10749F028974A
:10185000E881F9810190F081E02DCE010995F4CF66
:10186000C70179D2DF91CF911F910F91FF90EF9037
:1018700008950F931F93CF93DF938C018DE491E034
:10188000F801819391938F01C0E0D0E0C8018C0FE3
:101890009D1FFCDC2896C035D105C1F7DF91CF91A3
:1018A0001F910F910895FC0185E591E0918380835C
:1018B0000895FC0185E591E0918380830895FC0102
:1018C0008AE0828388E1838382E08483178285E0D3
:1018D000868386E085830895FC018381833014F03C
:1018E000815083830895FC0183818D3214F48F5FCE
:1018F00083830895FC018281853014F081508283B6
:101900000895FC0182818A3414F48F5F82830895E4
:10191000FC01628162507381715083E093E008950D
:101920000F931F938C0187E891E00E94BC1EF80181
:1019300085818150858387FF01C067D11F910F91F9
:101940000895EF920F93CF93DF93EC018E81863051
:1019500070F08F81882359F46A816F5F80EF91E086
:101960004B8123E030E00C81EE24E0DA1E82DF912F
:10197000CF910F91EF900895CF93DF93EC018E817B
:10198000883C10F48F5F8E836A8165504B81435091
:1019900080EB91E029E131E09BD72D8124301CF4CC
:1019A000E0E0F0E005C0E22FFF27E7FDF095349777
:1019B000EE0FFF1FEF5DFE4F2081318180EB91E044
:1019C0006BE04AE285D72D8122301CF4E0E0F0E0A4
:1019D0000AC024301CF0E2E0F0E005C0E22FFF274F
:1019E000E7FDF0953297EE0FFF1FEF5DFE4F208170
:1019F000318180EB91E066E04AE26AD72D8127FFD2
:101A000003C0E0E0F0E009C022301CF0E2E0F0E0CA
:101A100004C0E22FFF27E7FDF095EE0FFF1FEF5DFB
:101A2000FE4F2081318180EB91E061E04AE250D7A6
:101A3000DF91CF910895FC0185E591E0918380834A
:101A4000CF0189C181309105C9F46F5F7F4F39F5AE
:101A50001092B3011092B2018DE591E09093B10123
:101A60008093B00188EE91E01EDF80EF91E0F5DA1F
:101A700082EF93E0FEDE84E494E00ACB892B79F4D4
:101A80006F5F7F4F61F484E494E008DB82EF93E0C2
:101A900068DD80EF91E005DA88EE91E00ACF0895E5
:101AA00080E090E06FEF7FEFCDCF81E090E06FEFCF
:101AB0007FEFC8CF0F931F9300EB11E0C8016DECCF
:101AC00073E00E94881581E08093B9018093BA0188
:101AD00060917F0470918004C8014AE050E051D2C7
:101AE0001F910F91089580918104882309F071C09E
:101AF0008CE691E061E005D4882309F46AC081E0B6
:101B00008093810408C08CE691E061E004D48823CE
:101B100011F01092810480918204882309F05FC043
:101B20008CE691E063E0EDD3882309F458C081E0AE
:101B30008093820408C08CE691E063E0ECD38823B4
:101B400011F01092820480918304882309F04DC023
:101B50008CE691E060E0D5D3882309F446C081E0AB
:101B60008093830408C08CE691E060E0D4D388239E
:101B700011F01092830480918404882309F03BC003
:101B80008CE691E062E0BDD38823A9F181E08093E7
:101B9000840408C08CE691E062E0BDD3882311F094
:101BA0001092840480918504882351F58CE691E09D
:101BB00064E0A7D3882321F181E080938504089510
:101BC0008CE691E064E0A7D38823F1F010928504BD
:101BD000089580918104882309F49DCF94CF80914A
:101BE0008204882309F4AFCFA6CF80918304882391
:101BF00009F4C1CFB8CF80918404882399F2CACF69
:101C0000809185048823E1F6089510928004109253
:101C10007F0488EE91E053DE80EF91E0C7D982EF38
:101C200093E0B2DD84E494E03FCAFF920F931F93E8
:101C300082E691E00E94DA19882309F465C053DF37
:101C400080918104882319F088EE91E045DE80912F
:101C50008204882319F088EE91E045DE80918304A8
:101C6000882319F088EE91E045DE80918404882372
:101C700019F088EE91E045DE80918504882331F4E7
:101C80008CE691E064E03DD3882319F088EE91E082
:101C900058DE8CE691E065E034D38823C9F063E038
:101CA00070E080E090E02DE230E040E050E0E4D1F0
:101CB000F62E63E070E080E090E0BCD18B019C01E7
:101CC0000F5F1F4F82EF93E067E54F2D980122DDF4
:101CD0008CE691E066E015D3882349F082E691E036
:101CE00069E172E047E351E00E948A1A8EDF82EFD9
:101CF00093E072DD80EF91E0F5D884E494E054DA6B
:101D000088EE91E039DED6DE1F910F91FF900895A5
:101D10000F931F9302E611E0C8010E94E51BC80162
:101D20006EE272E047E351E00E948A1AC8010E9405
:101D3000A51910927A0169DF1F910F910895CF9331
:101D4000DF9394D2E5DFC0E0D0E06FDF2097E9F3C6
:101D50000E940000FACF0C94AA030895CF92DF925C
:101D6000EF92FF920F931F93CF93DF937C016B0150
:101D70008A01C0E0D0E00FC0D6016D916D01D7019E
:101D8000ED91FC910190F081E02DC7010995C80FFC
:101D9000D91F015010400115110571F7CE01DF91D7
:101DA000CF911F910F91FF90EF90DF90CF9008950A
:101DB000EF92FF920F931F93CF93DF937C018B01E0
:101DC000C0E0D0E0F8010F5F1F4F6491662359F027
:101DD000D701ED91FC910190F081E02DC7010995AB
:101DE000C80FD91FEFCFCE01DF91CF911F910F9177
:101DF000FF90EF900895DC01ED91FC910190F0814E
:101E0000E02D09950895EF92FF920F931F938C0197
:101E1000DC01ED91FC910190F081E02D6DE00995E0
:101E20007C01D801ED91FC910190F081E02DC80179
:101E30006AE009959C012E0D3F1DC9011F910F916C
:101E4000FF90EF900895EF92FF920F931F937C0104
:101E5000AFDF8C01C701D7DF9C01200F311FC90103
:101E60001F910F91FF90EF900895CF93DF93EC01B6
:101E70006115710519F420E030E00FC0DB010D9011
:101E80000020E9F71197A61BB70BE881F9810280C2
:101E9000F381E02DAD0109959C01C901DF91CF913E
:101EA00008954F925F927F928F929F92AF92BF92CE
:101EB000CF92DF92EF92FF920F931F93DF93CF9316
:101EC000CDB7DEB7A1970FB6F894DEBF0FBECDBF7A
:101ED0002C01742ECB01223008F42AE019A231E241
:101EE000C32ED12CCC0EDD1E822E9924AA24BB2415
:101EF000672D752FA50194010E94B12279018A01F5
:101F0000C801B701A50194010E946B22472D461B11
:101F10000894C108D1084A3014F4405D01C0495CFE
:101F2000F6014083E114F1040105110521F07E2C36
:101F30005F2DC801DDCFC201B60197DFA1960FB6B4
:101F4000F894DEBF0FBECDBFCF91DF911F910F91EF
:101F5000FF90EF90DF90CF90BF90AF909F908F90C9
:101F60007F905F904F900895DC012115310541F479
:101F7000ED91FC910190F081E02D642F0995089579
:101F800090CFEF92FF920F931F939A017B0100E095
:101F900010E0B801A701E8DF1F910F91FF90EF90CB
:101FA00008952F923F924F925F926F927F928F92FD
:101FB0009F92AF92BF92CF92DF92EF92FF920F93D8
:101FC0001F93DF93CF93CDB7DEB73B014C011901CF
:101FD0002A016D897E898F89988D6A197B098C0900
:101FE0009D09621A730A840A950AA40193010E944A
:101FF0006B22E218F30804091509A80197010E9451
:10200000D3222A0D3B1D4C1D5D1DB901CA01CF9184
:10201000DF911F910F91FF90EF90DF90CF90BF90D5
:10202000AF909F908F907F906F905F904F903F9078
:102030002F900895EF92FF920F931F937B018C01D5
:10204000611571058105910529F420E030E040E03B
:1020500050E00BC00E945304A80197010E94D322B4
:10206000AC01CB01DA019C01AD01B901CA011F919C
:102070000F91FF90EF900895EF92FF920F931F93AF
:102080007B018C0162177307840795075CF4261B9C
:10209000370B480B590BCA01B901CCDFE60EF71E0E
:1020A000081F191FB701C8011F910F91FF90EF90F2
:1020B0000895009729F0BC0180E090E00C9456044C
:1020C00008951F920F920FB60F9211242F933F93F2
:1020D0008F939F93AF93BF9380918A0490918B04C9
:1020E000A0918C04B0918D0430918E040196A11DB5
:1020F000B11D232F2D5F2D3720F02D570196A11DE7
:10210000B11D20938E0480938A0490938B04A09336
:102110008C04B0938D048091860490918704A091E3
:102120008804B09189040196A11DB11D8093860495
:1021300090938704A0938804B0938904BF91AF91D2
:102140009F918F913F912F910F900FBE0F901F90F5
:1021500018958FB7F89420918A0430918B044091A0
:102160008C0450918D048FBFB901CA0108959FB7A7
:10217000F89420918604309187044091880450910E
:10218000890486B5A89B06C08F3F21F02F5F3F4F83
:102190004F4F5F4F9FBF542F432F322F2227280FBF
:1021A000311D411D511D82E0220F331F441F551F59
:1021B0008A95D1F7B901CA0108959B01AC017FB797
:1021C000F8948091860490918704A0918804B0913E
:1021D000890466B5A89B05C06F3F19F00196A11D43
:1021E000B11D7FBFBA2FA92F982F8827860F911D69
:1021F000A11DB11D62E0880F991FAA1FBB1F6A9520
:10220000D1F7BC012DC0FFB7F8948091860490915E
:102210008704A0918804B0918904E6B5A89B05C005
:10222000EF3F19F00196A11DB11DFFBFBA2FA92FD5
:10223000982F88278E0F911DA11DB11DE2E0880FF8
:10224000991FAA1FBB1FEA95D1F7861B970B885EC3
:102250009340C8F2215030404040504068517C4F7C
:10226000211531054105510571F60895789484B51D
:10227000826084BD84B5816084BD85B5826085BD82
:1022800085B5816085BDEEE6F0E080818160808368
:10229000E1E8F0E01082808182608083808181604B
:1022A0008083E0E8F0E0808181608083E1EBF0E012
:1022B000808184608083E0EBF0E0808181608083B6
:1022C000EAE7F0E08081846080838081826080839F
:1022D0008081816080838081806880831092C100CA
:1022E0000895FC0188E0808389E0818387E0828310
:1022F00086E0838384E0848382E0858381E1868332
:10230000089520E0FC01E60FF11D8781813009F47A
:1023100021E0822F089520E0FC01E60FF11D878166
:102320008F3F09F421E0822F08950F931F93CF93DD
:10233000DF93EC0110E00FEF888162E00E94B91F8B
:1023400088810E944C202F81892B19F42F5F2F83C5
:1023500007C0222349F02F3F11F41F8201C00F83D1
:10236000888160E00E94B91F1F5F2196173021F716
:10237000DF91CF911F910F910895FC01678F60A3AA
:102380000895FC01678F40A30895FC016435A8F50A
:1023900047FD33C040338CF5878D942F95959595E7
:1023A0009595772767FD70954770882399F0E4E548
:1023B0009E02F0011124E60FF71FE157FB4F81E069
:1023C00090E002C0880F991F4A95E2F72081282BE0
:1023D00020830895E4E59E02F0011124E60FF71F23
:1023E000E157FB4F81E090E002C0880F991F4A95AA
:1023F000E2F780952081282320830895AF92BF9231
:10240000CF92DF92EF92FF920F931F93CF93DF93C0
:10241000EC01162FF42EE22EAA24402F552747FD5B
:1024200050958F2D992787FD9095481B590B57FF85
:1024300003C0509541955F4F2E2D332727FD3095D2
:10244000812F992787FD9095281B390B37FF03C0F3
:10245000309521953F4F2417350744F4AA24A394BF
:102460008F2DF12E182F802F0E2DE82EE11634F42B
:102470008E2DE12E182F802F0F2DF82EDE2CD11A45
:10248000202F332727FD30958F2D992787FD909595
:10249000281B390B37FF03C0309521953F4FB22ED3
:1024A000F0161CF0CC24CA9402C0CC24C3948D2D09
:1024B000D7FC8F5F082F059510C0AA2021F0CE0110
:1024C0006F2D412F03C0CE01612F4F2D5EDF0B1901
:1024D00007FF02C0FC0C0D0D1F5FE11674F7DF91C2
:1024E000CF911F910F91FF90EF90DF90CF90BF9011
:1024F000AF9008950F93042F322F262F2150230FD2
:102500007DDF0F9108950F93362F042F0150020F96
:10251000232F74DF0F9108959F92AF92BF92CF92B5
:10252000DF92EF92FF920F931F93CF93DF936C0193
:10253000B62E942EA02EC0E0D0E0E62EFF24E7FCBD
:10254000F094022F112707FD10950E0D1F1D05C0D9
:10255000C601492D2A2DD7DF21966B2D6C0FCE0198
:102560008E0D9F1D801791079CF3DF91CF911F91D6
:102570000F91FF90EF90DF90CF90BF90AF909F9022
:1025800008952F923F925F926F927F928F929F92C7
:10259000AF92BF92CF92DF92EF92FF920F931F9371
:1025A000DF93CF9300D000D000D0CDB7DEB79E83AD
:1025B0008D83C62ED42EEE24E394E21A8EEF289F4C
:1025C000502C1124842E8A94962E9A94A42EA3948F
:1025D000B62EB394F22E662423E0722E10E0C801CA
:1025E000847090709A838983F801E270F070FC83A4
:1025F000EB8398E0292E312C2022312201701070BB
:102600004CC0E7FC04C0FA94F2E05F0EE50C639462
:1026100089819A81892B61F04F2D4D0D8D819E818D
:102620006B2DB3DE6F2D6C0D8D819E814A2DADDE3D
:10263000EB81FC81EF2B61F04D2D4F198D819E8137
:102640006B2DA3DE6F2D6C0D8D819E81482D9DDE3F
:102650002114310461F06C2D6F198D819E814A2DFA
:1026600094DE4F2D4D0D8D819E81692D8EDE0115DD
:10267000110561F06C2D6F198D819E81482D85DECD
:102680004D2D4F198D819E81692D7FDEE70CF2E083
:102690007F0E8A949A94A394B3946F140CF4B1CFE0
:1026A00026960FB6F894DEBF0FBECDBFCF91DF9157
:1026B0001F910F91FF90EF90DF90CF90BF90AF9060
:1026C0009F908F907F906F905F903F902F90089594
:1026D0004F925F926F927F928F929F92AF92BF9232
:1026E000CF92DF92EF92FF920F931F93CF93DF93DE
:1026F000EC01A62E742E9E2DFF24F394F21A8EEF79
:10270000289F802C1124B42EBA9453E0C52ECE0CF1
:10271000E22EDD2443E0942E10E031E0432E512CD4
:1027200040225122692E63940270107030C0F7FC71
:1027300004C0EA9482E0880EF80CD394411451044A
:1027400079F06D2D6A0D472D4E192E2D220F260D75
:10275000CE01D9DE6E2D6A0DCE014B2D2C2DD3DE90
:102760000115110579F06A2D6D19472D4E192E2D81
:10277000220F260DCE01C7DE6A2D6E19CE014B2D1C
:102780002C2DC1DEF90C82E0980EBA94C80EDE142E
:1027900074F2DF91CF911F910F91FF90EF90DF9036
:1027A000CF90BF90AF909F908F907F906F905F90F1
:1027B0004F9008957F928F929F92AF92BF92CF9247
:1027C000DF92EF92FF920F931F936C01962EA42E2F
:1027D000F22E7E2C760E1EEFE19E102D1124812EFE
:1027E000820E672D282D86DEB02EBA0CBA94C60153
:1027F000672D4B2D282D7EDEAE0C100FC601692DE6
:102800004A2D212F80DEF90CFA94C6016F2D4A2D36
:10281000212F79DEC601672D4A2D2E2D01E0B1DE74
:10282000FE18C6016F2D4A2D2E2D02E0AADEBE181D
:10283000C6016F2D4B2D2E2D04E0A3DEC601672DA2
:102840004B2D2E2D08E09DDE1F910F91FF90EF90F4
:10285000DF90CF90BF90AF909F908F907F90089522
:102860008F929F92AF92BF92CF92DF92EF92FF92A0
:102870000F931F936C01162FA42E922EF02EBE2CB8
:102880008E2C860E2EEFE29EE02C11242E2D290D8B
:10289000682D42DEAB0CFA94FE0C1150190D1B1979
:1028A000C601612F4A2D2B2D01E0EF2C11DFC6014F
:1028B000682D4A2D2B2D02E00BDF1F910F91FF9009
:1028C000EF90DF90CF90BF90AF909F908F90089542
:1028D0003F924F925F926F927F928F929F92AF92B0
:1028E000BF92CF92DF92EF92FF920F931F93CF93FD
:1028F000DF934C01362E442EF901A490319654906A
:102900006F010894C11CD11C8A2D992787FD9095D1
:10291000079668E070E00E949E22E62EFF24E7FC06
:10292000F09400E0C0E0D0E060E8662E712C25C095
:10293000E12FE595E595E595FF27E7FDF095EC0F8F
:10294000FD1FEC0DFD1DE4912E2F30E0812F8770CF
:10295000A30102C0559547958A95E2F724233523B4
:10296000232B29F0612F630DC4014B2D0EDD1F5F5A
:102970001A15F4F20F5FCE0DDF1D051524F410E0DB
:10298000B02EB40CF5CFDF91CF911F910F91FF9036
:10299000EF90DF90CF90BF90AF909F908F907F90FF
:1029A0006F905F904F903F9008952F923F924F927B
:1029B0005F926F927F928F929F92AF92BF92CF92CF
:1029C000DF92EF92FF920F931F93DF93CF9300D08C
:1029D00000D00F92CDB7DEB73C01862E4A83F901B5
:1029E000BE2C002321F4EE2011F472DF79C0A490F4
:1029F000319694901F010894211C311C03700983A7
:102A00008A2D992787FD9095079668E070E00E94CF
:102A10009E22462E552447FC5094C92CCA94FF246C
:102A20001D821C824A2D41504B8355C0E02FE595F5
:102A3000E595E595FF27E7FDF0958C819D81E80FF1
:102A4000F91FE20DF31DE4912E2F30E0802F8770E7
:102A5000A0E8B0E002C0B595A7958A95E2F72A23D1
:102A60003B23232B59F1B981B13051F0B13028F01B
:102A7000B23049F0B33061F409C0102FEF2C08C018
:102A8000ED2C1F2D05C01D2DEC2C02C01C2DE02EA1
:102A9000BB2069F0E3E0BE228B2DB0FE03C0FA2D0F
:102AA000F11B1F2F81FF03C0492D4E19E42E180D75
:102AB0005A81E50EC301612F4E2D67DC0F5FDA945A
:102AC0000A150CF4B3CFF3948C819D81840D951D70
:102AD0009D838C83CA94F9141CF4DB8000E0F0CF52
:102AE0000F900F900F900F900F90CF91DF911F914B
:102AF0000F91FF90EF90DF90CF90BF90AF909F909D
:102B00008F907F906F905F904F903F902F9008959F
:102B1000DC01FB0184918F5F14968C93149731969E
:102B200084918F5F15968C93159731965E96FC93E2
:102B3000EE935D9708953F924F925F926F927F92CE
:102B40008F929F92AF92BF92CF92DF92EF92FF92BD
:102B50000F931F93CF93DF93EC01862EA42E422F69
:102B6000102F3F8C23E526170CF4A7C03FE23A153F
:102B70000CF4A3C0C02EDD248C8190E001979C0151
:102B8000C29EC001C39E900DD29E900D1124262F8F
:102B9000332727FD3095820F931F181619060CF066
:102BA0008CC08D8190E09C01C29EC001C39E900D9F
:102BB000D29E900D11242A2D332727FD3095820FA8
:102BC000931F181619060CF078C09924442E55242A
:102BD00069C09C01215030404217530711F460E056
:102BE0000EC0429EC001439E900D529E900D112436
:102BF000840F951FED8DFE8DE80FF91F64914C9D9C
:102C0000C0014D9D900D5C9D900D1124682C680EA7
:102C1000BB24792C780C3BC0E62EFF2460FF17C044
:102C2000113031F44B2D4A0DCE01672DAEDB2BC098
:102C30002C9DC0012D9D900D3C9D900D11244A2D81
:102C4000480FCE01662D212F012F66DC1CC098A1F4
:102C50008F8D9817C1F09F8F113031F44B2D4A0D95
:102C6000CE01672D92DB0EC02C9DC0012D9D900DD5
:102C70003C9D900D11244A2D480FCE01662D212F29
:102C8000012F4ADC3F8EF594E7946E2DB3942B2DE3
:102C9000332727FD30958D8190E0281739070CF4F4
:102CA000BBCF9394492D552747FD50958C8190E0DB
:102CB000481759070CF48DCF3F8EDF91CF911F91AC
:102CC0000F91FF90EF90DF90CF90BF90AF909F90CB
:102CD0008F907F906F905F904F903F9008950F93EB
:102CE000CF93DF93EC01262F6A3049F48D819885CC
:102CF000899F802D11249A85980F9A8725C06D3061
:102D000021F169854A85088516DF9C816885969F33
:102D1000402D11248985480F49878F818823A9F088
:102D2000552747FD5095699F9001112484E590E057
:102D3000821B930B8417950744F49D81699F902D06
:102D400011248A85890F8A87198681E090E0DF91B6
:102D5000CF910F9108951F93CF93DF93EC01162F1E
:102D6000F8948E8560E00E94F81F8F8518161CF479
:102D700060E00E94F81F1EBD0DB407FEFDCF8EB5AA
:102D80008F8518161CF461E00E94F81F7894DF917B
:102D9000CF911F910895FF920F931F93CF93DF93CD
:102DA000EC01FF2400E010E06F2D6064CE01D3DF62
:102DB000CE0160E8D0DF8E8561E00E94F81F8F852C
:102DC00018161CF460E00E94F81FF801E157FB4F51
:102DD00090E080818EBD0DB407FEFDCF8EB59F5F64
:102DE00031969435B1F78F8518161CF461E00E9476
:102DF000F81FF3940C5A1F4F86E0F816A9F6CE017F
:102E000060E4A9DFDF91CF911F910F91FF900895AA
:102E1000CF93DF93DC0188EF91E0EFE8F4E0EF017E
:102E20009C01199221503040E1F719961C92199794
:102E30001A961C92DF91CF910895EF920F93CF9342
:102E4000DF93EC014D876C872E87E88A0F8781E03E
:102E500088878F8F18A28F83EDECF3E084918F5FCA
:102E60008C83319684918F5F8D833196FE8FED8FA9
:102E7000EED781E0CDD785E0D9D78CE0D2D78D854C
:102E800061E00E94B91F8C8561E00E94B91F8E85A8
:102E900061E00E94B91F888918161CF461E00E9445
:102EA000B91F8F8518161CF461E00E94B91F88892C
:102EB000181664F460E00E94F81F6AE070E080E099
:102EC00090E07BD9888961E00E94F81FEC852E2F65
:102ED000332727FD3095F901E359FA4FE491F0E0EB
:102EE000EE0FFF1FE75AFA4F859194919C8B8B8BC5
:102EF0002F573A4FF90184918A8FED852E2F332772
:102F000027FD3095F901E359FA4FE491F0E0EE0F17
:102F1000FF1FE75AFA4F859194919A8B898B2F570F
:102F20003A4FF9018491898FEF852E2F332727FDA2
:102F30003095F901E359FA4FE491F0E0EE0FFF1FED
:102F4000E75AFA4F859194919E8B8D8B2F573A4F6C
:102F5000F90184918B8FEE852E2F332727FD309535
:102F6000F901E359FA4FE491F0E0EE0FFF1FE75A41
:102F7000FA4F85919491988F8F8B2F573A4FF90183
:102F800084918C8FCE0161E2E6DECE0164E1E3DE66
:102F90008B8587FF02C08FE78B876B856068CE01CA
:102FA000DADECE0160E2D7DECE016CE0D4DECE0107
:102FB000F2DEDF91CF910F91EF900895CF93DF93E1
:102FC000DC01E0E8FFE685919491ED01C75ADF4FFF
:102FD000AD0141595F4F8150904C09F04EC0E6E978
:102FE000FFE6E491E883E7E9FFE6E4911496EC93C9
:102FF0001497E8E9FFE6E4911596EC931597E9E953
:10300000FFE68591949117969C938E931697EBE922
:10301000FFE68591949119969C938E931897EDE90C
:10302000FFE6E4919B96EC939B97EEE9FFE6E49133
:103030009A96EC939A97EFE9FFE6E491EA01E88328
:10304000E0EAFFE6859194915D969C938E935C9760
:10305000E2EAFFE6859194915F969C938E935E974A
:10306000E4EAFFE68591949191969C938E939097D4
:10307000E6EAFFE68591949132C08CE3888314964A
:103080001C9214972FEF15962C93159780E293E0DE
:1030900017969C938E93169784ED93E019969C93C4
:1030A0008E93189781E09B968C939B979A968C931E
:1030B0009A97FA0120838CEA9DE05D969C938E930B
:1030C0005C978EED9DE05F969C938E935E9784E770
:1030D0009EE091969C938E9390978CE39FE09396BD
:1030E0009C938E939297DF91CF910895CF92DF9228
:1030F000EF92FF920F931F936217730784F0E20E13
:10310000F31E6E157F055CF44017510744F080E014
:10311000C00ED11E4C155D051CF481E001C080E09D
:103120001F910F91FF90EF90DF90CF900895EF9255
:10313000FF920F931F93CF93DF937C018C01025B6F
:103140001F4FC80165DEC80168E672E00E94D80E14
:10315000C80121DE83E06AD680E091E0EEEFFFE374
:10316000099584E590E0E80EF91EF7011082C80188
:1031700063E472E00E94230FC8010DDEE701CA5428
:10318000D040CE01D2D8CE0164E0BBD8882331F440
:1031900062E370E080E090E010D8F3CFDF91CF9150
:1031A0001F910F91FF90EF9008950F931F93CF936E
:1031B000DF93EC018C01025B1F4FC80161E040E02E
:1031C000E0D8FE01E95AFF4FCE5ADF4F85E59881DE
:1031D000891B808326961882C855D040698D61303E
:1031E00061F1613028F0888D653008F03FC039C04A
:1031F000CE018596A5D3CE0160E0A5D7C80108DE33
:10320000CA5ADF4F81E08883C80160E972E00E94FA
:10321000D80EC801C0DD83B7817F846083BF83B7C8
:10322000816083BF83B7816083BF889583B78E7FBA
:1032300083BF83B78E7F83BF1FC0C059DF4F888194
:103240009981AA81BB818F709070A070B07008972F
:10325000A105B10518F4C80167E00CC0C80168E712
:1032600009C0882349F06B5FC80104C0882321F09E
:10327000C8016FE20E94FB0EDF91CF911F910F9169
:103280000895AF92BF92CF92DF92EF92FF920F9389
:103290001F93CF93DF93EC01CB57DF4F8881C55845
:1032A000D040882309F446C08C3010F010E002C0F2
:1032B0001CE0181BCA5ADF4F81E08883C655D040F6
:1032C0006EE4C62ED12CCC0EDD1EC60160E055D8B2
:1032D00053E5A52EB12CAC0EBD1EF50100814DE2CB
:1032E000F42E4F2D401B410F0D5FC60160E024E519
:1032F00033E0E32EB5DAC60161E03FD8F501008185
:10330000F01AF10E0D5FC60160E04F2D24E552DA90
:10331000C95ADF4F84E08993F5018081181B115D44
:103320001883AB9669917991C6010E94D80E888165
:1033300081508883DF91CF911F910F91FF90EF9083
:10334000DF90CF90BF90AF9008958F929F92AF92F1
:10335000BF92CF92DF92EF92FF920F931F934C0197
:10336000FC01A28CB38CCC24DD240E94B7107B011D
:103370008C01F401818092800E94B710860E971E06
:10338000E094F09400951095C801B701A60195014D
:103390000E946B22860E971EC4010E9459101F9135
:1033A0000F91FF90EF90DF90CF90BF90AF909F90E4
:1033B0008F900895AF92BF92CF92DF92EF92FF92DB
:1033C0000F931F93CF93DF93EC01EFE7AE2EB12C59
:1033D000A80EB91EF501E080F180028113810E94E0
:1033E000A910E61AF70A080B190B7EE7C72ED12C95
:1033F000CC0EDD1EF601808190E0A0E0B0E08E15DD
:103400009F05A007B10708F078C08E0106581F4F2E
:10341000F80180819181A281B3810097A105B10556
:1034200009F46BC00E94A910F6012081620F711D82
:10343000811D911DF5016083718382839383FE0159
:10344000E059FF4F80819181A281B3810196A11D36
:10345000B11D80839183A283B383F801108211820E
:10346000128213820E94B710CA58DF4F6883798393
:103470008A839B83C657D040CE0168D6CE010A9678
:103480000E949511CE014896D1D681E02BC08E01C5
:103490000B5D1F4FC80152D2C80122D3C8010FD4FF
:1034A000CE01EFDECE0181DE8E01025B1F4FC8012F
:1034B00072DCCC5ADF4F8881C455D040882311F488
:1034C000C801A6DC0E94B710C658DF4F6883798315
:1034D0008A839B83249728813981621B730B7A939B
:1034E0006A9380E0DF91CF911F910F91FF90EF9051
:1034F000DF90CF90BF90AF900895C658DF4F88817E
:103500009981AA81BB81CA57D0400097A105B10516
:1035100041F7BDCF2F923F924F925F926F927F9271
:103520008F929F92AF92BF92CF92DF92EF92FF92D3
:103530000F931F93DF93CF93CDB7DEB72B970FB6C3
:10354000F894DEBF0FBECDBF9B878A877A836983DD
:103550005C834B838C0101591F4FF80180818823C4
:1035600009F41AC18A859B858A5A9F4F9B878A874F
:1035700081E0EA85FB85808312921292E455F04047
:10358000FB87EA87108E9EE4E92EF12CEE0EFF1EDB
:10359000C70161E00E94BD118AE0282E312C8A8586
:1035A0009B85280E391EB5E26B2E712C680E791E94
:1035B000E981FA81F491FD83A7E58A2E912C880E8A
:1035C000991EF8E5CF2ED12CC80ED91EE2E54E2E5D
:1035D000512C480E591E8D5A9F4F9F838E8370E742
:1035E000A72EB12C8A859B85A80EB91E198708873E
:1035F0008A859B85DFDE8823D9F39D81992311F489
:1036000010E003C0EE81FF811081C70160E040E05F
:103610002CED32E05DD98B819C81892B39F0145FD0
:10362000C70160E0412F2B813C8152D9F401108207
:103630008CE0F6018083C70169817A810E94D80EEF
:10364000F201208130E0C901880F991F820F931F7A
:10365000909581959F4F8D5AF4018083EE81FF8173
:10366000208130E0C901880F991F820F931F909528
:1036700081959F4F835DF6018083F501808184FFF2
:1036800004C0C7016CE573E003C0C70168E573E0DF
:103690000E94230FF201208130E0C901880F991F99
:1036A000820F931F909581959F4F8D5AF4018083CF
:1036B000F60180818F5F8083EA85FB8582A5882360
:1036C00021F0C70164E573E003C0C70160E573E062
:1036D0000E94230FF201808190E09C01220F331F92
:1036E000280F391F309521953F4F2D5AF401208323
:1036F000F60180818F5F8083C7016CE473E00E94D4
:10370000230FC10165E00E948111882341F0EA8501
:10371000FB8562A56F5FC30137D3C30131D3C101FC
:1037200064E00E948111882399F4E885F98560811D
:10373000262F30E040E050E0F50180819181A281A8
:10374000B38182179307A407B507F0F06F3FE1F04C
:103750008A859B8581599F4F9B878A878FEFEA8552
:10376000FB858083EF56F040FB87EA87C30160E06A
:103770008BD0C301FDD281E0EA85FB85808F0CC030
:103780008A859B85D4DC34CFC10166E00E9481111B
:10379000882309F42DCFF4CF2B960FB6F894DEBF13
:1037A0000FBECDBFCF91DF911F910F91FF90EF9092
:1037B000DF90CF90BF90AF909F908F907F906F9051
:1037C0005F904F903F902F900895AF92BF92CF920D
:1037D000DF92EF920F93CF93DF936C018EE790E02F
:1037E000C80ED91E82E3F601808381E090E0A0E05C
:1037F000B0E0B293A293929382936F0185EF9FEF13
:10380000C80ED91E8FEFF601808381E99FEFC80EA5
:10381000D91EC601D3DBC60192D4C6016FEF93D483
:103820004AE0A42EB12CAC0CBD1CC5010E94711144
:10383000C5010E949511C6014896EED4C601825B6F
:103840009F4F6DE04BE020E10FE03EE0E32EF5DA24
:10385000E601A596CE01A4D2C50165E00E948111C2
:10386000882321F0CE0160E08FD205C0CE0162E650
:1038700073E040E01BD0DF91CF910F91EF90DF908C
:10388000CF90BF90AF900895FC01662371F4178A22
:10389000158A14A213A2108E10928B0610928A061B
:1038A000109288061092B400118208950F931F930E
:1038B000CF93DF93EC018B01442369F460E0E4DFF4
:1038C0001E870D871B8A1A8A81E0898389E08E8B87
:1038D000198E1B8E1D8EDF91CF911F910F91089530
:1038E000CF93DF93EC01662331F58881882319F1AA
:1038F0008981882301F5898590E0880F991FEF81E0
:10390000F885E80FF91F859194912FEF8F3F92076B
:1039100011F4188210C09C8790E0880F991FEA85E7
:10392000FB85E80FF91F65917491CE0140E0BEDF81
:1039300089858F5F8987DF91CF91089560E0D0CF2F
:1039400060E0A2CF0F93DC01002309F047C0623092
:10395000A1F1633030F4662351F0613009F03EC0CC
:1039600009C0633081F1643009F038C032C0569626
:103970004C9334C0842F90E0880F991F1F962D918F
:103980003C915097280F391FF90185919491909699
:103990009C938E935F97FC0145915491642F91966F
:1039A0004C939197252F3327842F90E028173907C0
:1039B00008F4652F92966C9311C059964C935997C1
:1039C0005A962C930BC05B964C935B975C962C930A
:1039D00005C05D964C935D975E962C930F9108956C
:1039E0000F93CF93DF93EC01662309F075C08981B3
:1039F000882309F471C08D89882309F06DC0EA8994
:103A0000FB89EE0FFF1F4D855E85E40FF51F2591A5
:103A100034912115310509F047C08989813031F48D
:103A20001B8A1A8AFA01259134913EC01982888135
:103A3000882371F0CE0160E053DF8A899B89880F6B
:103A4000991FED85FE85E80FF91F259134912CC053
:103A50001F8A1D8A1CA21BA2188E10928B06109220
:103A60008A06109288061092B40036C006E0369599
:103A700027950A95E1F76F70422F4F71B5E03695A3
:103A80002795BA95E1F72051CE0100E05BDF8A89E6
:103A90009B8901969B8B8A8B880F991FED85FE85EC
:103AA000E80FF91F25913491B901769567957695C0
:103AB000679520FDDBCF862F8F738C8B3D8B1DA2EE
:103AC0001CA21BA281E08F8B80938806188E8A89A6
:103AD0009B8901969B8B8A8BDF91CF910F910895E3
:103AE00060E07ECFCF93DF93EC01662309F0E4C062
:103AF0008F89882309F4E0C08D89882371F41F8A97
:103B00001D8A1CA21BA2188E10928B0610928A0688
:103B1000109288061092B400CFC081508D8B8DA179
:103B2000882309F044C08BA19CA10196880F991F9E
:103B3000EF8DF8A1E80FF91F85919491282F277038
:103B40002EA3AC0173E0569547957A95E1F79A015B
:103B500036952795892F9927869586958FA32F735C
:103B60008C81289F202D11242DA3417040938C0619
:103B70008BA19CA101969CA38BA329A130E0821765
:103B80009307A8F08AA1882329F0281B31093CA3B8
:103B90002BA30DC01F8A1D8A1CA21BA2188E109277
:103BA0008B0610928A06109288061092B4008DA19E
:103BB00081508DA3988D9F5F988F2FA18C89280F9E
:103BC0008C85280F2A836B8D662361F0892F9927B6
:103BD00087FD909570E0B2D48C8D869F802D112446
:103BE000820F8A838A8190E0CB966BE370E0A6D443
:103BF0008A832E892B83698D662371F0888D7727C0
:103C000067FD7095992787FD909598D48A8D869F3A
:103C1000802D1124820F8B836D8D662389F0888D12
:103C2000992787FD909570E089D4CB0162E070E020
:103C300085D49E8D899F802D11249B81890F8B8334
:103C40008B818A300CF089E087FD80E08B838C8942
:103C50008F3309F41B82F894EA81F0E0EA57FC4FB5
:103C6000E491E09389062D8130E08B81992787FDCF
:103C70009095A901489F9001499F300D589F300DA4
:103C8000112488A590E0A901489F9001499F300D1B
:103C9000589F300D11248EA1992787FD9095AC0176
:103CA000249FC001259F900D349F900D1124809377
:103CB0008A0680938B067894DF91CF91089560E017
:103CC00011CF60918A06662379F1809187068F5F14
:103CD0008093870690918906891730F130E08091B2
:103CE0008806882309F431E030938806109287060D
:103CF00080918C068823A1F08091270123E4829F84
:103D0000C0011124895B8093270190E070E002D408
:103D100080938B0605C080918B068093B400089534
:103D20003323C9F780E0F9CF08951F920F920FB6A1
:103D30000F9211242F933F934F935F936F937F9331
:103D40008F939F93AF93BF93EF93FF93BADFFF914E
:103D5000EF91BF91AF919F918F917F916F915F9103
:103D60004F913F912F910F900FBE0F901F9018957C
:103D70006EE773E040E09ACD66E773E040E096CDF1
:103D800060E773E040E092CDFC01862F668170E031
:103D90006F5F7F4F992787FD9095D0D385830895D6
:103DA0000F93FC0181E0848384E080A781EC93E0A1
:103DB000908B8787CF0161E040E020E000E0C2DD2A
:103DC00083E061E070E077D0E1EBF0E08081887F14
:103DD00081608083F89410928000E1E8F0E0108226
:103DE000109285001092840088E191E09093890000
:103DF0008093880080818860808380818160808357
:103E0000EFE6F0E080818260808378940F910895DE
:103E1000882319F48CB5806202C08CB58F7D8CBD6F
:103E200008959CB5937F982B9CBD08952CB5382F91
:103E300033702C7F322B3CBD2DB590E09595879546
:103E40009595879581702E7F822B8DBD08958AE090
:103E500061E0CED08AE061E08CD08CB580618CBD11
:103E60008CB580648CBD8DE061E083D08BE061E037
:103E700080C0982F8E3008F09E5097708091280156
:103E80008295880F880F807C892B80937C0080919D
:103E90007A00806480937A0080917A0086FDFCCF5E
:103EA0002091780040917900942F80E030E0282B19
:103EB000392BC90108951F93CF93DF93182FEB017E
:103EC00061E057D0209709F44AC0CF3FD10509F4EB
:103ED00049C0E12FF0E0EB56FA4F84918330C1F0F6
:103EE000843028F4813051F08230B1F50CC0863036
:103EF00019F1873049F1843079F514C084B58068B0
:103F000084BDC7BD32C084B5806284BDC8BD2DC02C
:103F100080918000806880938000D0938900C09356
:103F2000880023C080918000806280938000D093BD
:103F30008B00C0938A0019C08091B0008068809384
:103F4000B000C093B30011C08091B0008062809334
:103F5000B000C093B40009C0C038D1051CF4812F53
:103F600060E002C0812F61E043D0DF91CF911F91CB
:103F70000895CF93DF93482F50E0CA018F579A4F8F
:103F8000FC01349143595A4FFA018491882369F115
:103F900090E0880F991FFC01E15BFA4FA591B49165
:103FA000FC01E75AFA4FC591D491662351F42FB71B
:103FB000F8948C91932F909589238C9388818923F1
:103FC0000BC0623061F42FB7F8948C91932F9095C9
:103FD00089238C938881832B88832FBF06C09FB74A
:103FE000F8948C91832B8C939FBFDF91CF91089590
:103FF000482F50E0CA018B569A4FFC012491CA0108
:104000008F579A4FFC01949143595A4FFA013491BA
:10401000332309F440C0222351F1233071F02430BE
:1040200028F42130A1F0223011F514C02630B1F06F
:104030002730C1F02430D9F404C0809180008F77FC
:1040400003C0809180008F7D8093800010C084B574
:104050008F7702C084B58F7D84BD09C08091B00088
:104060008F7703C08091B0008F7D8093B000E32FE5
:10407000F0E0EE0FFF1FE75AFA4FA591B4912FB76A
:10408000F894662321F48C919095892302C08C9139
:10409000892B8C932FBF0895682F70E0CB018B562E
:1040A0009A4FFC012491CB018F579A4FFC01449108
:1040B00063597A4FFB019491992319F420E030E081
:1040C0003CC0222351F1233071F0243028F42130F8
:1040D000A1F0223011F514C02630B1F02730C1F024
:1040E0002430D9F404C0809180008F7703C0809180
:1040F00080008F7D8093800010C084B58F7702C0D0
:1041000084B58F7D84BD09C08091B0008F7703C0D6
:104110008091B0008F7D8093B000892F90E0880F50
:10412000991F8D599A4FFC01A591B4918C9120E073
:1041300030E0842311F021E030E0C9010895FC0152
:1041400081E08083089585E070E0B5CE6F927F9224
:104150008F929F92AF92BF92CF92DF92EF92FF9297
:104160000F931F93CF93DF93EC0189819A818C0188
:1041700024E0000F111F2A95E1F7081B190B85E1B8
:1041800078DEBC01600F711F84E0769567958A9593
:10419000E1F77A8369838881882379F12E813F81D1
:1041A0006217730710F4B90106C0888599858617D0
:1041B000970708F4BC0100D000D080E090E040E018
:1041C00050E0E884F98400E010E0AD80BB24CC240A
:1041D000DD246C80772488249924EDB7FEB76182B2
:1041E0007282838294820E94D10F6B830F900F9012
:1041F0000F900F9085E070E05EDEDF91CF911F9110
:104200000F91FF90EF90DF90CF90BF90AF909F9075
:104210008F907F906F900895FC018CE39FE09383D3
:10422000828384E0818381E084870895CF93DF9344
:10423000EC018C8590E08F719070892B49F584E1B9
:1042400018DEAA2797FDA095BA2FBC01CD0154D046
:1042500026EE3FE34EEC50E4DBD020D09B01AC01D6
:104260007B836A836115710589F084E08983B901D4
:10427000FE0120E0848195816817790710F4298375
:104280000AC02F5F32962430A9F702C08FEF8983CE
:104290008C858F5F8C87DF91CF91089598D088F0BF
:1042A0009F5790F0B92F9927B751A0F0D1F0660F22
:1042B000771F881F991F1AF0BA95C9F712C0B1303D
:1042C00081F09FD0B1E008959CC0672F782F882798
:1042D000B85F39F0B93FCCF3869577956795B3957C
:1042E000D9F73EF490958095709561957F4F8F4FEB
:1042F0009F4F0895E89409C097FB3EF490958095F0
:10430000709561957F4F8F4F9F4F9923A9F0F92F9B
:1043100096E9BB279395F695879577956795B79519
:10432000F111F8CFFAF4BB0F11F460FF1BC06F5FFF
:104330007F4F8F4F9F4F16C0882311F096E911C011
:10434000772321F09EE8872F762F05C0662371F032
:1043500096E8862F70E060E02AF09A95660F771F46
:10436000881FDAF7880F9695879597F9089597F93A
:104370009F6780E870E060E008959FEF80EC08950B
:1043800000240A9416161706180609060895002434
:104390000A9412161306140605060895092E0394AE
:1043A000000C11F4882352F0BB0F40F4BF2B11F422
:1043B00060FF04C06F5F7F4F8F4F9F4F089557FD81
:1043C0009058440F551F59F05F3F71F04795880F83
:1043D00097FB991F61F09F3F79F08795089512161A
:1043E00013061406551FF2CF4695F1DF08C01616C6
:1043F00017061806991FF1CF869571056105089477
:104400000895E894BB2766277727CB0197F908958D
:104410000BD0C4CFB5DF28F0BADF18F0952309F030
:10442000A6CFABCF1124EECFCADFA0F3959FD1F377
:10443000950F50E0551F629FF001729FBB27F00D52
:10444000B11D639FAA27F00DB11DAA1F649F6627A7
:10445000B00DA11D661F829F2227B00DA11D621FF6
:10446000739FB00DA11D621F839FA00D611D221FB0
:10447000749F3327A00D611D231F849F600D211D94
:10448000822F762F6A2F11249F5750408AF0E1F037
:1044900088234AF0EE0FFF1FBB1F661F771F881F80
:1044A00091505040A9F79E3F510570F060CFAACFC0
:1044B0005F3FECF3983EDCF3869577956795B7956B
:1044C000F795E7959F5FC1F7FE2B880F911D969595
:1044D000879597F90895629FD001739FF001829F9D
:1044E000E00DF11D649FE00DF11D929FF00D839F83
:1044F000F00D749FF00D659FF00D9927729FB00D20
:10450000E11DF91F639FB00DE11DF91FBD01CF0132
:1045100011240895AA1BBB1B51E107C0AA1FBB1F92
:10452000A617B70710F0A61BB70B881F991F5A953F
:10453000A9F780959095BC01CD01089597FB092EB0
:1045400007260AD077FD04D0E5DF06D000201AF454
:10455000709561957F4F0895F6F7909581959F4FDF
:104560000895A1E21A2EAA1BBB1BFD010DC0AA1FB4
:10457000BB1FEE1FFF1FA217B307E407F50720F0CC
:10458000A21BB30BE40BF50B661F771F881F991F47
:104590001A9469F760957095809590959B01AC0190
:1045A000BD01CF01089597FB092E05260ED057FDBA
:1045B00004D0D7DF0AD0001C38F4509540953095D0
:1045C00021953F4F4F4F5F4F0895F6F79095809597
:1045D000709561957F4F8F4F9F4F0895EE0FFF1F8E
:1045E0000590F491E02D09942F923F924F925F92A3
:1045F0006F927F928F929F92AF92BF92CF92DF92F3
:10460000EF92FF920F931F93CF93DF93CDB7DEB757
:10461000CA1BDB0B0FB6F894DEBF0FBECDBF0994EB
:104620002A88398848885F846E847D848C849B8442
:10463000AA84B984C884DF80EE80FD800C811B8150
:10464000AA81B981CE0FD11D0FB6F894DEBF0FBE7F
:10465000CDBFED01089515E0CCEAD5E003C0FE0121
:0E466000BFDF2296CE3AD107D1F7F894FFCFF4
:10466E004C4F4144455200200091060000010000CD
:10467E000068006D0073007A008000870090009A39
:10468E000022012901300101010000000078044AD6
:10469E00070000000051070608000000004E083712
:1046AE0009000000004C09AA0A00000000B10A121D
:1046BE000C00000000590C1B0D000000006F16AE20
:0246CE000E00DC
:00000001FF
