:1000000076C200009CC200009AC2000098C20000A4
:1000100096C2000094C2000092C2000090C200008C
:100020008EC200008CC200008AC200000C941B1C0F
:1000300086C2000084C2000082C2000080C20000AC
:100040000C948A0D7CC200007AC2000078C20000C5
:1000500076C2000074C2000072C2000070C20000CC
:100060006EC200006CC2000007070139FFABFF3908
:10007000010707F96171FF7161F9050557AF8F57E6
:1000800027050557EFCF7727050557FFFF7727404F
:100090001C000000000000000078000000000000CC
:1000A0004448000000000000284113E7DC00000085
:1000B000007912245400100028091227D0002800CB
:1000C00044091224100010000049122450000000BE
:1000D0000079F3E7D0000001F000023C00000002CC
:1000E0004000022400000000F0000220F9E3CF816C
:1000F000E03E003C88224880F018000489E20F822C
:10010000401C000489220801F01F9C248922488099
:10011000001C003CF9E3CF800018000080000000C4
:10012000003E0000800000000000003C8000040051
:10013000000000248000040000000020F9F3EF7D9F
:10014000C000003C89122445400020048912247D0F
:100150000000000489122441000000248912244573
:100160000020003C89F3E77D005000000000000003
:100170000020535353206279206D736576696C6754
:10018000656E6975730020535353206279206D7337
:100190006576696C67656E697573000A4E6F2053EA
:1001A000442063617264206F720A6E6F204C4F416D
:1001B0004445522E4845580A0A153A457869740054
:1001C0001D20466C617368696E670A20206C6F6140
:1001D0006465722E2E2E0A0A444F4E275420545521
:1001E000524E204F464621004E4F20424154544526
:1001F00052590A0A504C454153450A5455524E2013
:100200004F464600177361766500166261636B00A6
:100210001574797065000A0A0A153A6F6B617920C6
:10022000163A6564697400596F7520656E7465725D
:1002300065640A00540A03E181867F3E186D830FCE
:100240000F0E0183866033186DC3198F1803C38E98
:100250006033186DE330CF1803C39E603630CDE3B2
:1002600060CF3006C79E7E3E30CDB360CF300CC627
:10027000F6603330D9B660CF33CFCCF66061B0DBF7
:100280001E60CF30D86CE6C061B0DB1E618F19985C
:100290006CC6C063B19B0E330F0FB078C6FF7E1FD4
:1002A0001B061E0F17534400161378001613140074
:1002B00015102000152010000000050089300802EC
:1002C0003802497868140000450068010000050004
:1002D0006801380100000500380168010000F6E8F7
:1002E000DBCFC3B8AEA49B928A827B746E68625CDB
:1002F00057524E4945413E3A3734312E2C29272555
:10030000232106030A030101F7030101FF0303058B
:100310003F213F0A100A1208120E1C0E0C1E0C146C
:100320001A14161F161E131E1E1B1E1E1F1E3F21F3
:100330003F3A2F3A173D173F213F181F02040A0486
:100340001F0E04040E1F0A1F0A0E0E1F04110E2E8C
:10035000252E2F2A2E262929021F02081F08150ED6
:1003600004040E150E15151B151B040604040C04BD
:100370000000000017000300031F0A1F16371A1998
:1003800004130A153A000300000E11110E000A04AE
:100390000A040E04003000040404001000180403D2
:1003A0001F111F121F101D151711151F07041F17EE
:1003B000151D1F151D01011F1F151F17151F000AF1
:1003C00000003200040A110A0A0A110A0401150287
:1003D0000E11171E051E1F150A0E110A1F110E1FE2
:1003E00015111F05010E111D1F041F111F110810EB
:1003F0000F1F041B1F10101F061F1E040F0E110ECF
:100400001F09060E112E1F051A121509011F011FC3
:10041000101F0F180F1F0C1F1B041B031C031915A3
:1004200013001F11030418111F00020102202020D5
:100430000001020C121E1F120C0C12120C121F0CC7
:100440001A14041E05242A1E1F021C141D1020202D
:100450001D1F0814111F101E041E1E021C0C120C5E
:100460003E0A040C123E1E040214160A020F120E5B
:10047000101E0E100E1E081E120C1226281E322AE6
:1004800026041E21001F00211E040102013F213FFE
:1004900000000000240027002A00000000002500C2
:1004A00028002B000000000023002600290004047F
:1004B000040404040404020202020202030303030C
:1004C00003030102040810204080010204081020E8
:1004D00001020408102000000007000201000003D0
:1004E00004060000000000000000940A8F0A112496
:1004F0001FBECFEFD8E0DEBFCDBF11E0A0E0B1E07E
:10050000EAE7F1E402C005900D92AA34B107D9F7E9
:1005100017E0AAE4B1E001C01D92A834B107E1F7E9
:1005200014E0CCEED4E004C02297FE010E947620B5
:10053000CA3ED107C9F70E94C80B0C94B12060CD08
:10054000CF93DF93BC018230910510F462E070E03C
:10055000A0914607B0914707ED01E0E0F0E040E0F0
:1005600050E021C0888199818617970769F48A81B4
:100570009B81309719F09383828304C0909347073F
:1005800080934607FE0134C06817790738F4411597
:10059000510519F08417950708F4AC01FE018A8112
:1005A0009B819C01E9012097E9F641155105A9F1CC
:1005B000CA01861B970B049708F4BA01E0E0F0E04B
:1005C0002AC08D919C91119784179507F9F46417AF
:1005D000750781F412968D919C911397309719F0BD
:1005E0009383828304C09093470780934607FD015D
:1005F00032964CC0CA01861B970BFD01E80FF91F0C
:100600006193719302978D939C9340C0FD01828109
:1006100093819C01D9011097A1F680914407909194
:100620004507892B41F48091090190910A0190932B
:1006300045078093440740910B0150910C014115EF
:10064000510541F44DB75EB78091070190910801C3
:10065000481B590B2091440730914507CA01821B62
:10066000930B8617970780F0AB014E5F5F4F84179F
:10067000950750F0420F531F50934507409344078E
:10068000F9016193719302C0E0E0F0E0CF01DF91E6
:10069000CF910895CF93DF93009709F450C0EC01F8
:1006A00022971B821A82A0914607B09147071097A4
:1006B00009F140E050E0AC17BD0708F1BB83AA8305
:1006C000FE0121913191E20FF31FAE17BF0779F4BC
:1006D0008D919C911197280F391F2E5F3F4F3983C1
:1006E000288312968D919C9113979B838A83411541
:1006F000510571F4D0934707C093460720C0129666
:100700008D919C911397AD01009711F0DC01D3CF2F
:10071000FA01D383C28321913191E20FF31FCE17E7
:10072000DF0769F488819981280F391F2E5F3F4FB9
:10073000FA01318320838A819B8193838283DF91B5
:10074000CF910895A0E0B0E0E8EAF3E00C948220B5
:10075000EC01A880B980CA80DB80A114B104C10477
:10076000D10441F484E2A82E89EDB82E8BE5C82E81
:1007700087E0D82EC601B5012DE133EF41E050E00E
:100780000E94592027EA31E440E050E00E94F11F26
:100790007B018C01C601B5012DE133EF41E050E052
:1007A0000E945920CA01B9012CEE34EF4FEF5FEFE0
:1007B0000E94F11F6E0D7F1D801F911F97FF04C0C7
:1007C0006150704080409048688379838A839B831E
:1007D0009B01AC015F77B901CA01CDB7DEB7EAE092
:1007E0000C949E20AFCF8DE091E0ACCF60930D01D3
:1007F00070930E0180930F01909310010895EF9272
:100800000F93FC0163834483378326830583E2824D
:100810000F91EF900895FC018DE191E09183808329
:10082000138214821782168215828FEF82830895B5
:10083000FC018DE191E091838083089520E0FC012B
:1008400086819781892B09F421E0822F08952F92C8
:100850003F924F925F926F927F928F929F92AF9250
:10086000BF92CF92DF92EF92FF920F931F93DF938D
:10087000CF9300D000D0CDB7DEB72C01162FF42EC9
:10088000322E202EE982CA82FC018281813009F059
:1008900050C08EEC91E081D5662E772467FC709471
:1008A000872E992487FC9094A82EBB24A7FCB09493
:1008B000292F332727FD30953C832B83612F772702
:1008C00067FD70954F2D552747FD50958AE491E0BF
:1008D000930184017501CB80DC800E94F014882391
:1008E00021F5632D772767FD7095422D552747FD2C
:1008F00050958AE491E09301CB80DC800E94F01453
:10090000882399F43981632F772767FD70958A8151
:10091000482F552747FD50958AE491E09301CB80FD
:10092000DC800E94F014882381F08EEC91E03DD5AC
:1009300009C0882351F488EF94E0E980CA8071D31C
:10094000882319F0F201178216820F900F900F90F2
:100950000F90CF91DF911F910F91FF90EF90DF905B
:10096000CF90BF90AF909F908F907F906F905F904F
:100970004F903F902F900895CF92EF920F93CF9387
:10098000DF93EC016091B8017091B9018091BA01D7
:100990009091BB0123E030E040E050E00E9437201E
:1009A000611571058105910539F08C819D81891B47
:1009B0008C838B81891B8B832B810C8186E991E051
:1009C000622F402F225002500E94270F2B810C8152
:1009D000322F3250502F5250CE01622F402F2150D3
:1009E0000150E32EC52E33DFDF91CF910F91EF90B1
:1009F000CF900895CF92EF920F93CF93DF93EC01B6
:100A00006091B8017091B9018091BA019091BB01D8
:100A100023E030E040E050E00E943720611571058E
:100A20008105910539F08C819D81890F8C838B81A3
:100A3000891B8B832B810C8186E991E0622F402FEB
:100A400022500E5F0E94270F2B810C81322F3250D3
:100A5000502F5E5FCE01622F402F21500F5FE32E9B
:100A6000C52EF5DEDF91CF910F91EF90CF900895D5
:100A7000CF92EF920F93CF93DF93EC016091B80187
:100A80007091B9018091BA019091BB0123E030E0EF
:100A900040E050E00E943720611571058105910505
:100AA00039F08C819D81890F8C838B81890F8B8399
:100AB0002B810C8186E991E0622F402F2E5F02503E
:100AC0000E94270F2B810C81322F3E5F502F5E5FDB
:100AD000CE01622F402F2F5F0F5FE32EC52EB7DEB2
:100AE000DF91CF910F91EF90CF900895CF92EF9239
:100AF0000F93CF93DF93EC016091B8017091B9012E
:100B00008091BA019091BB0123E030E040E050E0D9
:100B10000E943720611571058105910539F08C819E
:100B20009D81891B8C838B81890F8B832B810C8109
:100B300086E991E0622F402F2E5F0E5F0E94270F03
:100B40002B810C81322F3E5F502F5250CE01622FED
:100B5000402F2F5F0150E32EC52E79DEDF91CF911C
:100B60000F91EF90CF900895CF92EF920F931F9334
:100B70008C01FC0163818581681B6383635086E976
:100B800091E0448123E00E94A30FF8012381C480F7
:100B9000322F3250C801622F4C2D21500C2DE32EE4
:100BA00056DE1F910F91EF90CF900895CF92EF9264
:100BB0000F931F938C01FC0165818381680F638310
:100BC00086E991E0448123E00E94A30FF80123818C
:100BD000C480322F3E5FC801622F4C2D2F5F0C2D39
:100BE000E32E35DE1F910F91EF90CF900895CF92B5
:100BF000DF92EF920F936C01FC0145818481480FD5
:100C00004483435086E991E0638123E00E94AC0F66
:100C1000F6010481E380302F3E5FC6016E2D402F28
:100C20002E2D0F5FC32E13DE0F91EF90DF90CF902C
:100C30000895CF92EF920F931F938C01FC01448192
:100C40008581481B448386E991E0638123E00E940B
:100C5000AC0FF801E38034812E2D2150C8016E2D98
:100C6000432F032F3250C32EF2DD1F910F91EF90CF
:100C7000CF900895FC018381853528F4848187FD18
:100C800002C081331CF017821682089586819781F5
:100C900084309105F1F0853091054CF48230910556
:100CA000A1F0833091059CF40197E9F40CC08630E3
:100CB000910599F08630910574F08730910579F0AF
:100CC000089789F40EC0CF01B4CFCF010FCFCF0169
:100CD0006DCFCF01CDCECF018ACFCF018BCECF014B
:100CE00043CFCF0149CE0895FC018DE191E091837E
:100CF0008083CF0159C50F931F93CF93DF93FC01DE
:100D000085E291E0DF018D939D938D01109779F03D
:100D1000EF01CE5DDC4FC017D10749F02897E8817D
:100D2000F9810190F081E02DCE010995F4CFDF919A
:100D3000CF911F910F910895EF92FF920F931F9300
:100D4000CF93DF937C0100E010E0E80183E0CC0F5B
:100D5000DD1F8A95E1F72296CE0DDF1DCE016EDDF7
:100D6000882311F4CE0186DF0F5F1F4F0436110573
:100D700061F7DF91CF911F910F91FF90EF90089550
:100D80008F929F92AF92BF92CF92DF92EF92FF929B
:100D90000F931F93CF93DF936C01F62E942E59017E
:100DA000802EC0E0D0E08E01CE0123E0880F991F95
:100DB0002A95E1F702968C0D9D1D40DD882321F4D4
:100DC0002196C436D10579F793E0000F111F9A954B
:100DD000E1F70E5F1F4FC601800F911F6F2D492D48
:100DE0009501082D0CDDDF91CF911F910F91FF90A0
:100DF000EF90DF90CF90BF90AF909F908F9008952D
:100E0000AF92BF92CF92DF92EF920F93CF93DF9387
:100E10005C01CC24DD24E60133E0CC0FDD1F3A95E4
:100E2000E1F72296CA0DDB1DCE0108DD882341F4CF
:100E3000CE0160E040E020E030E000E0EE24DFDCC6
:100E40000894C11CD11C84E6C816D10421F7DF9197
:100E5000CF910F91EF90DF90CF90BF90AF9008951A
:100E6000EF92FF920F931F93CF93DF937C0185E264
:100E700091E0F701819391938F01309779F0E70129
:100E8000CE5DDC4FC017D10749F02897E881F98182
:100E90000190F081E02DCE010995F4CFC70184D4F3
:100EA000DF91CF911F910F91FF90EF9008950F93D5
:100EB0001F93CF93DF938C0185E291E0F80181933A
:100EC00091938F01C0E0D0E0C8018C0F9D1FA3DC7F
:100ED0002896F3E0C032DF07B9F7DF91CF911F9179
:100EE0000F910895FC016283438335832483089521
:100EF000FC018DE291E0918380830895FC018DE2F5
:100F000091E091838083089520E0FC0184819581A4
:100F1000892B09F421E0822F0895FC01628163503E
:100F20007381725087E095E00895FC011582148268
:100F300080913605909137050A96909337058093F6
:100F400036050895EF920F93CF93DF93EC016A81FA
:100F500061506A838C819D81892B61F16E3F1CF405
:100F60001D821C8227C08091B8019091B901A09187
:100F7000BA01B091BB018F709070A070B0700097F3
:100F8000A105B105B9F486ED91E04B8127E030E091
:100F900002E0EE24E394F4DE86ED91E06A814B8179
:100FA00028E030E0EDDE86ED91E06A814B8126E0BD
:100FB00030E0E6DEDF91CF910F91EF900895FC01D4
:100FC000628163504381435086E991E028E630E036
:100FD0000C949111FC018DE291E091838083CF010B
:100FE000E3C30F931F93CF93DF93FC0185E391E05D
:100FF000DF018D939D938D01109771F0EF01EE96B7
:10100000C017D10749F02697E881F9810190F08156
:10101000E02DCE010995F4CFDF91CF911F910F9173
:1010200008952F923F924F925F926F927F928F928C
:101030009F92AF92BF92CF92DF92EF92FF920F9367
:101040001F93DF93CF93CDB7DEB72E970FB6F894EB
:10105000DEBF0FBECDBF1C011E861D868E2D9927BB
:1010600087FD90959A838983EC2DFF27E7FDF09506
:10107000FC83EB83822F992787FD90959E838D8338
:10108000E02FFF27E7FDF095F887EF83262F332722
:1010900027FD30953A872987842F992787FD9095DA
:1010A0009C878B870D851E85000F111FED85FE85A2
:1010B0000E0F1F1F0F5F1F4F000F111F020D131D7B
:1010C000C80122DF882309F046C0C80126DF462E6A
:1010D000552447FC5094672E772467FC7094882E23
:1010E000992487FC9094A92EBB24A7FCB0948AE491
:1010F00091E069817A814B815C8192018301740165
:1011000065010E94F0148823B1F48AE491E06D81B6
:101110007E814F81588592010E94F014882359F4F2
:101120008AE491E069857A854B855C8592010E940D
:10113000F014882381F08D859E85880F991F2D8559
:101140003E85820F931F0196880F991F820D931D74
:10115000ECDE81E009C08D859E8501969E878D8796
:101160000A9709F09FCF80E02E960FB6F894DEBF65
:101170000FBECDBFCF91DF911F910F91FF90EF90E8
:10118000DF90CF90BF90AF909F908F907F906F90A7
:101190005F904F903F902F900895AF92BF92CF9263
:1011A000DF92EF92FF920F931F93CF93DF937C0117
:1011B000B62EA42E6901C0E0D0E08E01CE01880FCA
:1011C000991F8C0F9D1F0196880F991F8E0D9F1DD3
:1011D0009BDE882321F42196CA30D10571F7C8011E
:1011E000880F991F800F911F0196880F991F8E0DF0
:1011F0009F1D6B2D4A2D960175DEDF91CF911F91BA
:101200000F91FF90EF90DF90CF90BF90AF90089537
:10121000EF92FF920F931F93CF93DF937C0100E037
:1012200010E0E801CC0FDD1FC00FD11F2196CC0FBD
:10123000DD1FCE0DDF1DCE0167DE882331F4CE0128
:1012400060E040E020E030E04DDE0F5F1F4F0A30ED
:10125000110539F7DF91CF911F910F91FF90EF901A
:101260000895EF92FF920F931F93CF93DF937C012A
:1012700000E010E0E801CC0FDD1FC00FD11F219668
:10128000CC0FDD1FCE0DDF1DCE013EDE882321F405
:10129000CE0158DECE0193DE0F5F1F4F0A301105DD
:1012A00049F7DF91CF911F910F91FF90EF90089533
:1012B000EF92FF920F931F93CF93DF937C0185E30F
:1012C00091E0F701819391938F01309771F0E701DD
:1012D000EE96C017D10749F02697E881F981019071
:1012E000F081E02DCE010995F4CFC7015DD2DF91E9
:1012F000CF911F910F91FF90EF9008950F931F933F
:10130000CF93DF938C0185E391E0F8018193919372
:101310008F01C0E0D0E0C8018C0F9D1FE9DD26964B
:10132000CC33D105C1F7DF91CF911F910F91089573
:10133000FC018DE391E0918380830895FC018DE3AE
:1013400091E0918380830895FC018AE0828388E1A3
:10135000838382E08483178285E0868386E08583A9
:101360000895FC018381833014F0815083830895B4
:10137000FC0183818D3214F48F5F83830895FC0117
:101380008281853014F0815082830895FC0182812E
:101390008A3414F48F5F82830895FC016281625065
:1013A0007381715083E093E008950F931F938C0134
:1013B0008FE691E00E94421CF8018581815085836F
:1013C00087FF01C060D11F910F910895EF920F9395
:1013D000CF93DF93EC018E81863070F08F8188236C
:1013E00059F46A816F5F86ED91E04B8123E030E034
:1013F0000C81EE24C5DC1E82DF91CF910F91EF901E
:101400000895CF93DF93EC018E81883C10F48F5FB9
:101410008E836A8165504B81435086E991E021E7D4
:1014200030E07FD72D8124301CF4E0E0F0E005C0EF
:10143000E22FFF27E7FDF0953497EE0FFF1FEF5ED9
:10144000FE4F2081318186E991E06BE04AE269D765
:101450002D8122301CF4E0E0F0E00AC024301CF0C2
:10146000E2E0F0E005C0E22FFF27E7FDF0953297BC
:10147000EE0FFF1FEF5EFE4F2081318186E991E084
:1014800066E04AE24ED72D8127FF03C0E0E0F0E09E
:1014900009C022301CF0E2E0F0E004C0E22FFF2798
:1014A000E7FDF095EE0FFF1FEF5EFE4F20813181CB
:1014B00086E991E061E04AE234D7DF91CF91089567
:1014C000FC018DE391E091838083CF016DC1813078
:1014D0009105B1F46F5F7F4F09F510929901109259
:1014E000980185E491E090939701809396018EECAA
:1014F00091E01EDF86ED91E0DADC88EF94E0FECE2D
:10150000892B61F46F5F7F4F49F488EF94E069DDC8
:1015100086ED91E0F0DB8EEC91E010CF089580E055
:1015200090E06FEF7FEFD3CF81E090E06FEF7FEF40
:10153000CECF0F931F9306E911E0C8016EE073E070
:101540005DD781E080939F018093A0016091360573
:1015500070913705C8014AE050E03CD21F910F91CD
:10156000089580913805882309F071C084E591E0E1
:1015700061E0F0D3882309F46AC081E080933805E4
:1015800008C084E591E061E0EFD3882311F0109268
:10159000380580913905882309F05FC084E591E022
:1015A00063E0D8D3882309F458C081E080933905DB
:1015B00008C084E591E063E0D7D3882311F010924E
:1015C000390580913A05882309F04DC084E591E002
:1015D00060E0C0D3882309F446C081E080933A05D7
:1015E00008C084E591E060E0BFD3882311F0109239
:1015F0003A0580913B05882309F03BC084E591E0E2
:1016000062E0A8D38823A9F181E080933B0508C05C
:1016100084E591E062E0A8D3882311F010923B05A5
:1016200080913C05882351F584E591E064E092D3F4
:10163000882321F181E080933C05089584E591E0C1
:1016400064E092D38823F1F010923C0508958091D4
:101650003805882309F49DCF94CF809139058823DC
:1016600009F4AFCFA6CF80913A05882309F4C1CF02
:10167000B8CF80913B05882399F2CACF80913C0571
:101680008823E1F6089510923705109236058EEC06
:1016900091E05ADE86ED91E0B3DB88EF94E0B8CDBF
:1016A0008AE491E00E945116882309F459C059DF59
:1016B00080913805882319F08EEC91E052DE8091FC
:1016C0003905882319F08EEC91E052DE80913A05BD
:1016D000882319F08EEC91E052DE80913B0588233F
:1016E00019F08EEC91E052DE80913C05882331F4B4
:1016F00084E591E064E02ED3882319F08EEC91E02C
:1017000065DE84E591E065E025D3882381F063E020
:1017100070E080E090E02DE230E040E050E0D5D194
:10172000462F88EF94E067E521E030E036DD84E580
:1017300091E066E00FD3882349F08AE491E061E705
:1017400071E04FE850E00E9400179DDF88EF94E0C1
:1017500088DD86ED91E0F0DA8EEC91E052DEE9CEA4
:1017600008950F931F930AE411E0C8010E945618D0
:10177000C80166E871E04FE850E00E940017C80118
:101780000E941C16109262017EDF1F910F91089536
:10179000CF93DF9394D2E5DFC0E0D0E081DF2097E4
:1017A000E9F30E940000FACF0C944A030895CF9207
:1017B000DF92EF92FF920F931F93CF93DF937C0101
:1017C0006B018A01C0E0D0E00FC0D6016D916D01C0
:1017D000D701ED91FC910190F081E02DC7010995B1
:1017E000C80FD91F015010400115110571F7CE0126
:1017F000DF91CF911F910F91FF90EF90DF90CF90ED
:101800000895EF92FF920F931F93CF93DF937C0184
:101810008B01C0E0D0E0F8010F5F1F4F6491662399
:1018200059F0D701ED91FC910190F081E02DC701B5
:101830000995C80FD91FEFCFCE01DF91CF911F912E
:101840000F91FF90EF900895DC01ED91FC910190D4
:10185000F081E02D09950895EF92FF920F931F9369
:101860008C01DC01ED91FC910190F081E02D6DE0A7
:1018700009957C01D801ED91FC910190F081E02D5A
:10188000C8016AE009959C012E0D3F1DC9011F91F9
:101890000F91FF90EF900895EF92FF920F931F9397
:1018A0007C01AFDF8C01C701D7DF9C01200F311F06
:1018B000C9011F910F91FF90EF900895CF93DF938F
:1018C000EC016115710519F420E030E00FC0DB0177
:1018D0000D900020E9F71197A61BB70BE881F9815D
:1018E0000280F381E02DAD0109959C01C901DF91D2
:1018F000CF9108954F925F927F928F929F92AF9275
:10190000BF92CF92DF92EF92FF920F931F93DF93DC
:10191000CF93CDB7DEB7A1970FB6F894DEBF0FBE59
:10192000CDBF2C01742ECB01223008F42AE019A27D
:1019300031E2C32ED12CCC0EDD1E822E9924AA2496
:10194000BB24672D752FA50194010E9437207901D2
:101950008A01C801B701A50194010E94F11F472D1A
:10196000461B0894C108D1084A3014F4405D01C0F8
:10197000495CF6014083E114F1040105110521F0F1
:101980007E2C5F2DC801DDCFC201B60197DFA19685
:101990000FB6F894DEBF0FBECDBFCF91DF911F9180
:1019A0000F91FF90EF90DF90CF90BF90AF909F90FE
:1019B0008F907F905F904F900895DC012115310545
:1019C00041F4ED91FC910190F081E02D642F099597
:1019D000089590CFEF92FF920F931F939A017B018E
:1019E00000E010E0B801A701E8DF1F910F91FF9020
:1019F000EF9008952F923F924F925F926F927F9255
:101A00008F929F92AF92BF92CF92DF92EF92FF920E
:101A10000F931F93DF93CF93CDB7DEB73B014C01FC
:101A200019012A016D897E898F89988D6A197B0930
:101A30008C099D09621A730A840A950AA40193010C
:101A40000E94F11FE218F30804091509A801970183
:101A50000E9459202A0D3B1D4C1D5D1DB901CA0174
:101A6000CF91DF911F910F91FF90EF90DF90CF907A
:101A7000BF90AF909F908F907F906F905F904F90AE
:101A80003F902F900895EF92FF920F931F937B0149
:101A90008C01611571058105910529F420E030E084
:101AA00040E050E00BC00E94F303A80197010E94A0
:101AB0005920AC01CB01DA019C01AD01B901CA0189
:101AC0001F910F91FF90EF900895EF92FF920F9367
:101AD0001F937B018C0162177307840795075CF4E1
:101AE000261B370B480B590BCA01B901CCDFE60E98
:101AF000F71E081F191FB701C8011F910F91FF9012
:101B0000EF900895009729F0BC0180E090E00C94DC
:101B1000F60308951F920F920FB60F9211242F9380
:101B20003F938F939F93AF93BF9380914105909183
:101B30004205A0914305B0914405309145050196B9
:101B4000A11DB11D232F2D5F2D3720F02D5701969C
:101B5000A11DB11D20934505809341059093420539
:101B6000A0934305B093440580913D0590913E05B7
:101B7000A0913F05B09140050196A11DB11D809334
:101B80003D0590933E05A0933F05B0934005BF915E
:101B9000AF919F918F913F912F910F900FBE0F901A
:101BA0001F9018958FB7F894209141053091420508
:101BB00040914305509144058FBFB901CA01089572
:101BC0009FB7F89420913D0530913E0540913F0527
:101BD0005091400586B5A89B06C08F3F21F02F5F2E
:101BE0003F4F4F4F5F4F9FBF542F432F322F22271E
:101BF000280F311D411D511D82E0220F331F441F4C
:101C0000551F8A95D1F7B901CA0108959B01AC010E
:101C10007FB7F89480913D0590913E05A0913F05D6
:101C2000B091400566B5A89B05C06F3F19F00196BD
:101C3000A11DB11D7FBFBA2FA92F982F8827860F0E
:101C4000911DA11DB11D62E0880F991FAA1FBB1F26
:101C50006A95D1F7BC012DC0FFB7F89480913D057E
:101C600090913E05A0913F05B0914005E6B5A89B37
:101C700005C0EF3F19F00196A11DB11DFFBFBA2F9E
:101C8000A92F982F88278E0F911DA11DB11DE2E06D
:101C9000880F991FAA1FBB1FEA95D1F7861B970BC8
:101CA000885E9340C8F22150304040405040685117
:101CB0007C4F211531054105510571F60895789441
:101CC00084B5826084BD84B5816084BD85B5826041
:101CD00085BD85B5816085BDEEE6F0E080818160DF
:101CE0008083E1E8F0E010828081826080838081DF
:101CF00081608083E0E8F0E0808181608083E1EBB7
:101D0000F0E0808184608083E0EBF0E0808181609E
:101D10008083EAE7F0E08081846080838081826054
:101D2000808380818160808380818068808310923D
:101D3000C1000895FC0188E0808389E0818387E009
:101D4000828386E0838384E0848382E0858381E1EB
:101D50008683089520E0FC01E60FF11D8781813024
:101D600009F421E0822F089520E0FC01E60FF11D27
:101D700087818F3F09F421E0822F08950F931F93ED
:101D8000CF93DF93EC0110E00FEF888162E00E94B7
:101D90003F1D88810E94D21D2F81892B19F42F5F4E
:101DA0002F8307C0222349F02F3F11F41F8201C067
:101DB0000F83888160E00E943F1D1F5F21961730CE
:101DC00021F7DF91CF911F910F910895FC01678F4B
:101DD00060A30895FC01678F40A30895FC0164355A
:101DE000A8F547FD33C040338CF5878D942F95952A
:101DF00095959595772767FD70954770882399F09D
:101E0000E4E59E02F0011124E60FF71FEA5BFA4FAA
:101E100081E090E002C0880F991F4A95E2F7208187
:101E2000282B20830895E4E59E02F0011124E60F9B
:101E3000F71FEA5BFA4F81E090E002C0880F991F1C
:101E40004A95E2F780952081282320830895AF9258
:101E5000BF92CF92DF92EF92FF920F931F93CF9397
:101E6000DF93EC01162FF42EE22EAA24402F5527E3
:101E700047FD50958F2D992787FD9095481B590B4D
:101E800057FF03C0509541955F4F2E2D332727FDF7
:101E90003095812F992787FD9095281B390B37FFA7
:101EA00003C0309521953F4F2417350744F4AA24E9
:101EB000A3948F2DF12E182F802F0E2DE82EE116D2
:101EC00034F48E2DE12E182F802F0F2DF82EDE2CBE
:101ED000D11A202F332727FD30958F2D992787FD85
:101EE0009095281B390B37FF03C0309521953F4F44
:101EF000B22EF0161CF0CC24CA9402C0CC24C39499
:101F00008D2DD7FC8F5F082F059510C0AA2021F0DA
:101F1000CE016F2D412F03C0CE01612F4F2D5EDF0B
:101F20000B1907FF02C0FC0C0D0D1F5FE11674F7C3
:101F3000DF91CF911F910F91FF90EF90DF90CF90A5
:101F4000BF90AF9008950F93042F322F262F21506A
:101F5000230F7DDF0F9108950F93362F042F01502B
:101F6000020F232F74DF0F9108959F92AF92BF92BB
:101F7000CF92DF92EF92FF920F931F93CF93DF9355
:101F80006C01B62E942EA02EC0E0D0E0E62EFF24E9
:101F9000E7FCF094022F112707FD10950E0D1F1D71
:101FA00005C0C601492D2A2DD7DF21966B2D6C0F58
:101FB000CE018E0D9F1D801791079CF3DF91CF916D
:101FC0001F910F91FF90EF90DF90CF90BF90AF9057
:101FD0009F9008952F923F925F926F927F928F927F
:101FE0009F92AF92BF92CF92DF92EF92FF920F93A8
:101FF0001F93DF93CF9300D000D000D0CDB7DEB7D2
:102000009E838D83C62ED42EEE24E394E21A8EEFA7
:10201000289F502C1124842E8A94962E9A94A42EB4
:10202000A394B62EB394F22E662423E0722E10E011
:10203000C801847090709A838983F801E270F0700F
:10204000FC83EB8398E0292E312C20223122017071
:1020500010704CC0E7FC04C0FA94F2E05F0EE50C8F
:10206000639489819A81892B61F04F2D4D0D8D816B
:102070009E816B2DB3DE6F2D6C0D8D819E814A2D5F
:10208000ADDEEB81FC81EF2B61F04D2D4F198D8181
:102090009E816B2DA3DE6F2D6C0D8D819E81482D51
:1020A0009DDE2114310461F06C2D6F198D819E81AC
:1020B0004A2D94DE4F2D4D0D8D819E81692D8EDE32
:1020C0000115110561F06C2D6F198D819E81482DD0
:1020D00085DE4D2D4F198D819E81692D7FDEE70CA8
:1020E000F2E07F0E8A949A94A394B3946F140CF444
:1020F000B1CF26960FB6F894DEBF0FBECDBFCF91FD
:10210000DF911F910F91FF90EF90DF90CF90BF90E4
:10211000AF909F908F907F906F905F903F902F90A7
:1021200008954F925F926F927F928F929F92AF929B
:10213000BF92CF92DF92EF92FF920F931F93CF93B4
:10214000DF93EC01A62E742E9E2DFF24F394F21A39
:102150008EEF289F802C1124B42EBA9453E0C52E04
:10216000CE0CE22EDD2443E0942E10E031E0432E2D
:10217000512C40225122692E63940270107030C09D
:10218000F7FC04C0EA9482E0880EF80CD394411462
:10219000510479F06D2D6A0D472D4E192E2D220F09
:1021A000260DCE01D9DE6E2D6A0DCE014B2D2C2DC4
:1021B000D3DE0115110579F06A2D6D19472D4E19E1
:1021C0002E2D220F260DCE01C7DE6A2D6E19CE01EF
:1021D0004B2D2C2DC1DEF90C82E0980EBA94C80E5E
:1021E000DE1474F2DF91CF911F910F91FF90EF9069
:1021F000DF90CF90BF90AF909F908F907F906F9027
:102200005F904F9008957F928F929F92AF92BF926E
:10221000CF92DF92EF92FF920F931F936C01962E55
:10222000A42EF22E7E2C760E1EEFE19E102D112490
:10223000812E820E672D282D86DEB02EBA0CBA9420
:10224000C601672D4B2D282D7EDEAE0C100FC6016A
:10225000692D4A2D212F80DEF90CFA94C6016F2DCD
:102260004A2D212F79DEC601672D4A2D2E2D01E042
:10227000B1DEFE18C6016F2D4A2D2E2D02E0AADE1A
:10228000BE18C6016F2D4B2D2E2D04E0A3DEC60116
:10229000672D4B2D2E2D08E09DDE1F910F91FF9095
:1022A000EF90DF90CF90BF90AF909F908F907F90F6
:1022B00008958F929F92AF92BF92CF92DF92EF924A
:1022C000FF920F931F936C01162FA42E922EF02EC7
:1022D000BE2C8E2C860E2EEFE29EE02C11242E2D8D
:1022E000290D682D42DEAB0CFA94FE0C1150190D2D
:1022F0001B19C601612F4A2D2B2D01E0EF2C11DF98
:10230000C601682D4A2D2B2D02E00BDF1F910F9186
:10231000FF90EF90DF90CF90BF90AF909F908F9005
:1023200008953F924F925F926F927F928F929F9209
:10233000AF92BF92CF92DF92EF92FF920F931F93D3
:10234000CF93DF934C01362E442EF901A4903196A1
:1023500054906F010894C11CD11C8A2D992787FDC8
:102360009095079668E070E00E942420E62EFF24F6
:10237000E7FCF09400E0C0E0D0E060E8662E712C4D
:1023800025C0E12FE595E595E595FF27E7FDF0955B
:10239000EC0FFD1FEC0DFD1DE4912E2F30E0812F81
:1023A0008770A30102C0559547958A95E2F72423CB
:1023B0003523232B29F0612F630DC4014B2D0EDD36
:1023C0001F5F1A15F4F20F5FCE0DDF1D051524F403
:1023D00010E0B02EB40CF5CFDF91CF911F910F918B
:1023E000FF90EF90DF90CF90BF90AF909F908F9035
:1023F0007F906F905F904F903F900895DC01FB01BC
:1024000084918F5F14968C931497319684918F5F8B
:1024100015968C93159731965E96FC93EE935D9787
:1024200008953F924F925F926F927F928F929F9208
:10243000AF92BF92CF92DF92EF92FF920F931F93D2
:10244000CF93DF93EC01862EA42E422F102F3F8CCA
:1024500023E526170CF4A7C03FE23A150CF4A3C0FD
:10246000C02EDD248C8190E001979C01C29EC001AA
:10247000C39E900DD29E900D1124262F332727FD49
:102480003095820F931F181619060CF08CC08D81A1
:1024900090E09C01C29EC001C39E900DD29E900D03
:1024A00011242A2D332727FD3095820F931F1816EC
:1024B00019060CF078C09924442E552469C09C015B
:1024C000215030404217530711F460E00EC0429E85
:1024D000C001439E900D529E900D1124840F951FB4
:1024E000ED8DFE8DE80FF91F64914C9DC0014D9D4F
:1024F000900D5C9D900D1124682C680EBB24792CE6
:10250000780C3BC0E62EFF2460FF17C0113031F479
:102510004B2D4A0DCE01672D61DC2BC02C9DC001D7
:102520002D9D900D3C9D900D11244A2D480FCE01FC
:10253000662D212F012F19DD1CC098A18F8D9817B2
:10254000C1F09F8F113031F44B2D4A0DCE01672D14
:1025500045DC0EC02C9DC0012D9D900D3C9D900D25
:1025600011244A2D480FCE01662D212F012FFDDCAD
:102570003F8EF594E7946E2DB3942B2D332727FDD2
:1025800030958D8190E0281739070CF4BBCF9394D8
:10259000492D552747FD50958C8190E048175907E4
:1025A0000CF48DCF3F8EDF91CF911F910F91FF9053
:1025B000EF90DF90CF90BF90AF909F908F907F90E3
:1025C0006F905F904F903F9008950F93CF93DF935C
:1025D000EC01262F6A3049F48D819885899F802DE2
:1025E00011249A85980F9A8725C06D3021F169854D
:1025F0004A85088516DF9C816885969F402D1124A9
:102600008985480F49878F818823A9F0552747FD81
:102610005095699F9001112484E590E0821B930BF3
:102620008417950744F49D81699F902D11248A8514
:10263000890F8A87198681E090E0DF91CF910F9111
:1026400008951F93CF93DF93EC01162FF8948E8596
:1026500060E00E947E1D8F8518161CF460E00E94C9
:102660007E1D1EBD0DB407FEFDCF8EB58F851816DD
:102670001CF461E00E947E1D7894DF91CF911F9140
:102680000895FF920F931F93CF93DF93EC01FF24E4
:1026900000E010E06F2D6064CE01D3DFCE0160E872
:1026A000D0DF8E8561E00E947E1D8F8518161CF498
:1026B00060E00E947E1DF801EA5BFA4F90E08081A5
:1026C0008EBD0DB407FEFDCF8EB59F5F319694355C
:1026D000B1F78F8518161CF461E00E947E1DF394FB
:1026E0000C5A1F4F86E0F816A9F6CE0160E4A9DF68
:1026F000DF91CF911F910F91FF900895CF93DF93BA
:10270000DC0188EF91E0E6E4F5E0EF019C0119922D
:1027100021503040E1F719961C9219971A961C9295
:10272000DF91CF910895EF920F93CF93DF93EC0158
:102730004D876C872E87E88A0F8781E088878F8F87
:1027400018A28F83EEE0F3E084918F5F8C83319643
:1027500084918F5F8D833196FE8FED8F0E94AD1C2B
:1027600081E00E948E1C85E00E949C1C8CE00E94EF
:10277000971C8D8561E00E943F1D8C8561E00E9461
:102780003F1D8E8561E00E943F1D888918161CF44C
:1027900061E00E943F1D8F8518161CF461E00E94C5
:1027A0003F1D8889181664F460E00E947E1D6AE06F
:1027B00070E080E090E02ADA888961E00E947E1D66
:1027C000EC852E2F332727FD3095F901E255FB4F7D
:1027D000E491F0E0EE0FFF1FE656FB4F85919491D8
:1027E0009C8B8B8B2E533B4FF90184918A8FED8507
:1027F0002E2F332727FD3095F901E255FB4FE49149
:10280000F0E0EE0FFF1FE656FB4F859194919A8BF7
:10281000898B2E533B4FF9018491898FEF852E2FA1
:10282000332727FD3095F901E255FB4FE491F0E0A5
:10283000EE0FFF1FE656FB4F859194919E8B8D8B7B
:102840002E533B4FF90184918B8FEE852E2F33272A
:1028500027FD3095F901E255FB4FE491F0E0EE0FD2
:10286000FF1FE656FB4F85919491988F8F8B2E53C7
:102870003B4FF90184918C8FCE0161E2E2DECE0103
:1028800064E1DFDE8B8587FF02C08FE78B876B8576
:102890006068CE01D6DECE0160E2D3DECE016CE010
:1028A000D0DECE01EEDEDF91CF910F91EF90089553
:1028B000CF93DF93DC01E0E8FFE685919491ED0191
:1028C000C95ADF4FAD0143595F4F8150904C09F019
:1028D0004EC0E6E9FFE6E491E883E7E9FFE6E4912C
:1028E0001496EC931497E8E9FFE6E4911596EC93BF
:1028F0001597E9E9FFE68591949117969C938E933D
:102900001697EBE9FFE68591949119969C938E9327
:102910001897EDE9FFE6E4919996EC939997EEE923
:10292000FFE6E4919896EC939897EFE9FFE6E4913F
:10293000EA01E883E0EAFFE6859194915D969C9335
:102940008E935C97E2EAFFE6859194915F969C9363
:102950008E935E97E4EAFFE68591949191969C931D
:102960008E939097E6EAFFE68591949132C08CE3CE
:10297000888314961C9214972FEF15962C93159715
:1029800080E293E017969C938E93169784ED93E0E4
:1029900019969C938E93189781E099968C939997AA
:1029A00098968C939897FA0120838CEA9DE05D9627
:1029B0009C938E935C978EED9DE05F969C938E9397
:1029C0005E9784E79EE091969C938E9390978CE31C
:1029D0009FE093969C938E939297DF91CF91089569
:1029E000CF92DF92EF92FF920F931F9362177307BC
:1029F00084F0E20EF31E6E157F055CF4401751075C
:102A000044F080E0C00ED11E4C155D051CF481E041
:102A100001C080E01F910F91FF90EF90DF90CF9069
:102A20000895EF92FF920F931F93CF93DF937C0152
:102A30008C01045B1F4FC80161DEC80160EC71E0CE
:102A40000E94010CC8011DDE83E076D780E091E092
:102A5000EEEFFFE3099582E590E0E80EF91EF7013D
:102A60001082C8016BE971E00E944C0CC80109DEBC
:102A7000E701C854D040CE0181D9CE0164E06AD9C3
:102A8000882331F462E370E080E090E0BFD8F3CFB8
:102A9000DF91CF911F910F91FF90EF9008950F93C9
:102AA0001F93CF93DF93EC018C01045B1F4FC80190
:102AB00061E040E08FD9FE01EB5AFF4FC05BDF4F72
:102AC00085E59881891B808326961882C655D0405B
:102AD000698D613049F1613028F0888D653008F0EA
:102AE0003CC036C0CE018596C2D3CE0160E00E94C4
:102AF000291EC80103DEC80168EE71E00E94010CC6
:102B0000C801BFDD83B7817F846083BF83B78160E5
:102B100083BF83B7816083BF889583B78E7F83BF70
:102B200083B78E7F83BF1FC0C259DF4F88819981D1
:102B3000AA81BB818F709070A070B0700897A105BA
:102B4000B10518F4C80167E00CC0C80168E709C006
:102B5000882349F06B5FC80104C0882321F0C801B5
:102B60006FE20E94240CDF91CF911F910F91089585
:102B7000AF92BF92CF92DF92EF92FF920F931F938B
:102B8000CF93DF93EC01CD57DF4F8881C358D040FE
:102B9000882309F446C08C3010F010E002C01CE01D
:102BA000181BCC5ADF4F81E08883C455D0406CE4B9
:102BB000C62ED12CCC0EDD1EC60160E007D951E532
:102BC000A52EB12CAC0EBD1EF50100814DE2F42EF8
:102BD0004F2D401B410F0D5FC60160E024E533E03F
:102BE000E32E67DBC60161E0F1D8F5010081F01A40
:102BF000F10E0D5FC60160E04F2D24E504DBCB5ADA
:102C0000DF4F84E08993F5018081181B115D1883E3
:102C1000AB9669917991C6010E94010C888181501F
:102C20008883DF91CF911F910F91FF90EF90DF90FC
:102C3000CF90BF90AF9008958F929F92AF92BF9226
:102C4000CF92DF92EF92FF920F931F934C01FC0102
:102C5000A28CB38CCC24DD240E94E00D7B018C017E
:102C6000F401818092800E94E00D860E971EE09410
:102C7000F09400951095C801B701A60195010E9436
:102C8000F11F860E971EC4010E94820D1F910F91A5
:102C9000FF90EF90DF90CF90BF90AF909F908F907C
:102CA0000895AF92BF92CF92DF92EF92FF920F936F
:102CB0001F93CF93DF93EC01EDE7AE2EB12CA80E5E
:102CC000B91EF501E080F180028113810E94D20DCE
:102CD000E61AF70A080B190B7CE7C72ED12CCC0E8D
:102CE000DD1EF601808190E0A0E0B0E08E159F052A
:102CF000A007B10708F077C08E0108581F4FF801F0
:102D000080819181A281B3810097A105B10509F469
:102D10006AC00E94D20DF6012081620F711D811DD3
:102D2000911DF5016083718382839383FE01E259D3
:102D3000FF4F80819181A281B3810196A11DB11DB8
:102D400080839183A283B383F8011082118212825F
:102D500013820E94E00DCC58DF4F688379838A8309
:102D60009B83C457D040CE0177D7CE010A9606D8B0
:102D7000CE014896E1D78E010B5D1F4FC80161D28D
:102D8000C801D2D3C80121D581E022C0CE01F0DE36
:102D9000CE0185DE8E01045B1F4FC80172DCCE5A66
:102DA000DF4F8881C255D040882311F4C801A6DCCA
:102DB0000E94E00DC858DF4F688379838A839B8324
:102DC000249728813981621B730B7A936A9380E080
:102DD000DF91CF911F910F91FF90EF90DF90CF90F7
:102DE000BF90AF900895C858DF4F88819981AA811C
:102DF000BB81C857D0400097A105B10541F7C6CFA8
:102E00002F923F924F925F926F927F928F929F92FA
:102E1000AF92BF92CF92DF92EF92FF920F931F93E8
:102E2000DF93CF93CDB7DEB72B970FB6F894DEBF05
:102E30000FBECDBF9B878A877A8369835C834B8370
:102E40008C0103591F4FF8018081882309F415C1B3
:102E50008A859B858D5A9F4FFC0110821292E25504
:102E6000F040FB87EA87108E9CE4E92EF12CEE0EF1
:102E7000FF1EC70161E00E94E60E8AE0282E312C79
:102E80008A859B85280E391EB5E26B2E712C680E43
:102E9000791EE981FA81F491FD83A5E58A2E912CB2
:102EA000880E991EF6E5CF2ED12CC80ED91EE0E56E
:102EB0004E2E512C480E591E8F5A9F4F9F838E8342
:102EC0007EE6A72EB12C8A859B85A80EB91E198790
:102ED00008878A859B85E5DE8823D9F39D81992320
:102EE00011F410E003C0EE81FF811081C70160E0A2
:102EF00040E024E332E015DA8B819C81892B39F0A4
:102F0000145FC70160E0412F2B813C810ADAF40194
:102F100010828CE0F6018083C70169817A810E946A
:102F2000010CF201208130E0C901880F991F820F46
:102F3000931F909581959F4F8D5AF4018083EE8168
:102F4000FF81208130E0C901880F991F820F931FF4
:102F5000909581959F4F835DF6018083F501808177
:102F600084FF04C0C70164EB72E003C0C70160EBDB
:102F700072E00E944C0CF201208130E0C901880F00
:102F8000991F820F931F909581959F4F8D5AF40141
:102F90008083F60180818F5F8083EA85FB8580A531
:102FA000882321F0C7016CEA72E003C0C70168EA18
:102FB00072E00E944C0CF201808190E09C01220F93
:102FC000331F280F391F309521953F4F2D5AF4019B
:102FD0002083F60180818F5F8083C70164EA72E0FD
:102FE0000E944C0CC10165E00E94AA0E882341F0AA
:102FF000EA85FB8560A56F5FC3014CD4C30146D44D
:10300000C10164E00E94AA0E882399F4E885F9853D
:103010006081262F30E040E050E0F5018081918111
:10302000A281B38182179307A407B507F0F06F3F21
:10303000E1F08A859B8583599F4F9B878A878FEF15
:10304000EA85FB858083ED56F040FB87EA87C30164
:1030500060E0F9D0C30112D481E0EA85FB85808F5E
:103060000CC08A859B85DDDC34CFC10166E00E94FF
:10307000AA0E882309F42DCFF4CF2B960FB6F8941F
:10308000DEBF0FBECDBFCF91DF911F910F91FF909B
:10309000EF90DF90CF90BF90AF909F908F907F90F8
:1030A0006F905F904F903F902F900895AF92BF9296
:1030B000CF92DF92EF920F93CF93DF936C018CE767
:1030C00090E0C80ED91E82E3F601808381E090E093
:1030D000A0E0B0E0B293A293929382936F0185EF48
:1030E0009FEFC80ED91E8FEFF601808383E99FEF13
:1030F000C80ED91EC601DCDBC601A7D5C6016FEF1D
:10310000A8D54AE0A42EB12CAC0CBD1CC5010E9470
:103110009A0EC5010E94BE0EC601489603D6C6018E
:10312000845B9F4F6DE04BE020E10FE03EE0E32E3B
:10313000FADAE601A596CE01B9D3C50165E00E9491
:10314000AA0E882321F0CE0160E0A4D305C0CE01F1
:103150006AEB72E040E009D0DF91CF910F91EF90E0
:10316000DF90CF90BF90AF900895CF93DF93EC01A5
:10317000442369F41D8A1B8A1AA219A21E8A10927E
:1031800042071092410710923F071092B400A42FFB
:10319000B0E09E012A0F3B1FFD01EE0FFF1FEC0F59
:1031A000FD1F748763871896AA0FBB1FAC0FBD1F46
:1031B0001D921C9281E0F901818389E0848B178A3A
:1031C000118E138EDF91CF910895CF93DF939C01E1
:1031D000462FA62FB0E0EC01CA0FDB1F88818823A1
:1031E00069F18981882351F5FD01EE0FFF1FE20F80
:1031F000F31F8F8190E0880F991F0580F681E02DE5
:10320000E80FF91F859194915FEF8F3F950711F4B7
:10321000188214C09A871496AA0FBB1FA20FB31F5F
:1032200090E0880F991FED91FC91E80FF91F6591CF
:103230007491C9019ADF8F818F5F8F83DF91CF9166
:10324000089560E0C2CFFC01662369F4158A138AF1
:1032500012A211A2168A10924207109241071092F0
:103260003F071092B400E60FF11D11820895FC0192
:10327000158A138A12A211A2168A1092420710927E
:10328000410710923F071092B400118208950F93E6
:10329000CF93DF93EC01623009F440C0633030F427
:1032A000662359F0613009F04AC00BC0633009F45D
:1032B0003BC0643009F043C03DC0C00FD11D4C8BF2
:1032C0003EC0602F70E0DB01AA0FBB1FAC0FBD1F1B
:1032D000842F90E0880F991F1D962D913C911E9789
:1032E000280F391FF901859194915E969C938E93D6
:1032F0005D97FC0145915491A42FFE01E60FF71F45
:10330000478F252F3327842F90E02817390708F49B
:10331000A52F6C0F7D1FFB01A0A311C0FC01E00FC6
:10332000F11D478B208F0BC0FC01E00FF11D418F79
:10333000228F05C0FC01E00FF11D438F248FDF9128
:10334000CF910F9108955F926F927F928F929F928B
:10335000AF92BF92CF92DF92EF92FF920F931F93A3
:10336000CF93DF936C01562EE62EFF24DC01AE0DC9
:10337000BF1D11968C911197882309F4C5C05396EF
:103380008C915397882309F0BFC08701000F111F4C
:103390000C0D1D1DE7012896CC0FDD1FCC0DDD1D8A
:1033A00068817981660F771FF80143855485640F22
:1033B000751FFB01259134912115310509F067C076
:1033C0001F968C911F97813031F419821882FA016F
:1033D000259134915CC011961C9211978C91882391
:1033E00089F0C601652DF1DE88819981880F991FCA
:1033F000D8011B96ED91FC911C97E80FF91F2591C0
:10340000349145C0552009F07FC055961C925597C0
:1034100053961C925397F80112A211A256961C9231
:10342000F701EE5BF84F1082F701EF5BF84F108267
:103430002FE337E0E20EF31ED7011C9280913F0785
:10344000882311F0809142078093B4005DC0A6E00C
:1034500036952795AA95E1F76F70422F4F71F5E0E9
:1034600036952795FA95E1F72051C601052D0FDF16
:1034700088819981019699838883880F991FD50146
:10348000ED91FC91E80FF91F2591349114C047018B
:10349000880C991C68E0662E712C6E0C7F1CE30171
:1034A000CC0FDD1FCC0DDD1D5601A80CB91CEBE0C7
:1034B000F0E0AE0EBF1EB9017695679576956795DB
:1034C00020FDC5CFF601EE0DFF1D862F8F73828B79
:1034D000338B13A28C0C9D1CD40192961C921E92CD
:1034E000919781E0858B2FE337E0E20EF31ED70141
:1034F0008C93168AF301EE0FFF1FEC0DFD1D8081EA
:103500009181019691838083DF91CF911F910F91DB
:10351000FF90EF90DF90CF90BF90AF909F908F90F3
:103520007F906F905F90089560E00DCFDF92EF92F3
:10353000FF920F931F93CF93DF937C01062F10E030
:10354000DC01A00FB11F55968C915597882309F483
:1035500034C153968C915397882339F5662309F02B
:103560002CC155961C92559753961C925397F8016F
:10357000EE0FFF1FEE0DFF1D12A211A256961C9218
:10358000F801EE5BF84F1082F801EF5BF84F108204
:10359000015C184FF801108280913F07882311F0D9
:1035A000809142078093B40008C1815053968C9358
:1035B000539793968C919397882309F069C0E801FB
:1035C000CC0FDD1FCE0DDF1D89A19AA10196880FBA
:1035D000991FED8DFE8DE80FF91F85919491282F8D
:1035E000277094962C939497AC01E3E056954795F9
:1035F000EA95E1F79A0136952795892F99278695BF
:10360000869595968C9395972F73F7018281289FC5
:10361000202D112493962C939397F801ED5BF84F8E
:103620004170408389A19AA101969AA389A35F96CC
:103630002C915F9730E08217930750F190968C9110
:103640009097882329F0281B31093AA329A320C089
:103650006623F1F455961C92559753961C925397F6
:103660001AA219A256961C92F801EE5BF84F10822E
:10367000F801EF5BF84F1082F801E15CF84F10821F
:1036800080913F07882311F0809142078093B40016
:10369000F701E00FF11F83A1815083A336893F5FBB
:1036A000368B428925A1240F8285280F618D6623E0
:1036B00011F4D22E0BC0832F992787FD909570E0CF
:1036C000C3D4828D869FD02C1124D20EF701E00F37
:1036D000F11F24896789662369F0772767FD709554
:1036E000832F992787FD9095AFD4808D869F802D5D
:1036F0001124280FF701E00FF11F638D662379F085
:10370000832F992787FD909570E09ED4CB0162E0CE
:1037100070E09AD4948D899F802D1124280F4F3307
:1037200031F0822F2A300CF089E0482F87FD40E0ED
:10373000F8948D2D992787FD9095849664E270E02A
:1037400083D4E82FFF27E7FDF095E252FD4FE49187
:10375000D801A05CB84FEC93F701E00FF11F26A150
:1037600030E084A1992787FD9095B901689F900169
:10377000699F300D789F300D1124F701838190E00F
:10378000B901689F9001699F300D789F300D112419
:10379000842F992787FD9095FC012E9FC0012F9FB4
:1037A000900D3E9F900D1124F801EF5BF84F808340
:1037B0000E5B184FF80180837894DF91CF911F91B1
:1037C0000F91FF90EF90DF90089560E0AFCE609191
:1037D0004107662379F180913E078F5F80933E0712
:1037E00090914007891730F130E080913F0788239E
:1037F00009F431E030933F0710923E078091430770
:103800008823A1F08091170123E4829FC001112435
:10381000895B8093170190E070E002D480934207A7
:1038200005C0809142078093B40008953323C9F7FF
:1038300080E0F9CF08951F920F920FB60F921124D6
:103840002F933F934F935F936F937F938F939F93A8
:10385000AF93BF93EF93FF93BADFFF91EF91BF91C7
:10386000AF919F918F917F916F915F914F913F9118
:103870002F910F900FBE0F901F90189566ED72E07C
:1038800040E073CC6EEC72E040E06FCC68EC72E02C
:1038900040E06BCCFC01862F648170E06F5F7F4F4E
:1038A000992787FD9095D0D3838308950F93FC01CA
:1038B00081E0828384E086A382E093E09687858717
:1038C000CF0161E040E020E000E0E1DC83E061E086
:1038D00070E077D0E1EBF0E08081887F81608083C9
:1038E000F89410928000E1E8F0E0108210928500D8
:1038F0001092840088E191E0909389008093880081
:10390000808188608083808181608083EFE6F0E041
:1039100080818260808378940F910895882319F4C0
:103920008CB5806202C08CB58F7D8CBD08959CB52E
:10393000937F982B9CBD08952CB5382F33702C7F26
:10394000322B3CBD2DB590E0959587959595879543
:1039500081702E7F822B8DBD08958AE061E0CED0EC
:103960008AE061E08CD08CB580618CBD8CB58064C0
:103970008CBD8DE061E083D08BE061E080C0982F4A
:103980008E3008F09E509770809118018295880FB4
:10399000880F807C892B80937C0080917A008064E2
:1039A00080937A0080917A0086FDFCCF2091780088
:1039B00040917900942F80E030E0282B392BC90109
:1039C00008951F93CF93DF93182FEB0161E057D039
:1039D000209709F44AC0CF3FD10509F449C0E12F2F
:1039E000F0E0EA52FB4F84918330C1F0843028F438
:1039F000813051F08230B1F50CC0863019F187303A
:103A000049F1843079F514C084B5806884BDC7BDA0
:103A100032C084B5806284BDC8BD2DC08091800055
:103A2000806880938000D0938900C093880023C071
:103A300080918000806280938000D0938B00C0933F
:103A40008A0019C08091B00080688093B000C09354
:103A5000B30011C08091B00080628093B000C09329
:103A6000B40009C0C038D1051CF4812F60E002C049
:103A7000812F61E043D0DF91CF911F910895CF93C3
:103A8000DF93482F50E0CA018E539B4FFC013491C5
:103A900042555B4FFA018491882369F190E0880FC9
:103AA000991FFC01E057FB4FA591B491FC01E6562C
:103AB000FB4FC591D491662351F42FB7F8948C91A4
:103AC000932F909589238C93888189230BC0623032
:103AD00061F42FB7F8948C91932F909589238C9350
:103AE0008881832B88832FBF06C09FB7F8948C9161
:103AF000832B8C939FBFDF91CF910895482F50E087
:103B0000CA018A529B4FFC012491CA018E539B4FDC
:103B1000FC01949142555B4FFA013491332309F42F
:103B200040C0222351F1233071F0243028F4213099
:103B3000A1F0223011F514C02630B1F02730C1F0C9
:103B40002430D9F404C0809180008F7703C0809125
:103B500080008F7D8093800010C084B58F7702C075
:103B600084B58F7D84BD09C08091B0008F7703C07C
:103B70008091B0008F7D8093B000E32FF0E0EE0FD6
:103B8000FF1FE656FB4FA591B4912FB7F89466231B
:103B900021F48C919095892302C08C91892B8C9370
:103BA0002FBF0895682F70E0CB018A529B4FFC0114
:103BB0002491CB018E539B4FFC01449162557B4F66
:103BC000FB019491992319F420E030E03CC02223BA
:103BD00051F1233071F0243028F42130A1F022304B
:103BE00011F514C02630B1F02730C1F02430D9F4DB
:103BF00004C0809180008F7703C0809180008F7D0A
:103C00008093800010C084B58F7702C084B58F7D0B
:103C100084BD09C08091B0008F7703C08091B0004F
:103C20008F7D8093B000892F90E0880F991F8C556D
:103C30009B4FFC01A591B4918C9120E030E084234E
:103C400011F021E030E0C9010895FC0181E080839A
:103C5000089585E070E0B5CE6F927F928F929F922B
:103C6000AF92BF92CF92DF92EF92FF920F931F938A
:103C7000CF93DF93EC0189819A818C0124E0000FBE
:103C8000111F2A95E1F7081B190B85E178DEBC01AD
:103C9000600F711F84E0769567958A95E1F77A83C6
:103CA00069838881882379F12E813F8162177307A8
:103CB00010F4B90106C0888599858617970708F41E
:103CC000BC0100D000D080E090E040E050E0E8840B
:103CD000F98400E010E0AD80BB24CC24DD246C80AE
:103CE000772488249924EDB7FEB76182728283829B
:103CF00094820E94FA0C6B830F900F900F900F909C
:103D000085E070E05EDEDF91CF911F910F91FF9013
:103D1000EF90DF90CF90BF90AF909F908F907F906B
:103D20006F900895FC018CE39FE09383828384E08D
:103D3000818381E084870895CF93DF93EC018C85A4
:103D400090E08F719070892B49F584E118DEAA27E5
:103D500097FDA095BA2FBC01CD0154D026EE3FE3CC
:103D60004EEC50E4DBD020D09B01AC017B836A8316
:103D70006115710589F084E08983B901FE0120E0B5
:103D8000848195816817790710F429830AC02F5F11
:103D900032962430A9F702C08FEF89838C858F5F1C
:103DA0008C87DF91CF91089598D088F09F5790F03D
:103DB000B92F9927B751A0F0D1F0660F771F881F50
:103DC000991F1AF0BA95C9F712C0B13081F09FD08F
:103DD000B1E008959CC0672F782F8827B85F39F02D
:103DE000B93FCCF3869577956795B395D9F73EF4AF
:103DF00090958095709561957F4F8F4F9F4F089557
:103E0000E89409C097FB3EF4909580957095619574
:103E10007F4F8F4F9F4F9923A9F0F92F96E9BB272A
:103E20009395F695879577956795B795F111F8CFA6
:103E3000FAF4BB0F11F460FF1BC06F5F7F4F8F4F11
:103E40009F4F16C0882311F096E911C0772321F007
:103E50009EE8872F762F05C0662371F096E8862F9F
:103E600070E060E02AF09A95660F771F881FDAF7F6
:103E7000880F9695879597F9089597F99F6780E839
:103E800070E060E008959FEF80EC089500240A94AC
:103E90001616170618060906089500240A94121625
:103EA0001306140605060895092E0394000C11F458
:103EB000882352F0BB0F40F4BF2B11F460FF04C005
:103EC0006F5F7F4F8F4F9F4F089557FD9058440F5E
:103ED000551F59F05F3F71F04795880F97FB991F69
:103EE00061F09F3F79F08795089512161306140626
:103EF000551FF2CF4695F1DF08C0161617061806B3
:103F0000991FF1CF86957105610508940895E8948D
:103F1000BB2766277727CB0197F908950BD0C4CF2D
:103F2000B5DF28F0BADF18F0952309F0A6CFABCFA4
:103F30001124EECFCADFA0F3959FD1F3950F50E087
:103F4000551F629FF001729FBB27F00DB11D639F4B
:103F5000AA27F00DB11DAA1F649F6627B00DA11DF1
:103F6000661F829F2227B00DA11D621F739FB00D97
:103F7000A11D621F839FA00D611D221F749F332707
:103F8000A00D611D231F849F600D211D822F762FA0
:103F90006A2F11249F5750408AF0E1F088234AF09D
:103FA000EE0FFF1FBB1F661F771F881F91505040E9
:103FB000A9F79E3F510570F060CFAACF5F3FECF3A9
:103FC000983EDCF3869577956795B795F795E795D5
:103FD0009F5FC1F7FE2B880F911D9695879597F9E6
:103FE0000895629FD001739FF001829FE00DF11D43
:103FF000649FE00DF11D929FF00D839FF00D749F63
:10400000F00D659FF00D9927729FB00DE11DF91F0E
:10401000639FB00DE11DF91FBD01CF01112408956B
:10402000AA1BBB1B51E107C0AA1FBB1FA617B707DE
:1040300010F0A61BB70B881F991F5A95A9F78095FA
:104040009095BC01CD01089597FB092E07260AD053
:1040500077FD04D0E5DF06D000201AF47095619555
:104060007F4F0895F6F7909581959F4F0895A1E2AF
:104070001A2EAA1BBB1BFD010DC0AA1FBB1FEE1FE2
:10408000FF1FA217B307E407F50720F0A21BB30B2D
:10409000E40BF50B661F771F881F991F1A9469F7A9
:1040A00060957095809590959B01AC01BD01CF0105
:1040B000089597FB092E05260ED057FD04D0D7DFB3
:1040C0000AD0001C38F450954095309521953F4F0B
:1040D0004F4F5F4F0895F6F79095809570956195D5
:1040E0007F4F8F4F9F4F0895EE0FFF1F0590F49164
:1040F000E02D09942F923F924F925F926F927F92A0
:104100008F929F92AF92BF92CF92DF92EF92FF92E7
:104110000F931F93CF93DF93CDB7DEB7CA1BDB0B93
:104120000FB6F894DEBF0FBECDBF09942A88398838
:1041300048885F846E847D848C849B84AA84B9843F
:10414000C884DF80EE80FD800C811B81AA81B9814B
:10415000CE0FD11D0FB6F894DEBF0FBECDBFED015F
:10416000089514E0CCEED4E003C0FE01BFDF229638
:0A417000CE3ED107D1F7F894FFCF3F
:10417A004C4F41444552002000480700000100000E
:10418A00007A008100880001010000000018047410
:10419A0006000000007B063007000000007E07EAE8
:1041AA000700000000F1075809000000009E09609E
:0A41BA000A00000000E512D70B0018
:00000001FF
